1AIRLINE STANDARD SCHEDULE DATA SET                                                                                                                                                            001000001
00000000000000000000000000000000000000000000000000000000000000000000000000000000000000000000000000000000000000000000000000000000000000000000000000000000000000000000000000000000000000000000000000000000
00000000000000000000000000000000000000000000000000000000000000000000000000000000000000000000000000000000000000000000000000000000000000000000000000000000000000000000000000000000000000000000000000000000
00000000000000000000000000000000000000000000000000000000000000000000000000000000000000000000000000000000000000000000000000000000000000000000000000000000000000000000000000000000000000000000000000000000
00000000000000000000000000000000000000000000000000000000000000000000000000000000000000000000000000000000000000000000000000000000000000000000000000000000000000000000000000000000000000000000000000000000
2UEY  0008    01DEC1802FEB2011SEP18Created by Sabre Airflite           PCreated by Sabre AirFlite                                                                                           EN1754000002
00000000000000000000000000000000000000000000000000000000000000000000000000000000000000000000000000000000000000000000000000000000000000000000000000000000000000000000000000000000000000000000000000000000
00000000000000000000000000000000000000000000000000000000000000000000000000000000000000000000000000000000000000000000000000000000000000000000000000000000000000000000000000000000000000000000000000000000
00000000000000000000000000000000000000000000000000000000000000000000000000000000000000000000000000000000000000000000000000000000000000000000000000000000000000000000000000000000000000000000000000000000
00000000000000000000000000000000000000000000000000000000000000000000000000000000000000000000000000000000000000000000000000000000000000000000000000000000000000000000000000000000000000000000000000000000
3 EY  9020101F05DEC1826DEC18  3     LCK07450745-0500  FRA15401540+0100  77X                                                                                                                       000003
3 EY  9020102F05DEC1826DEC18  3     FRA18101810+0100  AUH00400040+0400  77X                                                              EY  904                                                  000004
3 EY  9020201F09JAN1930JAN19  3     LCK07450745-0500  FRA15401540+0100  77X                                                                                                                       000005
3 EY  9020202F09JAN1930JAN19  3     FRA18101810+0100  AUH00400040+0400  77X                                                              EY  904                                                  000006
3 EY  9020301F20FEB1906MAR19  3     LCK07450745-0500  FRA15401540+0100  77X                                                                                                                       000007
3 EY  9020302F20FEB1906MAR19  3     FRA18101810+0100  AUH00400040+0400  77X                                                              EY  904                                                  000008
3 EY  9020401F13MAR1927MAR19  3     LCK07450745-0400  FRA15401540+0100  77X                                                                                                                       000009
3 EY  9020402F13MAR1927MAR19  3     FRA18101810+0100  AUH00400040+0400  77X                                                              EY  904                                                  000010
3 EY  9020501F03APR1910APR19  3     LCK07450745-0400  FRA15401540+0200  77X                                                                                                                       000011
3 EY  9020502F03APR1910APR19  3     FRA18101810+0200  AUH00400040+0400  77X                                                              EY  904                                                  000012
3 EY  9020601F24APR1924APR19  3     LCK07450745-0400  FRA15401540+0200  77X                                                                                                                       000013
3 EY  9020602F24APR1924APR19  3     FRA18101810+0200  AUH00400040+0400  77X                                                              EY  904                                                  000014
3 EY  9020701F08MAY1928AUG19  3     LCK07450745-0400  FRA15401540+0200  77X                                                                                                                       000015
3 EY  9020702F08MAY1928AUG19  3     FRA18101810+0200  AUH00400040+0400  77X                                                              EY  904                                                  000016
3 EY  9020801F11SEP1923OCT19  3     LCK07450745-0400  FRA15401540+0200  77X                                                                                                                       000017
3 EY  9020802F11SEP1923OCT19  3     FRA18101810+0200  AUH00400040+0400  77X                                                              EY  904                                                  000018
3 EY  9020901F30OCT1930OCT19  3     LCK07450745-0400  FRA15401540+0100  77X                                                                                                                       000019
3 EY  9020902F30OCT1930OCT19  3     FRA18101810+0100  AUH00400040+0400  77X                                                              EY  904                                                  000020
3 EY  9021001F06NOV1929JAN20  3     LCK07450745-0500  FRA15401540+0100  77X                                                                                                                       000021
3 EY  9021002F06NOV1929JAN20  3     FRA18101810+0100  AUH00400040+0400  77X                                                              EY  904                                                  000022
3 EY  9040101F06DEC1827DEC18   4    AUH06000600+0400  AMS13451345+0100  77X                                                              EY  918                                                  000023
3 EY  9040201F03JAN1928MAR19   4    AUH06000600+0400  AMS13451345+0100  77X                                                              EY  914                                                  000024
3 EY  9040301F04APR1924OCT19   4    AUH06000600+0400  AMS13451345+0200  77X                                                              EY  914                                                  000025
3 EY  9040401F31OCT1930JAN20   4    AUH06000600+0400  AMS13451345+0100  77X                                                              EY  914                                                  000026
3 EY  9060101F02DEC1823DEC18      7 AMS20002000+0100  TBS00300030+0400  77X                                                                                                                       000027
3 EY  9060102F03DEC1824DEC181       TBS02300230+0400  AUH05400540+0400  77X                                                              EY  981                                                  000028
3 EY  9060201F30DEC1830DEC18      7 AMS20002000+0100  TBS00300030+0400  77X                                                                                                                       000029
3 EY  9060202F31DEC1831DEC181       TBS02300230+0400  AUH05400540+0400  77X                                                              EY  9817                                                 000030
3 EY  9060301F13JAN1927JAN19      7 AMS20002000+0100  TBS00300030+0400  77X                                                                                                                       000031
3 EY  9060302F14JAN1928JAN191       TBS02300230+0400  AUH05400540+0400  77X                                                              EY  981                                                  000032
3 EY  9060401F03FEB1903FEB19      7 AMS20002000+0100  TBS00300030+0400  77X                                                                                                                       000033
3 EY  9060402F04FEB1904FEB191       TBS02300230+0400  AUH05400540+0400  77X                                                              EY  9043                                                 000034
3 EY  9060501F10FEB1910FEB19      7 AMS20002000+0100  TBS00300030+0400  77X                                                                                                                       000035
3 EY  9060502F11FEB1911FEB191       TBS02300230+0400  AUH05400540+0400  77X                                                              EY 80012Z                                                000036
3 EY  9060601F17FEB1924MAR19      7 AMS20002000+0100  TBS00300030+0400  77X                                                                                                                       000037
3 EY  9060602F18FEB1925MAR191       TBS02300230+0400  AUH05400540+0400  77X                                                              EY  981                                                  000038
3 EY  9060701F31MAR1907APR19      7 AMS20002000+0200  TBS00300030+0400  77X                                                                                                                       000039
3 EY  9060702F01APR1908APR191       TBS02300230+0400  AUH05400540+0400  77X                                                              EY  981                                                  000040
3 EY  9060801F14APR1914APR19      7 AMS20002000+0200  TBS00300030+0400  77X                                                                                                                       000041
3 EY  9060802F15APR1915APR191       TBS02300230+0400  AUH05400540+0400  77X                                                              EY 8001 Z                                                000042
3 EY  9060901F21APR1921APR19      7 AMS20002000+0200  TBS00300030+0400  77X                                                                                                                       000043
3 EY  9060902F22APR1922APR191       TBS02300230+0400  AUH05400540+0400  77X                                                              EY  981                                                  000044
3 EY  9061001F28APR1928APR19      7 AMS20002000+0200  TBS00300030+0400  77X                                                                                                                       000045
3 EY  9061002F29APR1929APR191       TBS02300230+0400  AUH05400540+0400  77X                                                              EY  9043                                                 000046
3 EY  9061101F05MAY1925AUG19      7 AMS20002000+0200  TBS00300030+0400  77X                                                                                                                       000047
3 EY  9061102F06MAY1926AUG191       TBS02300230+0400  AUH05400540+0400  77X                                                              EY  981                                                  000048
3 EY  9061201F01SEP1901SEP19      7 AMS20002000+0200  TBS00300030+0400  77X                                                                                                                       000049
3 EY  9061202F02SEP1902SEP191       TBS02300230+0400  AUH05400540+0400  77X                                                              EY 8001 Z                                                000050
3 EY  9061301F08SEP1920OCT19      7 AMS20002000+0200  TBS00300030+0400  77X                                                                                                                       000051
3 EY  9061302F09SEP1921OCT191       TBS02300230+0400  AUH05400540+0400  77X                                                              EY  981                                                  000052
3 EY  9061401F27OCT1915DEC19      7 AMS20002000+0100  TBS00300030+0400  77X                                                                                                                       000053
3 EY  9061402F28OCT1916DEC191       TBS02300230+0400  AUH05400540+0400  77X                                                              EY  981                                                  000054
3 EY  9061501F22DEC1922DEC19      7 AMS20002000+0100  AUH02350235+0400  77X                                                              EY  981                                                  000055
3 EY  9061601F05JAN2026JAN20      7 AMS20002000+0100  TBS00300030+0400  77X                                                                                                                       000056
3 EY  9061602F06JAN2027JAN201       TBS02300230+0400  AUH05400540+0400  77X                                                              EY  981                                                  000057
3 EY  9061701F02FEB2002FEB20      7 AMS20002000+0100  TBS00300030+0400  77X                                                                                                                       000058
3 EY  9070101H01DEC1822DEC18     6  AUH09450945+0400  HHN16301630+0100  77X                                                              EY  908                                                  000059
3 EY  9070201H04DEC1820DEC18 2 4    AUH11401140+0400  HHN18251825+0100  77X                                                              EY  908                                                  000060
3 EY  9080101H01DEC1815DEC18     6  HHN18301830+0100  AUH01150115+0400  77X                                                              EY 98101                                                 000061
3 EY  9080201H04DEC1818DEC18 2      HHN20252025+0100  AUH03100310+0400  77X                                                              EY 9810                                                  000062
3 EY  9080301H06DEC1820DEC18   4    HHN20252025+0100  AUH03100310+0400  77X                                                              EY  947                                                  000063
3 EY  9080401H22DEC1822DEC18     6  HHN18301830+0100  AUH01150115+0400  77X                                                                                                                       000064
3 EY  9120101F01DEC1829DEC18     6  EMA13551355+0000  BEG16451645+0100  77X                                                              EY  990                                                  000065
3 EY  9120201F04DEC1825DEC18 2      EMA20352035+0000  BEG23252325+0100  77X                                                              EY  990                                                  000066
3 EY  9120301F05JAN1905JAN19     6  EMA13001300+0000  FRA14301430+0100  77X                                                                                                                       000067
3 EY  9120302F05JAN1905JAN19     6  FRA17301730+0100  AUH24002400+0400  77X                                                              EY 8001 Z                                                000068
3 EY  9120401F12JAN1926JAN19     6  EMA13001300+0000  FRA14301430+0100  77X                                                                                                                       000069
3 EY  9120402F12JAN1926JAN19     6  FRA17301730+0100  AUH24002400+0400  77X                                                              EY  9812                                                 000070
3 EY  9120501F02FEB1930MAR19     6  EMA13001300+0000  FRA14301430+0100  77X                                                                                                                       000071
3 EY  9120502F02FEB1930MAR19     6  FRA17301730+0100  AUH24002400+0400  77X                                                              EY 8001 Z                                                000072
3 EY  9120601F06APR1928SEP19     6  EMA13001300+0100  FRA14301430+0200  77X                                                                                                                       000073
3 EY  9120602F06APR1928SEP19     6  FRA17301730+0200  AUH24002400+0400  77X                                                              EY 8001 Z                                                000074
3 EY  9120701F05OCT1905OCT19     6  EMA13001300+0100  FRA14301430+0200  77X                                                                                                                       000075
3 EY  9120702F05OCT1905OCT19     6  FRA17301730+0200  AUH24002400+0400  77X                                                              EY 9807                                                  000076
3 EY  9120801F12OCT1926OCT19     6  EMA13001300+0100  FRA14301430+0200  77X                                                                                                                       000077
3 EY  9120802F12OCT1926OCT19     6  FRA17301730+0200  AUH24002400+0400  77X                                                              EY 8001 Z                                                000078
3 EY  9120901F02NOV1909NOV19     6  EMA13001300+0000  FRA14301430+0100  77X                                                                                                                       000079
3 EY  9120902F02NOV1909NOV19     6  FRA17301730+0100  AUH24002400+0400  77X                                                              EY 8001 Z                                                000080
3 EY  9121001F23NOV1921DEC19     6  EMA13001300+0000  FRA14301430+0100  77X                                                                                                                       000081
3 EY  9121002F23NOV1921DEC19     6  FRA17301730+0100  AUH24002400+0400  77X                                                              EY 8001 Z                                                000082
3 EY  9121101F04JAN2001FEB20     6  EMA13001300+0000  FRA14301430+0100  77X                                                                                                                       000083
3 EY  9121102F04JAN2001FEB20     6  FRA17301730+0100  AUH24002400+0400  77X                                                              EY 8001 Z                                                000084
3 EY  9140101F02JAN1902JAN19  3     EMA05100510+0000  AMS06300630+0100  77X                                                                                                                       000085
3 EY  9140102F02JAN1902JAN19  3     AMS09300930+0100  AUH16051605+0400  77X                                                              EY  904                                                  000086
3 EY  9140201F03JAN1931JAN19   4    AMS16451645+0100  AUH23202320+0400  77X                                                              EY  935                                                  000087
3 EY  9140301F09JAN1927MAR19  3     EMA05100510+0000  AMS06300630+0100  77X                                                                                                                       000088
3 EY  9140302F09JAN1927MAR19  3     AMS09300930+0100  AUH16051605+0400  77X                                                              EY  987                                                  000089
3 EY  9140401F07FEB1907FEB19   4    AMS16451645+0100  AUH23202320+0400  77X                                                              EY 98072                                                 000090
3 EY  9140501F14FEB1914FEB19   4    AMS16451645+0100  AUH23202320+0400  77X                                                              EY  9361                                                 000091
3 EY  9140601F21FEB1928MAR19   4    AMS16451645+0100  AUH23202320+0400  77X                                                              EY  935                                                  000092
3 EY  9140701F03APR1903APR19  3     EMA05100510+0100  AMS06300630+0200  77X                                                                                                                       000093
3 EY  9140702F03APR1903APR19  3     AMS09300930+0200  AUH16051605+0400  77X                                                              EY  987                                                  000094
3 EY  9140801F04APR1925APR19   4    AMS16451645+0200  AUH23202320+0400  77X                                                              EY  935                                                  000095
3 EY  9140901F17APR1923OCT19  3     EMA05100510+0100  AMS06300630+0200  77X                                                                                                                       000096
3 EY  9140902F17APR1923OCT19  3     AMS09300930+0200  AUH16051605+0400  77X                                                              EY  987                                                  000097
3 EY  9141001F02MAY1902MAY19   4    AMS16451645+0200  AUH23202320+0400  77X                                                              EY  9361                                                 000098
3 EY  9141101F09MAY1903OCT19   4    AMS16451645+0200  AUH23202320+0400  77X                                                              EY  935                                                  000099
3 EY  9141201F10OCT1910OCT19   4    AMS16451645+0200  AUH23202320+0400  77X                                                              EY 8001 Z                                                000100
3 EY  9141301F17OCT1924OCT19   4    AMS16451645+0200  AUH23202320+0400  77X                                                              EY  935                                                  000101
3 EY  9141401F30OCT1918DEC19  3     EMA05100510+0000  AMS06300630+0100  77X                                                                                                                       000102
3 EY  9141402F30OCT1918DEC19  3     AMS09300930+0100  AUH16051605+0400  77X                                                              EY  987                                                  000103
3 EY  9141501F31OCT1930JAN20   4    AMS16451645+0100  AUH23202320+0400  77X                                                              EY  935                                                  000104
3 EY  9141601F25DEC1925DEC19  3     EMA05100510+0000  AMS06300630+0100  77X                                                                                                                       000105
3 EY  9141602F25DEC1925DEC19  3     AMS09300930+0100  AUH16051605+0400  77X                                                              EY 8001 Z                                                000106
3 EY  9141701F08JAN2029JAN20  3     EMA05100510+0000  AMS06300630+0100  77X                                                                                                                       000107
3 EY  9141702F08JAN2029JAN20  3     AMS09300930+0100  AUH16051605+0400  77X                                                              EY  987                                                  000108
3 EY  9180101F06DEC1827DEC18   4    AMS16451645+0100  AUH23202320+0400  77X                                                              EY  935                                                  000109
3 EY  9230101F06DEC1831JAN19   4    AUH15001500+0400  BLR19151915+0530  77X                                                              EY  980                                                  000110
3 EY  9230201F14FEB1911APR19   4    AUH15001500+0400  BLR19151915+0530  77X                                                              EY  980                                                  000111
3 EY  9230301F25APR1930JAN20   4    AUH15001500+0400  BLR19151915+0530  77X                                                              EY  980                                                  000112
3 EY  9310101F01DEC1802FEB19     6  AUH09050905+0400  PVG17001700+0800  77X                                                              EY  932                                                  000113
3 EY  9310201F05DEC1826DEC18  3     AUH10351035+0400  PVG18301830+0800  77X                                                              EY  932                                                  000114
3 EY  9310301F09JAN1906FEB19  3     AUH10351035+0400  PVG18301830+0800  77X                                                              EY  932                                                  000115
3 EY  9310401F20FEB1902OCT19  3     AUH10351035+0400  PVG18301830+0800  77X                                                              EY  932                                                  000116
3 EY  9310501F23FEB1928SEP19     6  AUH09050905+0400  PVG17001700+0800  77X                                                              EY  932                                                  000117
3 EY  9310601F12OCT1901FEB20     6  AUH09050905+0400  PVG17001700+0800  77X                                                              EY  932                                                  000118
3 EY  9310701F16OCT1929JAN20  3     AUH10351035+0400  PVG18301830+0800  77X                                                              EY  932                                                  000119
3 EY  9320101F01DEC1802FEB19     6  PVG19001900+0800  BOM02450245+0530  77X                                                                                                                       000120
3 EY  9320102F02DEC1803FEB19      7 BOM04450445+0530  AUH08050805+0400  77X                                                              EY  935                                                  000121
3 EY  9320201F05DEC1826DEC18  3     PVG20302030+0800  BOM04150415+0530  77X                                                                                                                       000122
3 EY  9320202F06DEC1827DEC18   4    BOM07150715+0530  AUH10351035+0400  77X                                                              EY  923                                                  000123
3 EY  9320301F09JAN1930JAN19  3     PVG20302030+0800  BOM04150415+0530  77X                                                                                                                       000124
3 EY  9320302F10JAN1931JAN19   4    BOM07150715+0530  AUH10351035+0400  77X                                                              EY  923                                                  000125
3 EY  9320401F06FEB1906FEB19  3     PVG20302030+0800  BOM04150415+0530  77X                                                                                                                       000126
3 EY  9320402F07FEB1907FEB19   4    BOM07150715+0530  AUH10351035+0400  77X                                                              EY  9971                                                 000127
3 EY  9320501F14FEB1914FEB19   4    AUH02050205+0400  BOM05150515+0530  77X                                                                                                                       000128
3 EY  9320502F14FEB1914FEB19   4    BOM07150715+0530  AUH10351035+0400  77X                                                              EY  923                                                  000129
3 EY  9320601F16FEB1916FEB19     6  AUH23352335+0400  BOM02450245+0530  77X                                                                                                                       000130
3 EY  9320602F17FEB1917FEB19      7 BOM04450445+0530  AUH08050805+0400  77X                                                              EY  936                                                  000131
3 EY  9320701F20FEB1910APR19  3     PVG20302030+0800  BOM04150415+0530  77X                                                                                                                       000132
3 EY  9320702F21FEB1911APR19   4    BOM07150715+0530  AUH10351035+0400  77X                                                              EY  923                                                  000133
3 EY  9320801F23FEB1913APR19     6  PVG19001900+0800  BOM02450245+0530  77X                                                                                                                       000134
3 EY  9320802F24FEB1914APR19      7 BOM04450445+0530  AUH08050805+0400  77X                                                              EY  935                                                  000135
3 EY  9320901F17APR1917APR19  3     PVG20302030+0800  BOM04150415+0530  77X                                                                                                                       000136
3 EY  9320902F18APR1918APR19   4    BOM07150715+0530  AUH10351035+0400  77X                                                              EY 8001                                                  000137
3 EY  9321001F20APR1920APR19     6  PVG19001900+0800  AUH05250525+0400  77X                                                              EY  935                                                  000138
3 EY  9321101F24APR1907AUG19  3     PVG20302030+0800  BOM04150415+0530  77X                                                                                                                       000139
3 EY  9321102F25APR1908AUG19   4    BOM07150715+0530  AUH10351035+0400  77X                                                              EY  923                                                  000140
3 EY  9321201F27APR1928SEP19     6  PVG19001900+0800  BOM02450245+0530  77X                                                                                                                       000141
3 EY  9321202F28APR1929SEP19      7 BOM04450445+0530  AUH08050805+0400  77X                                                              EY  935                                                  000142
3 EY  9321301F14AUG1914AUG19  3     PVG20302030+0800  AUH06550655+0400  77X                                                              EY  923                                                  000143
3 EY  9321401F21AUG1902OCT19  3     PVG20302030+0800  BOM04150415+0530  77X                                                                                                                       000144
3 EY  9321402F22AUG1903OCT19   4    BOM07150715+0530  AUH10351035+0400  77X                                                              EY  923                                                  000145
3 EY  9321501F05OCT1905OCT19     6  AUH23352335+0400  BOM02450245+0530  77X                                                                                                                       000146
3 EY  9321502F06OCT1906OCT19      7 BOM04450445+0530  AUH08050805+0400  77X                                                              EY  936                                                  000147
3 EY  9321601F10OCT1910OCT19   4    AUH01050105+0400  BOM04150415+0530  77X                                                                                                                       000148
3 EY  9321602F10OCT1910OCT19   4    BOM07150715+0530  AUH10351035+0400  77X                                                              EY  923                                                  000149
3 EY  9321701F12OCT1901FEB20     6  PVG19001900+0800  BOM02450245+0530  77X                                                                                                                       000150
3 EY  9321702F13OCT1902FEB20      7 BOM04450445+0530  AUH08050805+0400  77X                                                              EY  935                                                  000151
3 EY  9321801F16OCT1923OCT19  3     PVG20302030+0800  BOM04150415+0530  77X                                                                                                                       000152
3 EY  9321802F17OCT1924OCT19   4    BOM07150715+0530  AUH10351035+0400  77X                                                              EY  923                                                  000153
3 EY  9321901F30OCT1930OCT19  3     PVG20302030+0800  AUH06550655+0400  77X                                                              EY  923                                                  000154
3 EY  9322001F06NOV1918DEC19  3     PVG20302030+0800  BOM04150415+0530  77X                                                                                                                       000155
3 EY  9322002F07NOV1919DEC19   4    BOM07150715+0530  AUH10351035+0400  77X                                                              EY  923                                                  000156
3 EY  9322101F25DEC1925DEC19  3     PVG20302030+0800  AUH06550655+0400  77X                                                              EY  923                                                  000157
3 EY  9322201F01JAN2029JAN20  3     PVG20302030+0800  BOM04150415+0530  77X                                                                                                                       000158
3 EY  9322202F02JAN2030JAN20   4    BOM07150715+0530  AUH10351035+0400  77X                                                              EY  923                                                  000159
3 EY  9350101F02DEC1803FEB19      7 AUH11051105+0400  PVG19001900+0800  77X                                                              EY  936                                                  000160
3 EY  9350201F04DEC1828DEC18 2  5   AUH09050905+0400  PVG17001700+0800  77X                                                              EY  936                                                  000161
3 EY  9350301F04JAN1905FEB19 2  5   AUH09050905+0400  PVG17001700+0800  77X                                                              EY  936                                                  000162
3 EY  9350401F19FEB1930APR19 2  5   AUH09050905+0400  PVG17001700+0800  77X                                                              EY  936                                                  000163
3 EY  9350501F24FEB1929SEP19      7 AUH11051105+0400  PVG19001900+0800  77X                                                              EY  936                                                  000164
3 EY  9350601F07MAY1904OCT19 2  5   AUH09050905+0400  PVG17001700+0800  77X                                                              EY  936                                                  000165
3 EY  9350701F13OCT1902FEB20      7 AUH11051105+0400  PVG19001900+0800  77X                                                              EY  936                                                  000166
3 EY  9350801F15OCT1931JAN20 2  5   AUH09050905+0400  PVG17001700+0800  77X                                                              EY  936                                                  000167
3 EY  9360101F01DEC1801DEC18     6  MAA05200520+0530  AUH09400940+0400  77X                                                              EY  937                                                  000168
3 EY  9360201F02DEC1830DEC18      7 PVG21002100+0800  MAA04200420+0530  77X                                                                                                                       000169
3 EY  9360202F03DEC1831DEC181       MAA06200620+0530  AUH10401040+0400  77X                                                              EY  997                                                  000170
3 EY  9360301F04DEC1825DEC18 2      PVG19001900+0800  MAA02200220+0530  77X                                                                                                                       000171
3 EY  9360302F05DEC1826DEC18  3     MAA04200420+0530  AUH08400840+0400  77X                                                              EY  937                                                  000172
3 EY  9360401F07DEC1801FEB19    5   PVG20002000+0800  MAA03200320+0530  77X                                                                                                                       000173
3 EY  9360402F08DEC1802FEB19     6  MAA05200520+0530  AUH09400940+0400  77X                                                              EY  937                                                  000174
3 EY  9360501F06JAN1906JAN19      7 PVG21002100+0800  MAA04200420+0530  77X                                                                                                                       000175
3 EY  9360502F07JAN1907JAN191       MAA06200620+0530  AUH10401040+0400  77X                                                              EY  935                                                  000176
3 EY  9360601F08JAN1929JAN19 2      PVG19001900+0800  MAA02200220+0530  77X                                                                                                                       000177
3 EY  9360602F09JAN1930JAN19  3     MAA04200420+0530  AUH08400840+0400  77X                                                              EY  937                                                  000178
3 EY  9360701F13JAN1903FEB19      7 PVG21002100+0800  MAA04200420+0530  77X                                                                                                                       000179
3 EY  9360702F14JAN1904FEB191       MAA06200620+0530  AUH10401040+0400  77X                                                              EY  997                                                  000180
3 EY  9360801F05FEB1905FEB19 2      PVG19001900+0800  MAA02200220+0530  77X                                                                                                                       000181
3 EY  9360802F06FEB1906FEB19  3     MAA04200420+0530  AUH08400840+0400  77X                                                              EY 9807                                                  000182
3 EY  9360901F15FEB1915FEB19    5   AUH23202320+0400  MAA03200320+0530  77X                                                                                                                       000183
3 EY  9360902F16FEB1916FEB19     6  MAA05200520+0530  AUH09400940+0400  77X                                                              EY  937                                                  000184
3 EY  9361001F18FEB1918FEB191       AUH00200020+0400  MAA04200420+0530  77X                                                                                                                       000185
3 EY  9361002F18FEB1918FEB191       MAA06200620+0530  AUH10401040+0400  77X                                                              EY  997                                                  000186
3 EY  9361101F19FEB1912MAR19 2      PVG19001900+0800  MAA02200220+0530  77X                                                                                                                       000187
3 EY  9361102F20FEB1913MAR19  3     MAA04200420+0530  AUH08400840+0400  77X                                                              EY  937                                                  000188
3 EY  9361201F22FEB1908MAR19    5   PVG20002000+0800  MAA03200320+0530  77X                                                                                                                       000189
3 EY  9361202F23FEB1909MAR19     6  MAA05200520+0530  AUH09400940+0400  77X                                                              EY  937                                                  000190
3 EY  9361301F24FEB1929SEP19      7 PVG21002100+0800  MAA04200420+0530  77X                                                                                                                       000191
3 EY  9361302F25FEB1930SEP191       MAA06200620+0530  AUH10401040+0400  77X                                                              EY  997                                                  000192
3 EY  9361401F15MAR1915MAR19    5   PVG20002000+0800  MAA03200320+0530  77X                                                                                                                       000193
3 EY  9361402F16MAR1916MAR19     6  MAA05200520+0530  AUH09400940+0400  77X                                                              EY 9807                                                  000194
3 EY  9361501F19MAR1919MAR19 2      PVG19001900+0800  MAA02200220+0530  77X                                                                                                                       000195
3 EY  9361502F20MAR1920MAR19  3     MAA04200420+0530  AUH08400840+0400  77X                                                              EY 9807                                                  000196
3 EY  9361601F22MAR1912APR19    5   PVG20002000+0800  MAA03200320+0530  77X                                                                                                                       000197
3 EY  9361602F23MAR1913APR19     6  MAA05200520+0530  AUH09400940+0400  77X                                                              EY  937                                                  000198
3 EY  9361701F26MAR1923APR19 2      PVG19001900+0800  MAA02200220+0530  77X                                                                                                                       000199
3 EY  9361702F27MAR1924APR19  3     MAA04200420+0530  AUH08400840+0400  77X                                                              EY  937                                                  000200
3 EY  9361801F19APR1919APR19    5   PVG20002000+0800  MAA03200320+0530  77X                                                                                                                       000201
3 EY  9361802F20APR1920APR19     6  MAA05200520+0530  AUH09400940+0400  77X                                                              EY 9807                                                  000202
3 EY  9361901F26APR1926APR19    5   PVG20002000+0800  MAA03200320+0530  77X                                                                                                                       000203
3 EY  9361902F27APR1927APR19     6  MAA05200520+0530  AUH09400940+0400  77X                                                              EY  937                                                  000204
3 EY  9362001F30APR1930APR19 2      PVG19001900+0800  MAA02200220+0530  77X                                                                                                                       000205
3 EY  9362002F01MAY1901MAY19  3     MAA04200420+0530  AUH08400840+0400  77X                                                              EY 9807                                                  000206
3 EY  9362101F03MAY1903MAY19    5   AUH23202320+0400  MAA03200320+0530  77X                                                                                                                       000207
3 EY  9362102F04MAY1904MAY19     6  MAA05200520+0530  AUH09400940+0400  77X                                                              EY  937                                                  000208
3 EY  9362201F07MAY1921MAY19 2      PVG19001900+0800  MAA02200220+0530  77X                                                                                                                       000209
3 EY  9362202F08MAY1922MAY19  3     MAA04200420+0530  AUH08400840+0400  77X                                                              EY  937                                                  000210
3 EY  9362301F10MAY1924MAY19    5   PVG20002000+0800  MAA03200320+0530  77X                                                                                                                       000211
3 EY  9362302F11MAY1925MAY19     6  MAA05200520+0530  AUH09400940+0400  77X                                                              EY  937                                                  000212
3 EY  9362401F28MAY1904JUN19 2      PVG19001900+0800  MAA02200220+0530  77X                                                                                                                       000213
3 EY  9362402F29MAY1905JUN19  3     MAA04200420+0530  AUH08400840+0400  77X                                                              EY 9807                                                  000214
3 EY  9362501F31MAY1931MAY19    5   PVG20002000+0800  MAA03200320+0530  77X                                                                                                                       000215
3 EY  9362502F01JUN1901JUN19     6  MAA05200520+0530  AUH09400940+0400  77X                                                              EY 9807                                                  000216
3 EY  9362601F07JUN1902AUG19    5   PVG20002000+0800  MAA03200320+0530  77X                                                                                                                       000217
3 EY  9362602F08JUN1903AUG19     6  MAA05200520+0530  AUH09400940+0400  77X                                                              EY  937                                                  000218
3 EY  9362701F11JUN1930JUL19 2      PVG19001900+0800  MAA02200220+0530  77X                                                                                                                       000219
3 EY  9362702F12JUN1931JUL19  3     MAA04200420+0530  AUH08400840+0400  77X                                                              EY  937                                                  000220
3 EY  9362801F06AUG1913AUG19 2      PVG19001900+0800  MAA02200220+0530  77X                                                                                                                       000221
3 EY  9362802F07AUG1914AUG19  3     MAA04200420+0530  AUH08400840+0400  77X                                                              EY 9807                                                  000222
3 EY  9362901F09AUG1909AUG19    5   PVG20002000+0800  MAA03200320+0530  77X                                                                                                                       000223
3 EY  9362902F10AUG1910AUG19     6  MAA05200520+0530  AUH09400940+0400  77X                                                              EY 9807                                                  000224
3 EY  9363001F16AUG1916AUG19    5   PVG20002000+0800  MAA03200320+0530  77X                                                                                                                       000225
3 EY  9363002F17AUG1917AUG19     6  MAA05200520+0530  AUH09400940+0400  77X                                                              EY  9431                                                 000226
3 EY  9363101F20AUG1924SEP19 2      PVG19001900+0800  MAA02200220+0530  77X                                                                                                                       000227
3 EY  9363102F21AUG1925SEP19  3     MAA04200420+0530  AUH08400840+0400  77X                                                              EY  937                                                  000228
3 EY  9363201F23AUG1927SEP19    5   PVG20002000+0800  MAA03200320+0530  77X                                                                                                                       000229
3 EY  9363202F24AUG1928SEP19     6  MAA05200520+0530  AUH09400940+0400  77X                                                              EY  937                                                  000230
3 EY  9363301F01OCT1901OCT19 2      PVG19001900+0800  MAA02200220+0530  77X                                                                                                                       000231
3 EY  9363302F02OCT1902OCT19  3     MAA04200420+0530  AUH08400840+0400  77X                                                              EY 9807                                                  000232
3 EY  9363401F04OCT1904OCT19    5   PVG20002000+0800  MAA03200320+0530  77X                                                                                                                       000233
3 EY  9363402F05OCT1905OCT19     6  MAA05200520+0530  AUH09400940+0400  77X                                                              EY  932                                                  000234
3 EY  9363501F07OCT1907OCT191       AUH00200020+0400  MAA04200420+0530  77X                                                                                                                       000235
3 EY  9363502F07OCT1907OCT191       MAA06200620+0530  AUH10401040+0400  77X                                                              EY  997                                                  000236
3 EY  9363601F08OCT1908OCT19 2      AUH22202220+0400  MAA02200220+0530  77X                                                                                                                       000237
3 EY  9363602F09OCT1909OCT19  3     MAA04200420+0530  AUH08400840+0400  77X                                                              EY 9807                                                  000238
3 EY  9363701F11OCT1911OCT19    5   AUH23202320+0400  MAA03200320+0530  77X                                                                                                                       000239
3 EY  9363702F12OCT1912OCT19     6  MAA05200520+0530  AUH09400940+0400  77X                                                              EY  937                                                  000240
3 EY  9363801F13OCT1924NOV19      7 PVG21002100+0800  MAA04200420+0530  77X                                                                                                                       000241
3 EY  9363802F14OCT1925NOV191       MAA06200620+0530  AUH10401040+0400  77X                                                              EY  997                                                  000242
3 EY  9363901F15OCT1917DEC19 2      PVG19001900+0800  MAA02200220+0530  77X                                                                                                                       000243
3 EY  9363902F16OCT1918DEC19  3     MAA04200420+0530  AUH08400840+0400  77X                                                              EY  937                                                  000244
3 EY  9364001F18OCT1913DEC19    5   PVG20002000+0800  MAA03200320+0530  77X                                                                                                                       000245
3 EY  9364002F19OCT1914DEC19     6  MAA05200520+0530  AUH09400940+0400  77X                                                              EY  937                                                  000246
3 EY  9364101F01DEC1901DEC19      7 PVG21002100+0800  MAA04200420+0530  77X                                                                                                                       000247
3 EY  9364102F02DEC1902DEC191       MAA06200620+0530  AUH10401040+0400  77X                                                              EY  935                                                  000248
3 EY  9364201F08DEC1926JAN20      7 PVG21002100+0800  MAA04200420+0530  77X                                                                                                                       000249
3 EY  9364202F09DEC1927JAN201       MAA06200620+0530  AUH10401040+0400  77X                                                              EY  997                                                  000250
3 EY  9364301F20DEC1920DEC19    5   PVG20002000+0800  MAA03200320+0530  77X                                                                                                                       000251
3 EY  9364302F21DEC1921DEC19     6  MAA05200520+0530  AUH09400940+0400  77X                                                              EY 9807                                                  000252
3 EY  9364401F24DEC1924DEC19 2      PVG19001900+0800  MAA02200220+0530  77X                                                                                                                       000253
3 EY  9364402F25DEC1925DEC19  3     MAA04200420+0530  AUH08400840+0400  77X                                                              EY 9807                                                  000254
3 EY  9364501F27DEC1927DEC19    5   PVG20002000+0800  AUH06250625+0400  77X                                                              EY 9807                                                  000255
3 EY  9364601F31DEC1928JAN20 2      PVG19001900+0800  MAA02200220+0530  77X                                                                                                                       000256
3 EY  9364602F01JAN2029JAN20  3     MAA04200420+0530  AUH08400840+0400  77X                                                              EY  937                                                  000257
3 EY  9364701F03JAN2031JAN20    5   PVG20002000+0800  MAA03200320+0530  77X                                                                                                                       000258
3 EY  9364702F04JAN2001FEB20     6  MAA05200520+0530  AUH09400940+0400  77X                                                              EY  937                                                  000259
3 EY  9364801F02FEB2002FEB20      7 PVG21002100+0800  MAA04200420+0530  77X                                                                                                                       000260
3 EY  9370101F01DEC1802FEB19     6  AUH16101610+0400  HKG23502350+0800  77X                                                              EY 9807                                                  000261
3 EY  9370201F05DEC1826DEC18  3     AUH14101410+0400  HKG21502150+0800  77X                                                              EY 9807                                                  000262
3 EY  9370301F09JAN1930JAN19  3     AUH14101410+0400  HKG21502150+0800  77X                                                              EY 9807                                                  000263
3 EY  9370401F16FEB1909MAR19     6  AUH16101610+0400  HKG23502350+0800  77X                                                              EY 9807                                                  000264
3 EY  9370501F20FEB1913MAR19  3     AUH14101410+0400  HKG21502150+0800  77X                                                              EY 9807                                                  000265
3 EY  9370601F23MAR1913APR19     6  AUH16101610+0400  HKG23502350+0800  77X                                                              EY 9807                                                  000266
3 EY  9370701F27MAR1924APR19  3     AUH14101410+0400  HKG21502150+0800  77X                                                              EY 9807                                                  000267
3 EY  9370801F27APR1925MAY19     6  AUH16101610+0400  HKG23502350+0800  77X                                                              EY 9807                                                  000268
3 EY  9370901F08MAY1922MAY19  3     AUH14101410+0400  HKG21502150+0800  77X                                                              EY 9807                                                  000269
3 EY  9371001F08JUN1915JUN19     6  AUH16101610+0400  HKG23502350+0800  77X                                                              EY 9807 Z                                                000270
3 EY  9371101F12JUN1912JUN19  3     AUH14101410+0400  HKG21502150+0800  77X                                                              EY 9807 Z                                                000271
3 EY  9371201F19JUN1931JUL19  3     AUH14101410+0400  HKG21502150+0800  77X                                                              EY 9807                                                  000272
3 EY  9371301F22JUN1903AUG19     6  AUH16101610+0400  HKG23502350+0800  77X                                                              EY 9807                                                  000273
3 EY  9371401F21AUG1921AUG19  3     AUH14101410+0400  HKG21502150+0800  77X                                                              EY 9807 Z                                                000274
3 EY  9371501F24AUG1924AUG19     6  AUH16101610+0400  HKG23502350+0800  77X                                                              EY 9807 Z                                                000275
3 EY  9371601F28AUG1925SEP19  3     AUH14101410+0400  HKG21502150+0800  77X                                                              EY 9807                                                  000276
3 EY  9371701F31AUG1928SEP19     6  AUH16101610+0400  HKG23502350+0800  77X                                                              EY 9807                                                  000277
3 EY  9371801F12OCT1914DEC19     6  AUH16101610+0400  HKG23502350+0800  77X                                                              EY 9807                                                  000278
3 EY  9371901F16OCT1918DEC19  3     AUH14101410+0400  HKG21502150+0800  77X                                                              EY 9807                                                  000279
3 EY  9372001F01JAN2029JAN20  3     AUH14101410+0400  HKG21502150+0800  77X                                                              EY 9807                                                  000280
3 EY  9372101F04JAN2001FEB20     6  AUH16101610+0400  HKG23502350+0800  77X                                                              EY 9807                                                  000281
3 EY  9380101H07DEC1821DEC18    5   HKG22002200+0800  AUH06450645+0400  77X                                                              EY  907                                                  000282
3 EY  9430101F03DEC1801APR191       AUH03150315+0400  CMB07350735+0530  77X                                                              EY  983                                                  000283
3 EY  9430201F06DEC1807NOV19   4    AUH17251725+0400  CMB21452145+0530  77X                                                              EY  983                                                  000284
3 EY  9430301F15APR1923DEC191       AUH03150315+0400  CMB07350735+0530  77X                                                              EY  983                                                  000285
3 EY  9430401F21NOV1919DEC19   4    AUH17251725+0400  CMB21452145+0530  77X                                                              EY  983                                                  000286
3 EY  9430501F02JAN2030JAN20   4    AUH17251725+0400  CMB21452145+0530  77X                                                              EY  983                                                  000287
3 EY  9430601F06JAN2027JAN201       AUH03150315+0400  CMB07350735+0530  77X                                                              EY  983                                                  000288
3 EY  9470101H07DEC1821DEC18    5   AUH12201220+0400  HKG20002000+0800  77X                                                              EY  938                                                  000289
3 EY  9720101F04DEC1825DEC18 2      HAN18301830+0700  AUH02100210+0400  77X                                                              EY  931                                                  000290
3 EY  9720201F08JAN1929JAN19 2      HAN18301830+0700  AUH02100210+0400  77X                                                              EY  931                                                  000291
3 EY  9720301F19FEB1909APR19 2      HAN18301830+0700  AUH02100210+0400  77X                                                              EY  931                                                  000292
3 EY  9720401F23APR1923APR19 2      HAN18301830+0700  AUH02100210+0400  77X                                                              EY  931                                                  000293
3 EY  9720501F07MAY1927AUG19 2      HAN18301830+0700  AUH02100210+0400  77X                                                              EY  931                                                  000294
3 EY  9720601F10SEP1901OCT19 2      HAN18301830+0700  AUH02100210+0400  77X                                                              EY  931                                                  000295
3 EY  9720701F08OCT1908OCT19 2      HAN18301830+0700  AUH02100210+0400  77X                                                              EY 8001 Z                                                000296
3 EY  9720801F15OCT1928JAN20 2      HAN18301830+0700  AUH02100210+0400  77X                                                              EY  931                                                  000297
3 EY  9730101F07DEC1801FEB19    5   HAN04050405+0700  DEL08150815+0530  77X                                                              EY  974                                                  000298
3 EY  9730201F15FEB1912APR19    5   HAN04050405+0700  DEL08150815+0530  77X                                                              EY  974                                                  000299
3 EY  9730301F26APR1909AUG19    5   HAN04050405+0700  DEL08150815+0530  77X                                                              EY  974                                                  000300
3 EY  9730401F16AUG1916AUG19    5   HAN04050405+0700  AUH11451145+0400  77X                                                              EY  997                                                  000301
3 EY  9730501F23AUG1920DEC19    5   HAN04050405+0700  DEL08150815+0530  77X                                                              EY  974                                                  000302
3 EY  9730601F27DEC1927DEC19    5   HAN04050405+0700  AUH11451145+0400  77X                                                              EY  931                                                  000303
3 EY  9730701F03JAN2031JAN20    5   HAN04050405+0700  DEL08150815+0530  77X                                                              EY  974                                                  000304
3 EY  9740101F07DEC1828DEC18    5   DEL10151015+0530  AUH13401340+0400  77X                                                              EY  987                                                  000305
3 EY  9740201F04JAN1904JAN19    5   DEL10151015+0530  AUH13401340+0400  77X                                                              EY  931                                                  000306
3 EY  9740301F11JAN1901FEB19    5   DEL10151015+0530  AUH13401340+0400  77X                                                              EY  997                                                  000307
3 EY  9740401F15FEB1912APR19    5   DEL10151015+0530  AUH13401340+0400  77X                                                              EY  997                                                  000308
3 EY  9740501F26APR1909AUG19    5   DEL10151015+0530  AUH13401340+0400  77X                                                              EY  997                                                  000309
3 EY  9740601F23AUG1920DEC19    5   DEL10151015+0530  AUH13401340+0400  77X                                                              EY  997                                                  000310
3 EY  9740701F03JAN2031JAN20    5   DEL10151015+0530  AUH13401340+0400  77X                                                              EY  997                                                  000311
3 EY  9800101F06DEC1831JAN19   4    BLR21152115+0530  HAN02050205+0700  77X                                                              EY  973                                                  000312
3 EY  9800201F14FEB1911APR19   4    BLR21152115+0530  HAN02050205+0700  77X                                                              EY  973                                                  000313
3 EY  9800301F25APR1930JAN20   4    BLR21152115+0530  HAN02050205+0700  77X                                                              EY  973                                                  000314
3 EY  9810101F03DEC1824DEC181       AUH08500850+0400  CGP13301330+0600  77X                                                                                                                       000315
3 EY  9810102F03DEC1824DEC181       CGP15001500+0600  HAN17151715+0700  77X                                                              EY  991                                                  000316
3 EY  9810201F04DEC1825DEC18 2      AUH08050805+0400  CGP12451245+0600  77X                                                                                                                       000317
3 EY  9810202F04DEC1825DEC18 2      CGP14151415+0600  HAN16301630+0700  77X                                                              EY  972                                                  000318
3 EY  9810301F07JAN1928JAN191       AUH08500850+0400  CGP13301330+0600  77X                                                                                                                       000319
3 EY  9810302F07JAN1928JAN191       CGP15001500+0600  HAN17151715+0700  77X                                                              EY  991                                                  000320
3 EY  9810401F08JAN1929JAN19 2      AUH08050805+0400  CGP12451245+0600  77X                                                                                                                       000321
3 EY  9810402F08JAN1929JAN19 2      CGP14151415+0600  HAN16301630+0700  77X                                                              EY  972                                                  000322
3 EY  9810501F18FEB1908APR191       AUH08500850+0400  CGP13301330+0600  77X                                                                                                                       000323
3 EY  9810502F18FEB1908APR191       CGP15001500+0600  HAN17151715+0700  77X                                                              EY  991                                                  000324
3 EY  9810601F19FEB1909APR19 2      AUH08050805+0400  CGP12451245+0600  77X                                                                                                                       000325
3 EY  9810602F19FEB1909APR19 2      CGP14151415+0600  HAN16301630+0700  77X                                                              EY  972                                                  000326
3 EY  9810701F22APR1922APR191       AUH08500850+0400  CGP13301330+0600  77X                                                                                                                       000327
3 EY  9810702F22APR1922APR191       CGP15001500+0600  HAN17151715+0700  77X                                                              EY  991                                                  000328
3 EY  9810801F23APR1923APR19 2      AUH08050805+0400  CGP12451245+0600  77X                                                                                                                       000329
3 EY  9810802F23APR1923APR19 2      CGP14151415+0600  HAN16301630+0700  77X                                                              EY  972                                                  000330
3 EY  9810901F06MAY1927MAY191       AUH08500850+0400  CGP13301330+0600  77X                                                                                                                       000331
3 EY  9810902F06MAY1927MAY191       CGP15001500+0600  HAN17151715+0700  77X                                                              EY  991                                                  000332
3 EY  9811001F07MAY1928MAY19 2      AUH08050805+0400  CGP12451245+0600  77X                                                                                                                       000333
3 EY  9811002F07MAY1928MAY19 2      CGP14151415+0600  HAN16301630+0700  77X                                                              EY  972                                                  000334
3 EY  9811101F03JUN1903JUN191       AUH11501150+0400  HAN18201820+0700  77X                                                              EY  991                                                  000335
3 EY  9811201F04JUN1904JUN19 2      AUH10001000+0400  HAN16301630+0700  77X                                                              EY  972                                                  000336
3 EY  9811301F10JUN1905AUG191       AUH08500850+0400  CGP13301330+0600  77X                                                                                                                       000337
3 EY  9811302F10JUN1905AUG191       CGP15001500+0600  HAN17151715+0700  77X                                                              EY  991                                                  000338
3 EY  9811401F11JUN1927AUG19 2      AUH08050805+0400  CGP12451245+0600  77X                                                                                                                       000339
3 EY  9811402F11JUN1927AUG19 2      CGP14151415+0600  HAN16301630+0700  77X                                                              EY  972                                                  000340
3 EY  9811501F12AUG1912AUG191       AUH11501150+0400  HAN18201820+0700  77X                                                              EY  991                                                  000341
3 EY  9811601F19AUG1926AUG191       AUH08500850+0400  CGP13301330+0600  77X                                                                                                                       000342
3 EY  9811602F19AUG1926AUG191       CGP15001500+0600  HAN17151715+0700  77X                                                              EY  991                                                  000343
3 EY  9811701F09SEP1927JAN201       AUH08500850+0400  CGP13301330+0600  77X                                                                                                                       000344
3 EY  9811702F09SEP1927JAN201       CGP15001500+0600  HAN17151715+0700  77X                                                              EY  991                                                  000345
3 EY  9811801F10SEP1928JAN20 2      AUH08050805+0400  CGP12451245+0600  77X                                                                                                                       000346
3 EY  9811802F10SEP1928JAN20 2      CGP14151415+0600  HAN16301630+0700  77X                                                              EY  972                                                  000347
3 EY  9830101F03DEC1804MAR191       CMB09350935+0530  MXP20002000+0100  77X                                                                                                                       000348
3 EY  9830102F03DEC1804MAR191       MXP22452245+0100  LCK08350835-0500  77X                                                              EY  984                                                  000349
3 EY  9830201F07DEC1828DEC18    5   CMB01300130+0530  MXP11551155+0100  77X                                                                                                                       000350
3 EY  9830202F07DEC1828DEC18    5   MXP14551455+0100  LCK00450045-0500  77X                                                              EY  984                                                  000351
3 EY  9830301F04JAN1908MAR19    5   CMB00450045+0530  MXP11101110+0100  77X                                                                                                                       000352
3 EY  9830302F04JAN1908MAR19    5   MXP14101410+0100  LCK24002400-0500  77X                                                              EY  984                                                  000353
3 EY  9830401F11MAR1925MAR191       CMB09350935+0530  MXP20002000+0100  77X                                                                                                                       000354
3 EY  9830402F11MAR1925MAR191       MXP22452245+0100  LCK08350835-0400  77X                                                              EY  984                                                  000355
3 EY  9830501F15MAR1929MAR19    5   CMB00450045+0530  MXP11101110+0100  77X                                                                                                                       000356
3 EY  9830502F15MAR1929MAR19    5   MXP14101410+0100  LCK24002400-0400  77X                                                              EY  984                                                  000357
3 EY  9830601F01APR1901APR191       CMB09350935+0530  MXP20002000+0200  77X                                                                                                                       000358
3 EY  9830602F01APR1901APR191       MXP22452245+0200  LCK08350835-0400  77X                                                              EY  984                                                  000359
3 EY  9830701F05APR1925OCT19    5   CMB00450045+0530  MXP11101110+0200  77X                                                                                                                       000360
3 EY  9830702F05APR1925OCT19    5   MXP14101410+0200  LCK24002400-0400  77X                                                              EY  984                                                  000361
3 EY  9830801F15APR1921OCT191       CMB09350935+0530  MXP20002000+0200  77X                                                                                                                       000362
3 EY  9830802F15APR1921OCT191       MXP22452245+0200  LCK08350835-0400  77X                                                              EY  984                                                  000363
3 EY  9830901F28OCT1928OCT191       CMB09350935+0530  MXP20002000+0100  77X                                                                                                                       000364
3 EY  9830902F28OCT1928OCT191       MXP22452245+0100  LCK08350835-0400  77X                                                              EY  984                                                  000365
3 EY  9831001F01NOV1901NOV19    5   CMB00450045+0530  MXP11101110+0100  77X                                                                                                                       000366
3 EY  9831002F01NOV1901NOV19    5   MXP14101410+0100  LCK24002400-0400  77X                                                              EY  984                                                  000367
3 EY  9831101F04NOV1923DEC191       CMB09350935+0530  MXP20002000+0100  77X                                                                                                                       000368
3 EY  9831102F04NOV1923DEC191       MXP22452245+0100  LCK08350835-0500  77X                                                              EY  984                                                  000369
3 EY  9831201F08NOV1908NOV19    5   CMB00450045+0530  MXP11101110+0100  77X                                                                                                                       000370
3 EY  9831202F08NOV1908NOV19    5   MXP14101410+0100  LCK24002400-0500  77X                                                              EY  984                                                  000371
3 EY  9831301F22NOV1920DEC19    5   CMB00450045+0530  MXP11101110+0100  77X                                                                                                                       000372
3 EY  9831302F22NOV1920DEC19    5   MXP14101410+0100  LCK24002400-0500  77X                                                              EY  984                                                  000373
3 EY  9831401F03JAN2031JAN20    5   CMB00450045+0530  MXP11101110+0100  77X                                                                                                                       000374
3 EY  9831402F03JAN2031JAN20    5   MXP14101410+0100  LCK24002400-0500  77X                                                              EY  984                                                  000375
3 EY  9831501F06JAN2027JAN201       CMB09350935+0530  MXP20002000+0100  77X                                                                                                                       000376
3 EY  9831502F06JAN2027JAN201       MXP22452245+0100  LCK08350835-0500  77X                                                              EY  984                                                  000377
3 EY  9840101F01DEC1829DEC18     6  LCK03450345-0500  EMA10451045+0000  77X                                                              EY  912                                                  000378
3 EY  9840201F04DEC1825DEC18 2      LCK11351135-0500  EMA18351835+0000  77X                                                              EY  912                                                  000379
3 EY  9840301F01JAN1905MAR19 2      LCK11351135-0500  EMA18351835+0000  77X                                                              EY  914                                                  000380
3 EY  9840401F05JAN1909MAR19     6  LCK03000300-0500  EMA10001000+0000  77X                                                              EY  912                                                  000381
3 EY  9840501F12MAR1926MAR19 2      LCK11351135-0400  EMA18351835+0000  77X                                                              EY  914                                                  000382
3 EY  9840601F16MAR1930MAR19     6  LCK03000300-0400  EMA10001000+0000  77X                                                              EY  912                                                  000383
3 EY  9840701F02APR1902APR19 2      LCK11351135-0400  EMA18351835+0100  77X                                                              EY  914                                                  000384
3 EY  9840801F06APR1926OCT19     6  LCK03000300-0400  EMA10001000+0100  77X                                                              EY  912                                                  000385
3 EY  9840901F16APR1922OCT19 2      LCK11351135-0400  EMA18351835+0100  77X                                                              EY  914                                                  000386
3 EY  9841001F29OCT1929OCT19 2      LCK11351135-0400  EMA18351835+0000  77X                                                              EY  914                                                  000387
3 EY  9841101F02NOV1902NOV19     6  LCK03000300-0400  EMA10001000+0000  77X                                                              EY  912                                                  000388
3 EY  9841201F05NOV1924DEC19 2      LCK11351135-0500  EMA18351835+0000  77X                                                              EY  914                                                  000389
3 EY  9841301F09NOV1909NOV19     6  LCK03000300-0500  EMA10001000+0000  77X                                                              EY  912                                                  000390
3 EY  9841401F23NOV1921DEC19     6  LCK03000300-0500  EMA10001000+0000  77X                                                              EY  912                                                  000391
3 EY  9841501F04JAN2001FEB20     6  LCK03000300-0500  EMA10001000+0000  77X                                                              EY  912                                                  000392
3 EY  9841601F07JAN2028JAN20 2      LCK11351135-0500  EMA18351835+0000  77X                                                              EY  914                                                  000393
3 EY  9860101F01DEC1829DEC18     6  MIA22002200-0500  AMS06450645+0100  77X                                                              EY  906                                                  000394
3 EY  9860201F06DEC1827DEC18   4    MIA22002200-0500  AMS06450645+0100  77X                                                                                                                       000395
3 EY  9860202F07DEC1828DEC18    5   AMS09450945+0100  AUH16201620+0400  77X                                                              EY  931                                                  000396
3 EY  9860301F10JAN1907MAR19   4    MIA22002200-0500  AMS06450645+0100  77X                                                                                                                       000397
3 EY  9860302F11JAN1908MAR19    5   AMS09450945+0100  AUH16201620+0400  77X                                                              EY  987                                                  000398
3 EY  9860401F12JAN1909MAR19     6  MIA22002200-0500  AMS06450645+0100  77X                                                              EY  906                                                  000399
3 EY  9860501F14MAR1928MAR19   4    MIA22002200-0400  AMS06450645+0100  77X                                                                                                                       000400
3 EY  9860502F15MAR1929MAR19    5   AMS09450945+0100  AUH16201620+0400  77X                                                              EY  987                                                  000401
3 EY  9860601F16MAR1923MAR19     6  MIA22002200-0400  AMS06450645+0100  77X                                                              EY  906                                                  000402
3 EY  9860701F30MAR1919OCT19     6  MIA22002200-0400  AMS06450645+0200  77X                                                              EY  906                                                  000403
3 EY  9860801F04APR1924OCT19   4    MIA22002200-0400  AMS06450645+0200  77X                                                                                                                       000404
3 EY  9860802F05APR1925OCT19    5   AMS09450945+0200  AUH16201620+0400  77X                                                              EY  987                                                  000405
3 EY  9860901F26OCT1902NOV19     6  MIA22002200-0400  AMS06450645+0100  77X                                                              EY  906                                                  000406
3 EY  9861001F31OCT1931OCT19   4    MIA22002200-0400  AMS06450645+0100  77X                                                                                                                       000407
3 EY  9861002F01NOV1901NOV19    5   AMS09450945+0100  AUH16201620+0400  77X                                                              EY  987                                                  000408
3 EY  9861101F07NOV1919DEC19   4    MIA22002200-0500  AMS06450645+0100  77X                                                                                                                       000409
3 EY  9861102F08NOV1920DEC19    5   AMS09450945+0100  AUH16201620+0400  77X                                                              EY  987                                                  000410
3 EY  9861201F09NOV1921DEC19     6  MIA22002200-0500  AMS06450645+0100  77X                                                              EY  906                                                  000411
3 EY  9861301F02JAN2030JAN20   4    MIA22002200-0500  AMS06450645+0100  77X                                                                                                                       000412
3 EY  9861302F03JAN2031JAN20    5   AMS09450945+0100  AUH16201620+0400  77X                                                              EY  987                                                  000413
3 EY  9861401F04JAN2001FEB20     6  MIA22002200-0500  AMS06450645+0100  77X                                                              EY  906                                                  000414
3 EY  9870101F01DEC1801DEC18     6  FRA08100810+0100  MIA19001900-0500  77X                                                              EY  986                                                  000415
3 EY  9870201F05DEC1828DEC18  3 5   AUH22002200+0400  FRA05100510+0100  77X                                                                                                                       000416
3 EY  9870202F06DEC1829DEC18   4 6  FRA08100810+0100  MIA19001900-0500  77X                                                              EY  986                                                  000417
3 EY  9870301F09JAN1908MAR19  3 5   AUH22002200+0400  FRA05100510+0100  77X                                                                                                                       000418
3 EY  9870302F10JAN1909MAR19   4 6  FRA08100810+0100  MIA19001900-0500  77X                                                              EY  986                                                  000419
3 EY  9870401F13MAR1929MAR19  3 5   AUH22002200+0400  FRA05100510+0100  77X                                                                                                                       000420
3 EY  9870402F14MAR1930MAR19   4 6  FRA08100810+0100  MIA19001900-0400  77X                                                              EY  986                                                  000421
3 EY  9870501F03APR1925OCT19  3 5   AUH22002200+0400  FRA05100510+0200  77X                                                                                                                       000422
3 EY  9870502F04APR1926OCT19   4 6  FRA08100810+0200  MIA19001900-0400  77X                                                              EY  986                                                  000423
3 EY  9870601F30OCT1901NOV19  3 5   AUH22002200+0400  FRA05100510+0100  77X                                                                                                                       000424
3 EY  9870602F31OCT1902NOV19   4 6  FRA08100810+0100  MIA19001900-0400  77X                                                              EY  986                                                  000425
3 EY  9870701F06NOV1920DEC19  3 5   AUH22002200+0400  FRA05100510+0100  77X                                                                                                                       000426
3 EY  9870702F07NOV1921DEC19   4 6  FRA08100810+0100  MIA19001900-0500  77X                                                              EY  986                                                  000427
3 EY  9870801F01JAN2031JAN20  3 5   AUH22002200+0400  FRA05100510+0100  77X                                                                                                                       000428
3 EY  9870802F02JAN2001FEB20   4 6  FRA08100810+0100  MIA19001900-0500  77X                                                              EY  986                                                  000429
3 EY  9900101F01DEC1829DEC18     6  BEG19301930+0100  DHF00500050+0400  77X                                                                                                                       000430
3 EY  9900102F02DEC1830DEC18      7 DHF02500250+0400  AUH03200320+0400  77X                                                              EY 9002 Z                                                000431
3 EY  9900201F05DEC1826DEC18  3     BEG01250125+0100  DHF06450645+0400  77X                                                                                                                       000432
3 EY  9900202F05DEC1826DEC18  3     DHF08450845+0400  AUH09150915+0400  77X                                                              EY  997                                                  000433
3 EY  9910101F03DEC1824DEC181       HAN20202020+0700  ANC06400640-0900  77X                                                                                                                       000434
3 EY  9910102F04DEC1825DEC18 2      ANC11151115-0900  LCK17151715-0500  77X                                                              EY  902                                                  000435
3 EY  9910201F07JAN1928JAN191       HAN20202020+0700  ANC06400640-0900  77X                                                                                                                       000436
3 EY  9910202F08JAN1929JAN19 2      ANC11151115-0900  LCK17151715-0500  77X                                                              EY  902                                                  000437
3 EY  9910301F18FEB1904MAR191       HAN20202020+0700  ANC06400640-0900  77X                                                                                                                       000438
3 EY  9910302F19FEB1905MAR19 2      ANC11151115-0900  LCK17151715-0500  77X                                                              EY  902                                                  000439
3 EY  9910401F11MAR1908APR191       HAN20202020+0700  ANC06400640-0800  77X                                                                                                                       000440
3 EY  9910402F12MAR1909APR19 2      ANC11151115-0800  LCK17151715-0400  77X                                                              EY  902                                                  000441
3 EY  9910501F22APR1922APR191       HAN20202020+0700  ANC06400640-0800  77X                                                                                                                       000442
3 EY  9910502F23APR1923APR19 2      ANC11151115-0800  LCK17151715-0400  77X                                                              EY  902                                                  000443
3 EY  9910601F06MAY1926AUG191       HAN20202020+0700  ANC06400640-0800  77X                                                                                                                       000444
3 EY  9910602F07MAY1927AUG19 2      ANC11151115-0800  LCK17151715-0400  77X                                                              EY  902                                                  000445
3 EY  9910701F09SEP1928OCT191       HAN20202020+0700  ANC06400640-0800  77X                                                                                                                       000446
3 EY  9910702F10SEP1929OCT19 2      ANC11151115-0800  LCK17151715-0400  77X                                                              EY  902                                                  000447
3 EY  9910801F04NOV1927JAN201       HAN20202020+0700  ANC06400640-0900  77X                                                                                                                       000448
3 EY  9910802F05NOV1928JAN20 2      ANC11151115-0900  LCK17151715-0500  77X                                                              EY  902                                                  000449
3 EY  9970101F03DEC1831DEC181       AUH14401440+0400  DMM16051605+0300  77X                                                              EY  998                                                  000450
3 EY  9970201F05DEC1826DEC18  3     AUH13451345+0400  DMM15101510+0300  77X                                                              EY  998                                                  000451
3 EY  9970301F11JAN1920DEC19    5   AUH17451745+0400  DMM19101910+0300  77X                                                              EY  998                                                  000452
3 EY  9970401F14JAN1925NOV191       AUH14401440+0400  DMM16051605+0300  77X                                                              EY  998                                                  000453
3 EY  9970501F09DEC1927JAN201       AUH14401440+0400  DMM16051605+0300  77X                                                              EY  998                                                  000454
3 EY  9970601F03JAN2031JAN20    5   AUH17451745+0400  DMM19101910+0300  77X                                                              EY  998                                                  000455
3 EY  9980101F03DEC1824DEC181       DMM18051805+0300  AUH19301930+0400  77X                                                              EY  935                                                  000456
3 EY  9980201F05DEC1826DEC18  3     DMM17101710+0300  AUH18351835+0400  77X                                                              EY  987                                                  000457
3 EY  9980301F31DEC1831DEC181       DMM18051805+0300  AUH19301930+0400  77X                                                              EY 98072                                                 000458
3 EY  9980401F11JAN1901FEB19    5   DMM21102110+0300  AUH22352235+0400  77X                                                              EY  931                                                  000459
3 EY  9980501F14JAN1904FEB191       DMM18051805+0300  AUH19301930+0400  77X                                                              EY  935                                                  000460
3 EY  9980601F08FEB1908FEB19    5   DMM21102110+0300  AUH22352235+0400  77X                                                              EY  9972                                                 000461
3 EY  9980701F11FEB1911FEB191       DMM18051805+0300  AUH19301930+0400  77X                                                              EY 98072                                                 000462
3 EY  9980801F15FEB1915FEB19    5   DMM21102110+0300  AUH22352235+0400  77X                                                              EY  9321                                                 000463
3 EY  9980901F18FEB1930SEP191       DMM18051805+0300  AUH19301930+0400  77X                                                              EY  935                                                  000464
3 EY  9981001F22FEB1927SEP19    5   DMM21102110+0300  AUH22352235+0400  77X                                                              EY  931                                                  000465
3 EY  9981101F04OCT1904OCT19    5   DMM21102110+0300  AUH22352235+0400  77X                                                              EY 8001 Z                                                000466
3 EY  9981201F07OCT1907OCT191       DMM18051805+0300  AUH19301930+0400  77X                                                              EY 8001 Z                                                000467
3 EY  9981301F11OCT1920DEC19    5   DMM21102110+0300  AUH22352235+0400  77X                                                              EY  931                                                  000468
3 EY  9981401F14OCT1925NOV191       DMM18051805+0300  AUH19301930+0400  77X                                                              EY  935                                                  000469
3 EY  9981501F09DEC1927JAN201       DMM18051805+0300  AUH19301930+0400  77X                                                              EY  935                                                  000470
3 EY  9981601F03JAN2031JAN20    5   DMM21102110+0300  AUH22352235+0400  77X                                                              EY  931                                                  000471
3ZEY 80010101Y06JAN1906JAN19      7 AUH08300830+0400  AUH15301530+0400  77X                                                              EY 8001                                                  000472
3 EY 80010201Y06JAN1906JAN19      7 AUH18301830+0400  AUH01300130+0400  77X                                                              EY  9811                                                 000473
3 EY 80010301Y03FEB1903FEB19      7 AUH17301730+0400  AUH23302330+0400  77X                                                              EY  9312                                                 000474
3ZEY 80010401Y03FEB1910FEB19      7 AUH08300830+0400  AUH14301430+0400  77X                                                              EY 8001                                                  000475
3 EY 80010501Y10FEB1910FEB19      7 AUH17301730+0400  AUH23302330+0400  77X                                                              EY  9323                                                 000476
3 EY 80010601Y13FEB1913FEB19  3     AUH17301730+0400  AUH23302330+0400  77X                                                              EY  904                                                  000477
3ZEY 80010701Y13FEB1917FEB19  3   7 AUH08300830+0400  AUH14301430+0400  77X                                                              EY 8001                                                  000478
3 EY 80010801Y17FEB1907APR19      7 AUH17301730+0400  AUH23302330+0400  77X                                                              EY  9811                                                 000479
3ZEY 80010901Y24FEB1907APR19      7 AUH08300830+0400  AUH14301430+0400  77X                                                              EY 8001                                                  000480
3 EY 80011001Y08APR1908APR191       AUH17301730+0400  AUH23302330+0400  77X                                                              EY 8001 Z                                                000481
3ZEY 80011101Y08APR1914APR1912    7 AUH08300830+0400  AUH14301430+0400  77X                                                              EY 8001                                                  000482
3 EY 80011201Y09APR1909APR19 2      AUH17301730+0400  AUH23302330+0400  77X                                                              EY  987                                                  000483
3 EY 80011301Y14APR1914APR19      7 AUH17301730+0400  AUH23302330+0400  77X                                                              EY 80011                                                 000484
3ZEY 80011401Y15APR1915APR191       AUH09000900+0400  AUH15001500+0400  77X                                                              EY 8001                                                  000485
3 EY 80011501Y15APR1915APR191       AUH18001800+0400  AUH24002400+0400  77X                                                              EY 8001 Z                                                000486
3 EY 80011601Y16APR1916APR19 2      AUH09000900+0400  AUH15001500+0400  77X                                                              EY 8001                                                  000487
3 EY 80011701Y16APR1916APR19 2      AUH16301630+0400  AUH21302130+0400  77X                                                              EY 8001 Z                                                000488
3 EY 80011801Y16APR1916APR19 2      AUH18001800+0400  AUH24002400+0400  77X                                                              EY  931                                                  000489
