1AIRLINE STANDARD SCHEDULE DATA SET                                                                                                                                                            001000001
00000000000000000000000000000000000000000000000000000000000000000000000000000000000000000000000000000000000000000000000000000000000000000000000000000000000000000000000000000000000000000000000000000000
00000000000000000000000000000000000000000000000000000000000000000000000000000000000000000000000000000000000000000000000000000000000000000000000000000000000000000000000000000000000000000000000000000000
00000000000000000000000000000000000000000000000000000000000000000000000000000000000000000000000000000000000000000000000000000000000000000000000000000000000000000000000000000000000000000000000000000000
00000000000000000000000000000000000000000000000000000000000000000000000000000000000000000000000000000000000000000000000000000000000000000000000000000000000000000000000000000000000000000000000000000000
2UEY  0008    01JAN1931DEC2305NOV18Created by Sabre Airflite           PCreated by Sabre AirFlite                                                                                           EN1810000002
00000000000000000000000000000000000000000000000000000000000000000000000000000000000000000000000000000000000000000000000000000000000000000000000000000000000000000000000000000000000000000000000000000000
00000000000000000000000000000000000000000000000000000000000000000000000000000000000000000000000000000000000000000000000000000000000000000000000000000000000000000000000000000000000000000000000000000000
00000000000000000000000000000000000000000000000000000000000000000000000000000000000000000000000000000000000000000000000000000000000000000000000000000000000000000000000000000000000000000000000000000000
00000000000000000000000000000000000000000000000000000000000000000000000000000000000000000000000000000000000000000000000000000000000000000000000000000000000000000000000000000000000000000000000000000000
3 EY  0010101J01JAN1919JAN191234567 AUH22302230+0400  FRA05400540+0100  77C                                                              EY  002                            F8J40Y280             000003
3 EY  0010201J20JAN1928JAN191     7 AUH22302230+0400  FRA05400540+0100  78A                                                              EY  002                            F8J28Y199             000004
3 EY  0010301J22JAN1930JAN19 23456  AUH22302230+0400  FRA05400540+0100  77C                                                              EY  002                            F8J40Y280             000005
3 EY  0010401J31JAN1917FEB191234567 AUH22302230+0400  FRA05400540+0100  78B                                                              EY  002                            J28Y271               000006
3 EY  0010501J18FEB1924FEB191234 67 AUH22302230+0400  FRA05400540+0100  78B                                                              EY  002                            J28Y271               000007
3 EY  0010601J22FEB1922FEB19    5   AUH22302230+0400  FRA05400540+0100  77C                                                              EY  002                            F8J40Y280             000008
3 EY  0010701J25FEB1903MAR191234567 AUH22302230+0400  FRA05400540+0100  78B                                                              EY  002                            J28Y271               000009
3 EY  0010801J04MAR1910MAR1912 4567 AUH22302230+0400  FRA05400540+0100  78B                                                              EY  002                            J28Y271               000010
3 EY  0010901J06MAR1906MAR19  3     AUH22302230+0400  FRA05400540+0100  77M                                                              EY  002                            J40Y330               000011
3 EY  0011001J11MAR1917MAR191234567 AUH22302230+0400  FRA05400540+0100  78B                                                              EY  002                            J28Y271               000012
3 EY  0011101J18MAR1924MAR19123  67 AUH22302230+0400  FRA05400540+0100  78B                                                              EY  002                            J28Y271               000013
3 EY  0011201J21MAR1922MAR19   45   AUH22302230+0400  FRA05400540+0100  77C                                                              EY  002                            F8J40Y280             000014
3 EY  0011301J25MAR1929MAR1912345   AUH22302230+0400  FRA05400540+0100  78B                                                              EY  002                            J28Y271               000015
3 EY  0011401J30MAR1923MAY191234567 AUH22052205+0400  FRA04400440+0200  78B                                                              EY  002                            J28Y271               000016
3 EY  0011501J24MAY1911OCT19  34567 AUH22052205+0400  FRA04400440+0200  77C                                                              EY  002                            F8J40Y280             000017
3 EY  0011601J27MAY1908OCT1912      AUH22052205+0400  FRA04400440+0200  77M                                                              EY  002                            J40Y330               000018
3 EY  0011701J12OCT1925OCT191234567 AUH22052205+0400  FRA04400440+0200  78E                                                              EY  002                            J28Y262               000019
3 EY  0011801J26OCT1927OCT19     67 AUH22302230+0400  FRA05400540+0100  78E                                                              EY  002                            J28Y262               000020
3 EY  0011901J28OCT1903NOV191234567 AUH22302230+0400  FRA05400540+0100  77C                                                              EY  002                            F8J40Y280             000021
3 EY  0012001J04NOV1922DEC1912 4567 AUH22302230+0400  FRA05400540+0100  77C                                                              EY  002                            F8J40Y280             000022
3 EY  0012101J06NOV1918DEC19  3     AUH22302230+0400  FRA05400540+0100  78D                                                              EY  002                            F8J28Y190             000023
3 EY  0012201J23DEC1927MAR201234567 AUH22302230+0400  FRA05400540+0100  77C                                                              EY  002                            F8J40Y280             000024
3 EY  0012301J28MAR2017OCT20     6  AUH22302230+0400  FRA05400540+0200  78E                                                              EY  002                            J28Y262               000025
3 EY  0012401J29MAR2023OCT2012345 7 AUH22302230+0400  FRA05400540+0200  77C                                                              EY  002                            F8J40Y280             000026
3 EY  0012501J24OCT2026MAR211234567 AUH22302230+0400  FRA05400540+0100  77C                                                              EY  002                            F8J40Y280             000027
3 EY  0012601J27MAR2123OCT21     6  AUH22302230+0400  FRA05400540+0200  78E                                                              EY  002                            J28Y262               000028
3 EY  0012701J28MAR2129OCT2112345 7 AUH22302230+0400  FRA05400540+0200  77C                                                              EY  002                            F8J40Y280             000029
3 EY  0012801J30OCT2125MAR221234567 AUH22302230+0400  FRA05400540+0100  77C                                                              EY  002                            F8J40Y280             000030
3 EY  0012901J26MAR2222OCT22     6  AUH22302230+0400  FRA05400540+0200  78E                                                              EY  002                            J28Y262               000031
3 EY  0013001J27MAR2228OCT2212345 7 AUH22302230+0400  FRA05400540+0200  77C                                                              EY  002                            F8J40Y280             000032
3 EY  0013101J29OCT2224MAR231234567 AUH22302230+0400  FRA05400540+0100  77C                                                              EY  002                            F8J40Y280             000033
3 EY  0013201J25MAR2321OCT23     6  AUH22302230+0400  FRA05400540+0200  78E                                                              EY  002                            J28Y262               000034
3 EY  0013301J26MAR2327OCT2312345 7 AUH22302230+0400  FRA05400540+0200  77C                                                              EY  002                            F8J40Y280             000035
3 EY  0013401J28OCT2330DEC231234567 AUH22302230+0400  FRA05400540+0100  77C                                                              EY  002                            F8J40Y280             000036
3 EY  0020101J01JAN1913JAN191234567 FRA09450945+0100  AUH16001600+0400  77C                                                              EY  001                            F8J40Y280             000037
3 EY  0020201J14JAN1919JAN191 3456  FRA09450945+0100  AUH16001600+0400  77C                                                              EY  001                            F8J40Y280             000038
3 EY  0020301J15JAN1915JAN19 2      FRA09450945+0100  AUH16001600+0400  77C                                                              EY  470                            F8J40Y280             000039
3 EY  0020401J20JAN1920JAN19      7 FRA09450945+0100  AUH16001600+0400  77C                                                              EY  1711                           F8J40Y280             000040
3 EY  0020501J21JAN1928JAN191       FRA09450945+0100  AUH16001600+0400  78A                                                              EY  001                            F8J28Y199             000041
3 EY  0020601J22JAN1929JAN19 2      FRA09450945+0100  AUH16001600+0400  78A                                                              EY  051                            F8J28Y199             000042
3 EY  0020701J23JAN1930JAN19  3456  FRA09450945+0100  AUH16001600+0400  77C                                                              EY  001                            F8J40Y280             000043
3 EY  0020801J27JAN1927JAN19      7 FRA09450945+0100  AUH16001600+0400  77C                                                              EY  450                            F8J40Y280             000044
3 EY  0020901J31JAN1931JAN19   4    FRA09450945+0100  AUH16001600+0400  77C                                                              EY  007                            F8J40Y280             000045
3 EY  0021001J01FEB1901FEB19    5   FRA09450945+0100  AUH16001600+0400  78B                                                              EY  001                            J28Y271               000046
3 EY  0021101J02FEB1904FEB191    6  FRA09450945+0100  AUH16001600+0400  78B                                                              EY  878                            J28Y271               000047
3 EY  0021201J03FEB1910FEB19 234567 FRA09450945+0100  AUH16001600+0400  78B                                                              EY  484                            J28Y271               000048
3 EY  0021301J11FEB1917FEB191234567 FRA09450945+0100  AUH16001600+0400  78B                                                              EY  484                            J28Y271               000049
3 EY  0021401J18FEB1924FEB191234  7 FRA09450945+0100  AUH16001600+0400  78B                                                              EY  484                            J28Y271               000050
3 EY  0021501J22FEB1922FEB19    5   FRA09450945+0100  AUH16001600+0400  78B                                                              EY  075                            J28Y271               000051
3 EY  0021601J23FEB1923FEB19     6  FRA09450945+0100  AUH16001600+0400  77C                                                              EY  0291                           F8J40Y280             000052
3 EY  0021701J25FEB1903MAR191234567 FRA09450945+0100  AUH16001600+0400  78B                                                              EY  484                            J28Y271               000053
3 EY  0021801J04MAR1910MAR19123 567 FRA09450945+0100  AUH16001600+0400  78B                                                              EY  484                            J28Y271               000054
3 EY  0021901J07MAR1907MAR19   4    FRA09450945+0100  AUH16001600+0400  77M                                                              EY  206                            J40Y330               000055
3 EY  0022001J11MAR1917MAR191234567 FRA09450945+0100  AUH16001600+0400  78B                                                              EY  484                            J28Y271               000056
3 EY  0022101J18MAR1924MAR191234  7 FRA09450945+0100  AUH16001600+0400  78B                                                              EY  484                            J28Y271               000057
3 EY  0022201J22MAR1922MAR19    5   FRA09450945+0100  AUH16001600+0400  77C                                                              EY  001                            F8J40Y280             000058
3 EY  0022301J23MAR1923MAR19     6  FRA09450945+0100  AUH16001600+0400  77C                                                              EY  0291                           F8J40Y280             000059
3 EY  0022401J25MAR1930MAR19123456  FRA09450945+0100  AUH16001600+0400  78B                                                              EY  484                            J28Y271               000060
3 EY  0022501J31MAR1905APR1912345 7 FRA09200920+0200  AUH15451545+0400  78B                                                              EY  862                            J28Y271               000061
3 EY  0022601J06APR1913APR19     6  FRA09200920+0200  AUH15451545+0400  78B                                                              EY  484                            J28Y271               000062
3 EY  0022701J07APR1914APR19      7 FRA09200920+0200  AUH15451545+0400  78B                                                              EY  460                            J28Y271               000063
3 EY  0022801J08APR1912APR1912345   FRA09200920+0200  AUH15451545+0400  78B                                                              EY  862                            J28Y271               000064
3 EY  0022901J15APR1928APR191234567 FRA09200920+0200  AUH15451545+0400  78B                                                              EY  460                            J28Y271               000065
3 EY  0023001J29APR1905MAY1912 4567 FRA09200920+0200  AUH15451545+0400  78B                                                              EY  460                            J28Y271               000066
3 EY  0023101J01MAY1901MAY19  3     FRA09200920+0200  AUH15451545+0400  78B                                                              EY  274                            J28Y271               000067
3 EY  0023201J06MAY1924MAY191234567 FRA09200920+0200  AUH15451545+0400  78B                                                              EY  460                            J28Y271               000068
3 EY  0023301J25MAY1902JUN19   4 67 FRA09200920+0200  AUH15451545+0400  77C                                                              EY  001                            F8J40Y280             000069
3 EY  0023401J27MAY1903JUN191       FRA09200920+0200  AUH15451545+0400  77C                                                              EY  450                            F8J40Y280             000070
3 EY  0023501J28MAY1908OCT19 2      FRA09200920+0200  AUH15451545+0400  77M                                                              EY  001                            J40Y330               000071
3 EY  0023601J29MAY1919JUN19  3     FRA09200920+0200  AUH15451545+0400  77M                                                              EY  2061                           J40Y330               000072
3 EY  0023701J31MAY1931MAY19    5   FRA09200920+0200  AUH15451545+0400  77C                                                              EY  005                            F8J40Y280             000073
3 EY  0023801J06JUN1929SEP19   4  7 FRA09200920+0200  AUH15451545+0400  77C                                                              EY  001                            F8J40Y280             000074
3 EY  0023901J07JUN1928SEP191   56  FRA09200920+0200  AUH15451545+0400  77C                                                              EY  171                            F8J40Y280             000075
3 EY  0024001J26JUN1926JUN19  3     FRA09200920+0200  AUH15451545+0400  77M                                                              EY  041                            J40Y330               000076
3 EY  0024101J03JUL1909OCT19  3     FRA09200920+0200  AUH15451545+0400  77M                                                              EY  2061                           J40Y330               000077
3 EY  0024201J30SEP1907OCT191       FRA09200920+0200  AUH15451545+0400  77C                                                              EY  450                            F8J40Y280             000078
3 EY  0024301J03OCT1910OCT19   4  7 FRA09200920+0200  AUH15451545+0400  77C                                                              EY  005                            F8J40Y280             000079
3 EY  0024401J04OCT1905OCT19    56  FRA09200920+0200  AUH15451545+0400  77C                                                              EY  001                            F8J40Y280             000080
3 EY  0024501J11OCT1912OCT19    56  FRA09200920+0200  AUH15451545+0400  77C                                                              EY  171                            F8J40Y280             000081
3 EY  0024601J13OCT1925OCT19  3 5 7 FRA09200920+0200  AUH15451545+0400  78E                                                              EY  460                            J28Y262               000082
3 EY  0024701J14OCT1924OCT1912 4    FRA09200920+0200  AUH15451545+0400  78E                                                              EY  862                            J28Y262               000083
3 EY  0024801J19OCT1926OCT19     6  FRA09200920+0200  AUH15451545+0400  78E                                                              EY  834                            J28Y262               000084
3 EY  0024901J27OCT1927OCT19      7 FRA09450945+0100  AUH16001600+0400  78E                                                              EY  274                            J28Y262               000085
3 EY  0025001J28OCT1928OCT191       FRA09450945+0100  AUH16001600+0400  78E                                                              EY  6731                           J28Y262               000086
3 EY  0025101J29OCT1929OCT19 2      FRA09450945+0100  AUH16001600+0400  77C                                                                                                 F8J40Y280             000087
3 EY  0025201J30OCT1930OCT19  3     FRA09450945+0100  AUH16001600+0400  77C                                                              EY  171                            F8J40Y280             000088
3 EY  0025301J31OCT1931OCT19   4    FRA09450945+0100  AUH16001600+0400  77C                                                              EY  005                            F8J40Y280             000089
3 EY  0025401J01NOV1929DEC19    5 7 FRA09450945+0100  AUH16001600+0400  77C                                                              EY  470                            F8J40Y280             000090
3 EY  0025501J02NOV1921DEC1912   6  FRA09450945+0100  AUH16001600+0400  77C                                                              EY  001                            F8J40Y280             000091
3 EY  0025601J06NOV1918DEC19  3     FRA09450945+0100  AUH16001600+0400  77C                                                              EY  0051                           F8J40Y280             000092
3 EY  0025701J07NOV1919DEC19   4    FRA09450945+0100  AUH16001600+0400  78D                                                              EY  613                            F8J28Y190             000093
3 EY  0025801J23DEC1928DEC19123  6  FRA09450945+0100  AUH16001600+0400  77C                                                              EY  001                            F8J40Y280             000094
3 EY  0025901J26DEC1926DEC19   4    FRA09450945+0100  AUH16001600+0400  77C                                                              EY  005                            F8J40Y280             000095
3 EY  0026001J30DEC1903JAN20123 5   FRA09450945+0100  AUH16001600+0400  77C                                                              EY  001                            F8J40Y280             000096
3 EY  0026101J02JAN2028MAR2012 4 67 FRA09450945+0100  AUH16001600+0400  77C                                                              EY  005                            F8J40Y280             000097
3 EY  0026201J08JAN2027MAR20  3 5   FRA09450945+0100  AUH16001600+0400  77C                                                              EY  001                            F8J40Y280             000098
3 EY  0026301J29MAR2018OCT20      7 FRA09450945+0200  AUH16001600+0400  78E                                                              EY  484                            J28Y262               000099
3 EY  0026401J30MAR2024OCT2012 4 6  FRA09450945+0200  AUH16001600+0400  77C                                                              EY  005                            F8J40Y280             000100
3 EY  0026501J01APR2023OCT20  3 5   FRA09450945+0200  AUH16001600+0400  77C                                                              EY  001                            F8J40Y280             000101
3 EY  0026601J25OCT2029DEC2012 4 67 FRA09450945+0100  AUH16001600+0400  77C                                                              EY  005                            F8J40Y280             000102
3 EY  0026701J28OCT2025DEC20  3 5   FRA09450945+0100  AUH16001600+0400  77C                                                              EY  001                            F8J40Y280             000103
3 EY  0026801J30DEC2031DEC20  34    FRA09450945+0100  AUH16001600+0400  77C                                                              EY  001                            F8J40Y280             000104
3 EY  0026901J01JAN2127MAR211234567 FRA09450945+0100  AUH16001600+0400  77C                                                              EY  470                            F8J40Y280             000105
3 EY  0027001J28MAR2124OCT21      7 FRA09450945+0200  AUH16001600+0400  78E                                                              EY  484                            J28Y262               000106
3 EY  0027101J29MAR2130OCT21123456  FRA09450945+0200  AUH16001600+0400  77C                                                              EY  470                            F8J40Y280             000107
3 EY  0027201J31OCT2126MAR221234567 FRA09450945+0100  AUH16001600+0400  77C                                                              EY  470                            F8J40Y280             000108
3 EY  0027301J27MAR2223OCT22      7 FRA09450945+0200  AUH16001600+0400  78E                                                              EY  484                            J28Y262               000109
3 EY  0027401J28MAR2229OCT22123456  FRA09450945+0200  AUH16001600+0400  77C                                                              EY  470                            F8J40Y280             000110
3 EY  0027501J30OCT2225MAR231234567 FRA09450945+0100  AUH16001600+0400  77C                                                              EY  470                            F8J40Y280             000111
3 EY  0027601J26MAR2322OCT23      7 FRA09450945+0200  AUH16001600+0400  78E                                                              EY  484                            J28Y262               000112
3 EY  0027701J27MAR2328OCT23123456  FRA09450945+0200  AUH16001600+0400  77C                                                              EY  470                            F8J40Y280             000113
3 EY  0027801J29OCT2331DEC231234567 FRA09450945+0100  AUH16001600+0400  77C                                                              EY  470                            F8J40Y280             000114
3 EY  0030101J01JAN1930MAR191234567 AUH05200520+0400  MUC12001200+0100  77C                                                              EY  004                            F8J40Y280             000115
3 EY  0030201J31MAR1904MAY191234567 AUH05050505+0400  MUC11201120+0200  77C                                                              EY  004                            F8J40Y280             000116
3 EY  0030301J05MAY1919MAY19      7 AUH05050505+0400  MUC11201120+0200  77N                                                              EY  004                            J28Y374               000117
3 EY  0030401J06MAY1918MAY19123456  AUH05050505+0400  MUC11201120+0200  77C                                                              EY  004                            F8J40Y280             000118
3 EY  0030501J20MAY1926OCT191234567 AUH05050505+0400  MUC11201120+0200  77C                                                              EY  004                            F8J40Y280             000119
3 EY  0030601J27OCT1928MAR201234567 AUH05200520+0400  MUC12001200+0100  77C                                                              EY  004                            F8J40Y280             000120
3 EY  0030701J29MAR2024OCT201234567 AUH05200520+0400  MUC12001200+0200  77C                                                              EY  004                            F8J40Y280             000121
3 EY  0030801J25OCT2027MAR211234567 AUH05200520+0400  MUC12001200+0100  77C                                                              EY  004                            F8J40Y280             000122
3 EY  0030901J28MAR2130OCT211234567 AUH05200520+0400  MUC12001200+0200  77C                                                              EY  004                            F8J40Y280             000123
3 EY  0031001J31OCT2126MAR221234567 AUH05200520+0400  MUC12001200+0100  77C                                                              EY  004                            F8J40Y280             000124
3 EY  0031101J27MAR2229OCT221234567 AUH05200520+0400  MUC12001200+0200  77C                                                              EY  004                            F8J40Y280             000125
3 EY  0031201J30OCT2225MAR231234567 AUH05200520+0400  MUC12001200+0100  77C                                                              EY  004                            F8J40Y280             000126
3 EY  0031301J26MAR2328OCT231234567 AUH05200520+0400  MUC12001200+0200  77C                                                              EY  004                            F8J40Y280             000127
3 EY  0031401J29OCT2331DEC231234567 AUH05200520+0400  MUC12001200+0100  77C                                                              EY  004                            F8J40Y280             000128
3 EY  0040101J01JAN1906JAN19 234567 MUC20402040+0100  AUH02450245+0400  77C                                                              EY  003                            F8J40Y280             000129
3 EY  0040201J07JAN1913JAN191234 67 MUC20402040+0100  AUH02450245+0400  77C                                                              EY  003                            F8J40Y280             000130
3 EY  0040301J11JAN1911JAN19    5   MUC20402040+0100  AUH02450245+0400  77C                                                              EY  007                            F8J40Y280             000131
3 EY  0040401J14JAN1930MAR191234567 MUC20402040+0100  AUH02450245+0400  77C                                                              EY  003                            F8J40Y280             000132
3 EY  0040501J31MAR1931MAR19      7 MUC20352035+0200  AUH02350235+0400  77C                                                              EY  029                            F8J40Y280             000133
3 EY  0040601J01APR1912APR1912345 7 MUC20352035+0200  AUH02350235+0400  77C                                                              EY  003                            F8J40Y280             000134
3 EY  0040701J06APR1906APR19     6  MUC20352035+0200  AUH02350235+0400  77C                                                              EY  450                            F8J40Y280             000135
3 EY  0040801J13APR1920APR19 234 67 MUC20352035+0200  AUH02350235+0400  77C                                                              EY  450                            F8J40Y280             000136
3 EY  0040901J15APR1921APR191     7 MUC20352035+0200  AUH02350235+0400  77C                                                              EY  003                            F8J40Y280             000137
3 EY  0041001J19APR1926APR19    5   MUC20352035+0200  AUH02350235+0400  77C                                                              EY  007                            F8J40Y280             000138
3 EY  0041101J22APR1927APR191234 6  MUC20352035+0200  AUH02350235+0400  77C                                                              EY  450                            F8J40Y280             000139
3 EY  0041201J28APR1928APR19      7 MUC20352035+0200  AUH02350235+0400  77C                                                              EY  003                            F8J40Y280             000140
3 EY  0041301J29APR1923MAY19123456  MUC20352035+0200  AUH02350235+0400  77C                                                              EY  450                            F8J40Y280             000141
3 EY  0041401J05MAY1919MAY19      7 MUC20352035+0200  AUH02350235+0400  77N                                                              EY  408                            J28Y374               000142
3 EY  0041501J24MAY1925MAY19    56  MUC20352035+0200  AUH02350235+0400  77C                                                              EY  003                            F8J40Y280             000143
3 EY  0041601J26MAY1926MAY19      7 MUC20352035+0200  AUH02350235+0400  77C                                                              EY  007                            F8J40Y280             000144
3 EY  0041701J27MAY1906OCT191234567 MUC20352035+0200  AUH02350235+0400  77C                                                              EY  003                            F8J40Y280             000145
3 EY  0041801J07OCT1913OCT191234 67 MUC20352035+0200  AUH02350235+0400  77C                                                              EY  003                            F8J40Y280             000146
3 EY  0041901J11OCT1911OCT19    5   MUC20352035+0200  AUH02350235+0400  77C                                                              EY  450                            F8J40Y280             000147
3 EY  0042001J14OCT1925OCT191234567 MUC20352035+0200  AUH02350235+0400  77C                                                              EY  003                            F8J40Y280             000148
3 EY  0042101J26OCT1926OCT19     6  MUC20352035+0200  AUH02350235+0400  77C                                                              EY  450                            F8J40Y280             000149
3 EY  0042201J27OCT1927OCT19      7 MUC20402040+0100  AUH02450245+0400  77C                                                              EY  007                            F8J40Y280             000150
3 EY  0042301J28OCT1904JAN201234567 MUC20402040+0100  AUH02450245+0400  77C                                                              EY  003                            F8J40Y280             000151
3 EY  0042401J05JAN2022MAR20      7 MUC20402040+0100  AUH02450245+0400  77C                                                              EY  1711                           F8J40Y280             000152
3 EY  0042501J06JAN2028MAR20123456  MUC20402040+0100  AUH02450245+0400  77C                                                              EY  003                            F8J40Y280             000153
3 EY  0042601J29MAR2024OCT201234567 MUC20402040+0200  AUH02450245+0400  77C                                                              EY  003                            F8J40Y280             000154
3 EY  0042701J25OCT2027DEC20      7 MUC20402040+0100  AUH02450245+0400  77C                                                              EY  1711                           F8J40Y280             000155
3 EY  0042801J26OCT2031DEC20123456  MUC20402040+0100  AUH02450245+0400  77C                                                              EY  003                            F8J40Y280             000156
3 EY  0042901J01JAN2127MAR211234567 MUC20402040+0100  AUH02450245+0400  77C                                                              EY  007                            F8J40Y280             000157
3 EY  0043001J28MAR2130OCT211234567 MUC20402040+0200  AUH02450245+0400  77C                                                              EY  007                            F8J40Y280             000158
3 EY  0043101J31OCT2126DEC211234567 MUC20402040+0100  AUH02450245+0400  77C                                                              EY  007                            F8J40Y280             000159
3 EY  0043201J27DEC2102JAN221234 67 MUC20402040+0100  AUH02450245+0400  77C                                                              EY  007                            F8J40Y280             000160
3 EY  0043301J31DEC2131DEC21    5   MUC20402040+0100  AUH02450245+0400  77C                                                              EY  003                            F8J40Y280             000161
3 EY  0043401J03JAN2226MAR221234567 MUC20402040+0100  AUH02450245+0400  77C                                                              EY  007                            F8J40Y280             000162
3 EY  0043501J27MAR2229OCT221234567 MUC20402040+0200  AUH02450245+0400  77C                                                              EY  007                            F8J40Y280             000163
3 EY  0043601J30OCT2225DEC221234567 MUC20402040+0100  AUH02450245+0400  77C                                                              EY  007                            F8J40Y280             000164
3 EY  0043701J26DEC2201JAN2312345 7 MUC20402040+0100  AUH02450245+0400  77C                                                              EY  007                            F8J40Y280             000165
3 EY  0043801J31DEC2231DEC22     6  MUC20402040+0100  AUH02450245+0400  77C                                                              EY  003                            F8J40Y280             000166
3 EY  0043901J02JAN2325MAR231234567 MUC20402040+0100  AUH02450245+0400  77C                                                              EY  007                            F8J40Y280             000167
3 EY  0044001J26MAR2328OCT231234567 MUC20402040+0200  AUH02450245+0400  77C                                                              EY  007                            F8J40Y280             000168
3 EY  0044101J29OCT2330DEC231234567 MUC20402040+0100  AUH02450245+0400  77C                                                              EY  007                            F8J40Y280             000169
3 EY  0044201J31DEC2331DEC23      7 MUC20402040+0100  AUH02450245+0400  77C                                                                                                 F8J40Y280             000170
3 EY  0050101J01JAN1929MAR191234567 AUH22252225+0400  MUC05050505+0100  77C                                                              EY  006                            F8J40Y280             000171
3 EY  0050201J30MAR1926MAY191234567 AUH22402240+0400  MUC05000500+0200  77C                                                              EY  006                            F8J40Y280             000172
3 EY  0050301J27MAY1925OCT1912345 7 AUH22402240+0400  MUC05000500+0200  77C                                                              EY  006                            F8J40Y280             000173
3 EY  0050401J01JUN1927JUL19     6  AUH22402240+0400  MUC05000500+0200  33C                                                              EY  006                            J22Y240               000174
3 EY  0050501J03AUG1919OCT19     6  AUH22402240+0400  MUC05000500+0200  78E                                                              EY  006                            J28Y262               000175
3 EY  0050601J26OCT1927MAR201234567 AUH22252225+0400  MUC05050505+0100  77C                                                              EY  006                            F8J40Y280             000176
3 EY  0050701J28MAR2023OCT201234567 AUH22252225+0400  MUC05050505+0200  77C                                                              EY  006                            F8J40Y280             000177
3 EY  0050801J24OCT2026MAR211234567 AUH22252225+0400  MUC05050505+0100  77C                                                              EY  006                            F8J40Y280             000178
3 EY  0050901J27MAR2129OCT211234567 AUH22252225+0400  MUC05050505+0200  77C                                                              EY  006                            F8J40Y280             000179
3 EY  0051001J30OCT2125MAR221234567 AUH22252225+0400  MUC05050505+0100  77C                                                              EY  006                            F8J40Y280             000180
3 EY  0051101J26MAR2228OCT221234567 AUH22252225+0400  MUC05050505+0200  77C                                                              EY  006                            F8J40Y280             000181
3 EY  0051201J29OCT2224MAR231234567 AUH22252225+0400  MUC05050505+0100  77C                                                              EY  006                            F8J40Y280             000182
3 EY  0051301J25MAR2327OCT231234567 AUH22252225+0400  MUC05050505+0200  77C                                                              EY  006                            F8J40Y280             000183
3 EY  0051401J28OCT2330DEC231234567 AUH22252225+0400  MUC05050505+0100  77C                                                              EY  006                            F8J40Y280             000184
3 EY  0060101J01JAN1906JAN19 2 4 67 MUC09350935+0100  AUH15251525+0400  77C                                                              EY  470                            F8J40Y280             000185
3 EY  0060201J02JAN1904JAN19  3 5   MUC09350935+0100  AUH15251525+0400  77C                                                              EY  171                            F8J40Y280             000186
3 EY  0060301J07JAN1913JAN191234567 MUC09350935+0100  AUH15251525+0400  77C                                                              EY  470                            F8J40Y280             000187
3 EY  0060401J14JAN1919JAN191  4 6  MUC09350935+0100  AUH15251525+0400  77C                                                              EY  470                            F8J40Y280             000188
3 EY  0060501J15JAN1915JAN19 2      MUC09350935+0100  AUH15251525+0400  77C                                                              EY  005                            F8J40Y280             000189
3 EY  0060601J16JAN1930JAN19  3 5   MUC09350935+0100  AUH15251525+0400  77C                                                              EY  171                            F8J40Y280             000190
3 EY  0060701J20JAN1920JAN19      7 MUC09350935+0100  AUH15251525+0400  77C                                                              EY  450                            F8J40Y280             000191
3 EY  0060801J21JAN1926JAN1912 4 6  MUC09350935+0100  AUH15251525+0400  77C                                                              EY  470                            F8J40Y280             000192
3 EY  0060901J27JAN1903FEB19      7 MUC09350935+0100  AUH15251525+0400  77C                                                              EY  1711                           F8J40Y280             000193
3 EY  0061001J28JAN1902FEB1912 456  MUC09350935+0100  AUH15251525+0400  77C                                                              EY  470                            F8J40Y280             000194
3 EY  0061101J04FEB1930MAR1912 4 6  MUC09350935+0100  AUH15251525+0400  77C                                                              EY  470                            F8J40Y280             000195
3 EY  0061201J06FEB1929MAR19  3 5   MUC09350935+0100  AUH15251525+0400  77C                                                              EY  450                            F8J40Y280             000196
3 EY  0061301J10FEB1924MAR19      7 MUC09350935+0100  AUH15251525+0400  77C                                                              EY  4501                           F8J40Y280             000197
3 EY  0061401J31MAR1901JUN191234567 MUC10101010+0200  AUH16101610+0400  77C                                                              EY  470                            F8J40Y280             000198
3 EY  0061501J02JUN1909JUN19      7 MUC10101010+0200  AUH16101610+0400  33C                                                              EY  280                            J22Y240               000199
3 EY  0061601J03JUN1926OCT19123456  MUC10101010+0200  AUH16101610+0400  77C                                                              EY  470                            F8J40Y280             000200
3 EY  0061701J16JUN1916JUN19      7 MUC10101010+0200  AUH16101610+0400  33C                                                              EY  3152                           J22Y240               000201
3 EY  0061801J23JUN1923JUN19      7 MUC10101010+0200  AUH16101610+0400  33C                                                              EY  280                            J22Y240               000202
3 EY  0061901J30JUN1930JUN19      7 MUC10101010+0200  AUH16101610+0400  33C                                                              EY  274                            J22Y240               000203
3 EY  0062001J07JUL1928JUL19      7 MUC10101010+0200  AUH16101610+0400  33C                                                              EY  673                            J22Y240               000204
3 EY  0062101J04AUG1920OCT19      7 MUC10101010+0200  AUH16101610+0400  78E                                                              EY  274                            J28Y262               000205
3 EY  0062201J27OCT1927OCT19      7 MUC09350935+0100  AUH15251525+0400  77C                                                              EY  003                            F8J40Y280             000206
3 EY  0062301J28OCT1928OCT191       MUC09350935+0100  AUH15251525+0400  77C                                                              EY  171                            F8J40Y280             000207
3 EY  0062401J29OCT1928DEC1912 4 6  MUC09350935+0100  AUH15251525+0400  77C                                                              EY  470                            F8J40Y280             000208
3 EY  0062501J30OCT1927NOV19  3     MUC09350935+0100  AUH15251525+0400  77C                                                              EY  005                            F8J40Y280             000209
3 EY  0062601J01NOV1901NOV19    5   MUC09350935+0100  AUH15251525+0400  77C                                                              EY  206                            F8J40Y280             000210
3 EY  0062701J03NOV1929DEC19      7 MUC09350935+0100  AUH15251525+0400  77C                                                              EY  1711                           F8J40Y280             000211
3 EY  0062801J08NOV1922NOV19    5   MUC09350935+0100  AUH15251525+0400  77C                                                              EY  274                            F8J40Y280             000212
3 EY  0062901J29NOV1927DEC19    5   MUC09350935+0100  AUH15251525+0400  77C                                                              EY  171                            F8J40Y280             000213
3 EY  0063001J04DEC1918DEC19  3     MUC09350935+0100  AUH15251525+0400  77C                                                              EY  274                            F8J40Y280             000214
3 EY  0063101J25DEC1925DEC19  3     MUC09350935+0100  AUH15251525+0400  77C                                                              EY  005                            F8J40Y280             000215
3 EY  0063201J30DEC1928MAR201234567 MUC09350935+0100  AUH15251525+0400  77C                                                              EY  470                            F8J40Y280             000216
3 EY  0063301J29MAR2024OCT201234567 MUC09350935+0200  AUH15251525+0400  77C                                                              EY  470                            F8J40Y280             000217
3 EY  0063401J25OCT2031DEC201234567 MUC09350935+0100  AUH15251525+0400  77C                                                              EY  470                            F8J40Y280             000218
3 EY  0063501J01JAN2126MAR21  3 5   MUC09350935+0100  AUH15251525+0400  77C                                                              EY  171                            F8J40Y280             000219
3 EY  0063601J02JAN2125MAR2112 4 6  MUC09350935+0100  AUH15251525+0400  77C                                                              EY  001                            F8J40Y280             000220
3 EY  0063701J03JAN2121MAR21      7 MUC09350935+0100  AUH15251525+0400  77C                                                              EY  1711                           F8J40Y280             000221
3 EY  0063801J27MAR2127MAR21     6  MUC09350935+0100  AUH15251525+0400  77C                                                              EY  4701                           F8J40Y280             000222
3 EY  0063901J28MAR2128MAR21      7 MUC09350935+0200  AUH15251525+0400  77C                                                              EY  1711                           F8J40Y280             000223
3 EY  0064001J29MAR2121OCT2112 4    MUC09350935+0200  AUH15251525+0400  77C                                                              EY  001                            F8J40Y280             000224
3 EY  0064101J31MAR2129OCT21  3 56  MUC09350935+0200  AUH15251525+0400  77C                                                              EY  171                            F8J40Y280             000225
3 EY  0064201J04APR2124OCT21      7 MUC09350935+0200  AUH15251525+0400  77C                                                              EY  470                            F8J40Y280             000226
3 EY  0064301J25OCT2130OCT2112 4 6  MUC09350935+0200  AUH15251525+0400  77C                                                              EY  001                            F8J40Y280             000227
3 EY  0064401J31OCT2120MAR22      7 MUC09350935+0100  AUH15251525+0400  77C                                                              EY  1711                           F8J40Y280             000228
3 EY  0064501J01NOV2125DEC2112 4 6  MUC09350935+0100  AUH15251525+0400  77C                                                              EY  001                            F8J40Y280             000229
3 EY  0064601J03NOV2129DEC21  3 5   MUC09350935+0100  AUH15251525+0400  77C                                                              EY  171                            F8J40Y280             000230
3 EY  0064701J27DEC2101JAN2212 456  MUC09350935+0100  AUH15251525+0400  77C                                                              EY  001                            F8J40Y280             000231
3 EY  0064801J03JAN2224MAR2212 4 6  MUC09350935+0100  AUH15251525+0400  77C                                                              EY  001                            F8J40Y280             000232
3 EY  0064901J05JAN2225MAR22  3 5   MUC09350935+0100  AUH15251525+0400  77C                                                              EY  171                            F8J40Y280             000233
3 EY  0065001J26MAR2226MAR22     6  MUC09350935+0100  AUH15251525+0400  77C                                                              EY  4701                           F8J40Y280             000234
3 EY  0065101J27MAR2227MAR22      7 MUC09350935+0200  AUH15251525+0400  77C                                                              EY  1711                           F8J40Y280             000235
3 EY  0065201J28MAR2220OCT2212 4    MUC09350935+0200  AUH15251525+0400  77C                                                              EY  001                            F8J40Y280             000236
3 EY  0065301J30MAR2228OCT22  3 56  MUC09350935+0200  AUH15251525+0400  77C                                                              EY  171                            F8J40Y280             000237
3 EY  0065401J03APR2223OCT22      7 MUC09350935+0200  AUH15251525+0400  77C                                                              EY  470                            F8J40Y280             000238
3 EY  0065501J24OCT2229OCT2212 4 6  MUC09350935+0200  AUH15251525+0400  77C                                                              EY  001                            F8J40Y280             000239
3 EY  0065601J30OCT2219MAR23      7 MUC09350935+0100  AUH15251525+0400  77C                                                              EY  1711                           F8J40Y280             000240
3 EY  0065701J31OCT2223MAR2312 4 6  MUC09350935+0100  AUH15251525+0400  77C                                                              EY  001                            F8J40Y280             000241
3 EY  0065801J02NOV2224MAR23  3 5   MUC09350935+0100  AUH15251525+0400  77C                                                              EY  171                            F8J40Y280             000242
3 EY  0065901J25MAR2325MAR23     6  MUC09350935+0100  AUH15251525+0400  77C                                                              EY  4701                           F8J40Y280             000243
3 EY  0066001J26MAR2326MAR23      7 MUC09350935+0200  AUH15251525+0400  77C                                                              EY  1711                           F8J40Y280             000244
3 EY  0066101J27MAR2319OCT2312 4    MUC09350935+0200  AUH15251525+0400  77C                                                              EY  001                            F8J40Y280             000245
3 EY  0066201J29MAR2327OCT23  3 56  MUC09350935+0200  AUH15251525+0400  77C                                                              EY  171                            F8J40Y280             000246
3 EY  0066301J02APR2322OCT23      7 MUC09350935+0200  AUH15251525+0400  77C                                                              EY  470                            F8J40Y280             000247
3 EY  0066401J23OCT2328OCT2312 4 6  MUC09350935+0200  AUH15251525+0400  77C                                                              EY  001                            F8J40Y280             000248
3 EY  0066501J29OCT2324DEC23      7 MUC09350935+0100  AUH15251525+0400  77C                                                              EY  1711                           F8J40Y280             000249
3 EY  0066601J30OCT2330DEC2312 4 6  MUC09350935+0100  AUH15251525+0400  77C                                                              EY  001                            F8J40Y280             000250
3 EY  0066701J01NOV2329DEC23  3 5   MUC09350935+0100  AUH15251525+0400  77C                                                              EY  171                            F8J40Y280             000251
3 EY  0066801J31DEC2331DEC23      7 MUC09350935+0100  AUH15251525+0400  77C                                                                                                 F8J40Y280             000252
3 EY  0070101J01JAN1915JAN1912      AUH05050505+0400  FRA12251225+0100  78A                                                              EY  008                            F8J28Y199             000253
3 EY  0070201J02JAN1920JAN19  34567 AUH05050505+0400  FRA12251225+0100  77C                                                              EY  008                            F8J40Y280             000254
3 EY  0070301J21JAN1923JAN19123     AUH05050505+0400  FRA12251225+0100  77C                                                              EY  008                            F8J40Y280             000255
3 EY  0070401J24JAN1931JAN191234567 AUH05050505+0400  FRA12251225+0100  33C                                                              EY  008                            J22Y240               000256
3 EY  0070501J01FEB1901FEB19    5   AUH05050505+0400  FRA12251225+0100  77C                                                              EY  008                            F8J40Y280             000257
3 EY  0070601J02FEB1917FEB191234567 AUH05050505+0400  FRA12251225+0100  78B                                                              EY  008                            J28Y271               000258
3 EY  0070701J18FEB1924FEB19123 567 AUH05050505+0400  FRA12251225+0100  78B                                                              EY  008                            J28Y271               000259
3 EY  0070801J21FEB1921FEB19   4    AUH05050505+0400  FRA12251225+0100  77M                                                              EY  008                            J40Y330               000260
3 EY  0070901J25FEB1903MAR191234567 AUH05050505+0400  FRA12251225+0100  78B                                                              EY  008                            J28Y271               000261
3 EY  0071001J04MAR1910MAR19123 567 AUH05050505+0400  FRA12251225+0100  78B                                                              EY  008                            J28Y271               000262
3 EY  0071101J07MAR1907MAR19   4    AUH05050505+0400  FRA12251225+0100  77C                                                              EY  008                            F8J40Y280             000263
3 EY  0071201J11MAR1917MAR191234567 AUH05050505+0400  FRA12251225+0100  78B                                                              EY  008                            J28Y271               000264
3 EY  0071301J18MAR1930MAR1912 4567 AUH05050505+0400  FRA12251225+0100  78B                                                              EY  008                            J28Y271               000265
3 EY  0071401J20MAR1927MAR19  3     AUH05050505+0400  FRA12251225+0100  77M                                                              EY  008                            J40Y330               000266
3 EY  0071501J31MAR1930APR1912345 7 AUH05300530+0400  FRA12201220+0200  78B                                                              EY  008                            J28Y271               000267
3 EY  0071601J06APR1927APR19     6  AUH05300530+0400  FRA12201220+0200  77C                                                              EY  008                            F8J40Y280             000268
3 EY  0071701J01MAY1926MAY191234567 AUH05300530+0400  FRA12201220+0200  33A                                                              EY  008                            F8J32Y191             000269
3 EY  0071801J27MAY1919JUN191234567 AUH05300530+0400  FRA12201220+0200  77C                                                              EY  008                            F8J40Y280             000270
3 EY  0071901J20JUN1914JUL191234567 AUH05300530+0400  FRA12201220+0200  33C                                                              EY  008                            J22Y240               000271
3 EY  0072001J15JUL1912OCT191234567 AUH05300530+0400  FRA12201220+0200  77C                                                              EY  008                            F8J40Y280             000272
3 EY  0072101J13OCT1922OCT19 2    7 AUH05300530+0400  FRA12201220+0200  78D                                                              EY  008                            F8J28Y190             000273
3 EY  0072201J14OCT1925OCT191   5   AUH05300530+0400  FRA12201220+0200  77C                                                              EY  008                            F8J40Y280             000274
3 EY  0072301J16OCT1924OCT19  34    AUH05300530+0400  FRA12201220+0200  77M                                                              EY  008                            J40Y330               000275
3 EY  0072401J19OCT1926OCT19     6  AUH05300530+0400  FRA12201220+0200  78E                                                              EY  008                            J28Y262               000276
3 EY  0072501J27OCT1927OCT19      7 AUH05000500+0400  FRA12251225+0100  78D                                                              EY  008                            F8J28Y190             000277
3 EY  0072601J28OCT1903NOV191234567 AUH05000500+0400  FRA12251225+0100  77C                                                              EY  008                            F8J40Y280             000278
3 EY  0072701J04NOV1929DEC191  4567 AUH05000500+0400  FRA12251225+0100  77C                                                              EY  008                            F8J40Y280             000279
3 EY  0072801J05NOV1931DEC19 23     AUH05000500+0400  FRA12251225+0100  77M                                                              EY  008                            J40Y330               000280
3 EY  0072901J30DEC1905JAN201 34567 AUH05000500+0400  FRA12251225+0100  77C                                                              EY  008                            F8J40Y280             000281
3 EY  0073001J06JAN2028MAR201234567 AUH05000500+0400  FRA12251225+0100  77C                                                              EY  008                            F8J40Y280             000282
3 EY  0073101J29MAR2024OCT201234567 AUH05000500+0400  FRA12251225+0200  77C                                                              EY  008                            F8J40Y280             000283
3 EY  0073201J25OCT2027MAR211234567 AUH05000500+0400  FRA12251225+0100  77C                                                              EY  008                            F8J40Y280             000284
3 EY  0073301J28MAR2130OCT211234567 AUH05000500+0400  FRA12251225+0200  77C                                                              EY  008                            F8J40Y280             000285
3 EY  0073401J31OCT2126MAR221234567 AUH05000500+0400  FRA12251225+0100  77C                                                              EY  008                            F8J40Y280             000286
3 EY  0073501J27MAR2229OCT221234567 AUH05000500+0400  FRA12251225+0200  77C                                                              EY  008                            F8J40Y280             000287
3 EY  0073601J30OCT2225MAR231234567 AUH05000500+0400  FRA12251225+0100  77C                                                              EY  008                            F8J40Y280             000288
3 EY  0073701J26MAR2328OCT231234567 AUH05000500+0400  FRA12251225+0200  77C                                                              EY  008                            F8J40Y280             000289
3 EY  0073801J29OCT2331DEC231234567 AUH05000500+0400  FRA12251225+0100  77C                                                              EY  008                            F8J40Y280             000290
3 EY  0080101J01JAN1915JAN19 2      FRA20002000+0100  AUH02150215+0400  78A                                                              EY  131                            F8J28Y199             000291
3 EY  0080201J02JAN1905JAN19  3456  FRA20002000+0100  AUH02150215+0400  77C                                                              EY  007                            F8J40Y280             000292
3 EY  0080301J06JAN1913JAN19      7 FRA20002000+0100  AUH02150215+0400  77C                                                              EY  450                            F8J40Y280             000293
3 EY  0080401J07JAN1914JAN191       FRA20002000+0100  AUH02150215+0400  78A                                                              EY  007                            F8J28Y199             000294
3 EY  0080501J09JAN1912JAN19  34 6  FRA20002000+0100  AUH02150215+0400  77C                                                              EY  007                            F8J40Y280             000295
3 EY  0080601J11JAN1911JAN19    5   FRA20002000+0100  AUH02150215+0400  77C                                                              EY  003                            F8J40Y280             000296
3 EY  0080701J16JAN1922JAN191234567 FRA20002000+0100  AUH02150215+0400  77C                                                              EY  007                            F8J40Y280             000297
3 EY  0080801J23JAN1923JAN19  3     FRA20002000+0100  AUH02150215+0400  77C                                                                                                 F8J40Y280             000298
3 EY  0080901J24JAN1927JAN19   4  7 FRA20002000+0100  AUH02150215+0400  33C                                                              EY  007                            J22Y240               000299
3 EY  0081001J25JAN1930JAN19123 5   FRA20002000+0100  AUH02150215+0400  33C                                                              EY  083                            J22Y240               000300
3 EY  0081101J26JAN1926JAN19     6  FRA20002000+0100  AUH02150215+0400  33C                                                              EY  029                            J22Y240               000301
3 EY  0081201J31JAN1931JAN19   4    FRA20002000+0100  AUH02150215+0400  33C                                                              EY 9320                            J22Y240               000302
3 EY  0081301J01FEB1901FEB19    5   FRA20002000+0100  AUH02150215+0400  77C                                                              EY  0055                           F8J40Y280             000303
3 EY  0081401J02FEB1917FEB191234567 FRA20002000+0100  AUH02150215+0400  78B                                                              EY  007                            J28Y271               000304
3 EY  0081501J18FEB1924FEB1912   67 FRA20002000+0100  AUH02150215+0400  78B                                                              EY  007                            J28Y271               000305
3 EY  0081601J20FEB1920FEB19  3     FRA20002000+0100  AUH02150215+0400  78B                                                              EY  075                            J28Y271               000306
3 EY  0081701J21FEB1921FEB19   4    FRA20002000+0100  AUH02150215+0400  77M                                                              EY  141                            J40Y330               000307
3 EY  0081801J22FEB1922FEB19    5   FRA20002000+0100  AUH02150215+0400  78B                                                              EY  083                            J28Y271               000308
3 EY  0081901J25FEB1925FEB191       FRA20002000+0100  AUH02150215+0400  78B                                                              EY  878                            J28Y271               000309
3 EY  0082001J26FEB1903MAR19 234567 FRA20002000+0100  AUH02150215+0400  78B                                                              EY  007                            J28Y271               000310
3 EY  0082101J04MAR1910MAR1912  567 FRA20002000+0100  AUH02150215+0400  78B                                                              EY  007                            J28Y271               000311
3 EY  0082201J06MAR1906MAR19  3     FRA20002000+0100  AUH02150215+0400  78B                                                              EY  041                            J28Y271               000312
3 EY  0082301J07MAR1907MAR19   4    FRA20002000+0100  AUH02150215+0400  77C                                                              EY  0293                           F8J40Y280             000313
3 EY  0082401J11MAR1918MAR19123     FRA20002000+0100  AUH02150215+0400  78B                                                              EY  007                            J28Y271               000314
3 EY  0082501J14MAR1917MAR19   4567 FRA20002000+0100  AUH02150215+0400  78B                                                              EY  083                            J28Y271               000315
3 EY  0082601J19MAR1926MAR19 2  5   FRA20002000+0100  AUH02150215+0400  78B                                                              EY  513                            J28Y271               000316
3 EY  0082701J20MAR1920MAR19  3     FRA20002000+0100  AUH02150215+0400  77M                                                              EY  206                            J40Y330               000317
3 EY  0082801J21MAR1924MAR19   4 67 FRA20002000+0100  AUH02150215+0400  78B                                                              EY  083                            J28Y271               000318
3 EY  0082901J25MAR1925MAR191       FRA20002000+0100  AUH02150215+0400  78B                                                              EY  007                            J28Y271               000319
3 EY  0083001J27MAR1927MAR19  3     FRA20002000+0100  AUH02150215+0400  77M                                                              EY  317                            J40Y330               000320
3 EY  0083101J28MAR1929MAR19   45   FRA20002000+0100  AUH02150215+0400  78B                                                              EY  083                            J28Y271               000321
3 EY  0083201J30MAR1930MAR19     6  FRA20002000+0100  AUH02150215+0400  78B                                                              EY  430                            J28Y271               000322
3 EY  0083301J31MAR1907APR19  345 7 FRA19451945+0200  AUH02100210+0400  78B                                                              EY  513                            J28Y271               000323
3 EY  0083401J01APR1902APR1912      FRA19451945+0200  AUH02100210+0400  78B                                                              EY  007                            J28Y271               000324
3 EY  0083501J06APR1927APR19     6  FRA19451945+0200  AUH02100210+0400  77C                                                              EY  003                            F8J40Y280             000325
3 EY  0083601J08APR1912APR1912345   FRA19451945+0200  AUH02100210+0400  78B                                                              EY  513                            J28Y271               000326
3 EY  0083701J14APR1914APR19      7 FRA19451945+0200  AUH02100210+0400  78B                                                              EY  021                            J28Y271               000327
3 EY  0083801J15APR1929APR191234  7 FRA19451945+0200  AUH02100210+0400  78B                                                              EY  007                            J28Y271               000328
3 EY  0083901J19APR1926APR19    5   FRA19451945+0200  AUH02100210+0400  78B                                                              EY  029                            J28Y271               000329
3 EY  0084001J30APR1930APR19 2      FRA19451945+0200  AUH02100210+0400  78B                                                              EY  023                            J28Y271               000330
3 EY  0084101J01MAY1925MAY191234567 FRA19451945+0200  AUH02100210+0400  33A                                                              EY  007                            F8J32Y191             000331
3 EY  0084201J26MAY1926MAY19      7 FRA19451945+0200  AUH02100210+0400  33A                                                                                                 F8J32Y191             000332
3 EY  0084301J27MAY1918JUN191234567 FRA19451945+0200  AUH02100210+0400  77C                                                              EY  007                            F8J40Y280             000333
3 EY  0084401J19JUN1919JUN19  3     FRA19451945+0200  AUH02100210+0400  77C                                                              EY  613                            F8J40Y280             000334
3 EY  0084501J20JUN1923JUN19   4 67 FRA19451945+0200  AUH02100210+0400  33C                                                              EY  007                            J22Y240               000335
3 EY  0084601J21JUN1921JUN19    5   FRA19451945+0200  AUH02100210+0400  33C                                                              EY  472                            J22Y240               000336
3 EY  0084701J24JUN1930JUN1912345 7 FRA19451945+0200  AUH02100210+0400  33C                                                              EY  007                            J22Y240               000337
3 EY  0084801J29JUN1929JUN19     6  FRA19451945+0200  AUH02100210+0400  33C                                                              EY  673                            J22Y240               000338
3 EY  0084901J01JUL1913JUL191234567 FRA19451945+0200  AUH02100210+0400  33C                                                              EY  007                            J22Y240               000339
3 EY  0085001J14JUL1914JUL19      7 FRA19451945+0200  AUH02100210+0400  33C                                                                                                 J22Y240               000340
3 EY  0085101J15JUL1910OCT191234567 FRA19451945+0200  AUH02100210+0400  77C                                                              EY  007                            F8J40Y280             000341
3 EY  0085201J11OCT1911OCT19    5   FRA19451945+0200  AUH02100210+0400  77C                                                              EY  003                            F8J40Y280             000342
3 EY  0085301J12OCT1912OCT19     6  FRA19451945+0200  AUH02100210+0400  77C                                                              EY  450                            F8J40Y280             000343
3 EY  0085401J13OCT1922OCT19 2    7 FRA19451945+0200  AUH02100210+0400  78D                                                              EY  131                            F8J28Y190             000344
3 EY  0085501J14OCT1925OCT191   5   FRA19451945+0200  AUH02100210+0400  77C                                                              EY  171                            F8J40Y280             000345
3 EY  0085601J16OCT1923OCT19  3     FRA19451945+0200  AUH02100210+0400  77M                                                              EY  007                            J40Y330               000346
3 EY  0085701J17OCT1924OCT19   4    FRA19451945+0200  AUH02100210+0400  77M                                                              EY  141                            J40Y330               000347
3 EY  0085801J19OCT1919OCT19     6  FRA19451945+0200  AUH02100210+0400  78E                                                              EY  513                            J28Y262               000348
3 EY  0085901J26OCT1926OCT19     6  FRA19451945+0200  AUH02100210+0400  78E                                                              EY  472                            J28Y262               000349
3 EY  0086001J27OCT1927OCT19      7 FRA20002000+0100  AUH02150215+0400  78D                                                              EY  131                            F8J28Y190             000350
3 EY  0086101J28OCT1903NOV191234567 FRA20002000+0100  AUH02150215+0400  77C                                                              EY  007                            F8J40Y280             000351
3 EY  0086201J04NOV1923DEC191       FRA20002000+0100  AUH02150215+0400  77C                                                              EY  450                            F8J40Y280             000352
3 EY  0086301J05NOV1924DEC19 2      FRA20002000+0100  AUH02150215+0400  77M                                                              EY  007                            J40Y330               000353
3 EY  0086401J06NOV1925DEC19  3     FRA20002000+0100  AUH02150215+0400  77M                                                              EY  141                            J40Y330               000354
3 EY  0086501J07NOV1924NOV19   4 67 FRA20002000+0100  AUH02150215+0400  77C                                                              EY  007                            F8J40Y280             000355
3 EY  0086601J08NOV1922NOV19    5   FRA20002000+0100  AUH02150215+0400  77C                                                              EY  171                            F8J40Y280             000356
3 EY  0086701J28NOV1929DEC19   4567 FRA20002000+0100  AUH02150215+0400  77C                                                              EY  007                            F8J40Y280             000357
3 EY  0086801J30DEC1930DEC191       FRA20002000+0100  AUH02150215+0400  77C                                                              EY  0071                           F8J40Y280             000358
3 EY  0086901J31DEC1931DEC19 2      FRA20002000+0100  AUH02150215+0400  77M                                                              EY  045                            J40Y330               000359
3 EY  0087001J01JAN2028MAR20123456  FRA20002000+0100  AUH02150215+0400  77C                                                              EY  007                            F8J40Y280             000360
3 EY  0087101J05JAN2022MAR20      7 FRA20002000+0100  AUH02150215+0400  77C                                                              EY  003                            F8J40Y280             000361
3 EY  0087201J29MAR2024OCT201234567 FRA20002000+0200  AUH02150215+0400  77C                                                              EY  007                            F8J40Y280             000362
3 EY  0087301J25OCT2027DEC20      7 FRA20002000+0100  AUH02150215+0400  77C                                                              EY  003                            F8J40Y280             000363
3 EY  0087401J26OCT2031DEC20123456  FRA20002000+0100  AUH02150215+0400  77C                                                              EY  007                            F8J40Y280             000364
3 EY  0087501J01JAN2127MAR211234567 FRA20002000+0100  AUH02150215+0400  77C                                                              EY  003                            F8J40Y280             000365
3 EY  0087601J28MAR2130OCT211234567 FRA20002000+0200  AUH02150215+0400  77C                                                              EY  003                            F8J40Y280             000366
3 EY  0087701J31OCT2126DEC211234567 FRA20002000+0100  AUH02150215+0400  77C                                                              EY  003                            F8J40Y280             000367
3 EY  0087801J27DEC2102JAN221234 67 FRA20002000+0100  AUH02150215+0400  77C                                                              EY  003                            F8J40Y280             000368
3 EY  0087901J31DEC2131DEC21    5   FRA20002000+0100  AUH02150215+0400  77C                                                              EY  007                            F8J40Y280             000369
3 EY  0088001J03JAN2226MAR221234567 FRA20002000+0100  AUH02150215+0400  77C                                                              EY  003                            F8J40Y280             000370
3 EY  0088101J27MAR2229OCT221234567 FRA20002000+0200  AUH02150215+0400  77C                                                              EY  003                            F8J40Y280             000371
3 EY  0088201J30OCT2225DEC221234567 FRA20002000+0100  AUH02150215+0400  77C                                                              EY  003                            F8J40Y280             000372
3 EY  0088301J26DEC2201JAN2312345 7 FRA20002000+0100  AUH02150215+0400  77C                                                              EY  003                            F8J40Y280             000373
3 EY  0088401J31DEC2231DEC22     6  FRA20002000+0100  AUH02150215+0400  77C                                                              EY  007                            F8J40Y280             000374
3 EY  0088501J02JAN2325MAR231234567 FRA20002000+0100  AUH02150215+0400  77C                                                              EY  003                            F8J40Y280             000375
3 EY  0088601J26MAR2328OCT231234567 FRA20002000+0200  AUH02150215+0400  77C                                                              EY  003                            F8J40Y280             000376
3 EY  0088701J29OCT2330DEC231234567 FRA20002000+0100  AUH02150215+0400  77C                                                              EY  003                            F8J40Y280             000377
3 EY  0088801J31DEC2331DEC23      7 FRA20002000+0100  AUH02150215+0400  77C                                                                                                 F8J40Y280             000378
3 EY  0110101J01JAN1929MAR191234567 AUH22352235+0400  LHR06450645+0000  38B                                                              EY  012                            F11J70Y405            000379
3 EY  0110201J30MAR1925OCT191234567 AUH22502250+0400  LHR06300630+0100  38B                                                              EY  012                            F11J70Y405            000380
3 EY  0110301J26OCT1927MAR201234567 AUH22352235+0400  LHR06450645+0000  38B                                                              EY  012                            F11J70Y405            000381
3 EY  0110401J28MAR2023OCT201234567 AUH22352235+0400  LHR06450645+0100  38B                                                              EY  012                            F11J70Y405            000382
3 EY  0110501J24OCT2026MAR211234567 AUH22352235+0400  LHR06450645+0000  38B                                                              EY  012                            F11J70Y405            000383
3 EY  0110601J27MAR2129OCT211234567 AUH22352235+0400  LHR06450645+0100  38B                                                              EY  012                            F11J70Y405            000384
3 EY  0110701J30OCT2125MAR221234567 AUH22352235+0400  LHR06450645+0000  38B                                                              EY  012                            F11J70Y405            000385
3 EY  0110801J26MAR2228OCT221234567 AUH22352235+0400  LHR06450645+0100  38B                                                              EY  012                            F11J70Y405            000386
3 EY  0110901J29OCT2224MAR231234567 AUH22352235+0400  LHR06450645+0000  38B                                                              EY  012                            F11J70Y405            000387
3 EY  0111001J25MAR2327OCT231234567 AUH22352235+0400  LHR06450645+0100  38B                                                              EY  012                            F11J70Y405            000388
3 EY  0111101J28OCT2330DEC231234567 AUH22352235+0400  LHR06450645+0000  38B                                                              EY  012                            F11J70Y405            000389
3 EY  0120101J01JAN1905JAN19 23456  LHR09000900+0000  AUH15551555+0400  38B                                                              EY  454                            F11J70Y405            000390
3 EY  0120201J06JAN1914JAN191234567 LHR09000900+0000  AUH15551555+0400  38B                                                              EY  011                            F11J70Y405            000391
3 EY  0120301J15JAN1929MAR19 234567 LHR09000900+0000  AUH15551555+0400  38B                                                              EY  454                            F11J70Y405            000392
3 EY  0120401J21JAN1921JAN191       LHR09000900+0000  AUH15551555+0400  38B                                                              EY  450                            F11J70Y405            000393
3 EY  0120501J28JAN1928JAN191       LHR09000900+0000  AUH15551555+0400  38B                                                              EY  011                            F11J70Y405            000394
3 EY  0120601J04FEB1904FEB191       LHR09000900+0000  AUH15551555+0400  38B                                                              EY  450                            F11J70Y405            000395
3 EY  0120701J11FEB1925MAR191       LHR09000900+0000  AUH15551555+0400  38B                                                              EY  011                            F11J70Y405            000396
3 EY  0120801J30MAR1930MAR19     6  LHR09000900+0000  AUH15551555+0400  38B                                                              EY  450                            F11J70Y405            000397
3 EY  0120901J31MAR1915APR1912 4567 LHR08350835+0100  AUH15501550+0400  38B                                                              EY  454                            F11J70Y405            000398
3 EY  0121001J03APR1910APR19  3     LHR08350835+0100  AUH15501550+0400  38B                                                              EY  011                            F11J70Y405            000399
3 EY  0121101J16APR1901JUN191234567 LHR08350835+0100  AUH15501550+0400  38B                                                              EY  011                            F11J70Y405            000400
3 EY  0121201J02JUN1903JUN191     7 LHR08350835+0100  AUH15501550+0400  38B                                                              EY  454                            F11J70Y405            000401
3 EY  0121301J04JUN1926OCT191234567 LHR08350835+0100  AUH15501550+0400  38B                                                              EY  011                            F11J70Y405            000402
3 EY  0121401J27OCT1927OCT19      7 LHR09000900+0000  AUH15551555+0400  38B                                                              EY  031                            F11J70Y405            000403
3 EY  0121501J28OCT1930DEC191       LHR09000900+0000  AUH15551555+0400  38B                                                              EY  454                            F11J70Y405            000404
3 EY  0121601J29OCT1929DEC19 234567 LHR09000900+0000  AUH15551555+0400  38B                                                              EY  011                            F11J70Y405            000405
3 EY  0121701J31DEC1931DEC19 2      LHR09000900+0000  AUH15551555+0400  38B                                                              EY  031                            F11J70Y405            000406
3 EY  0121801J01JAN2028MAR201234567 LHR09000900+0000  AUH15551555+0400  38B                                                              EY  011                            F11J70Y405            000407
3 EY  0121901J29MAR2024OCT201234567 LHR09000900+0100  AUH15551555+0400  38B                                                              EY  011                            F11J70Y405            000408
3 EY  0122001J25OCT2030DEC201234567 LHR09000900+0000  AUH15551555+0400  38B                                                              EY  011                            F11J70Y405            000409
3 EY  0122101J31DEC2031DEC20   4    LHR09000900+0000  AUH15551555+0400  38B                                                              EY  031                            F11J70Y405            000410
3 EY  0122201J01JAN2127MAR211234567 LHR09000900+0000  AUH15551555+0400  38B                                                              EY  454                            F11J70Y405            000411
3 EY  0122301J28MAR2130OCT211234567 LHR09000900+0100  AUH15551555+0400  38B                                                              EY  454                            F11J70Y405            000412
3 EY  0122401J31OCT2126MAR221234567 LHR09000900+0000  AUH15551555+0400  38B                                                              EY  454                            F11J70Y405            000413
3 EY  0122501J27MAR2229OCT221234567 LHR09000900+0100  AUH15551555+0400  38B                                                              EY  454                            F11J70Y405            000414
3 EY  0122601J30OCT2225MAR231234567 LHR09000900+0000  AUH15551555+0400  38B                                                              EY  454                            F11J70Y405            000415
3 EY  0122701J26MAR2328OCT231234567 LHR09000900+0100  AUH15551555+0400  38B                                                              EY  454                            F11J70Y405            000416
3 EY  0122801J29OCT2331DEC231234567 LHR09000900+0000  AUH15551555+0400  38B                                                              EY  454                            F11J70Y405            000417
3 EY  0130101J31JAN2027MAR201234567 AUH22002200+0400  LHR06100610+0000  78E                                                              EY  014                            J28Y262               000418
3 EY  0130201J28MAR2023OCT201234567 AUH22002200+0400  LHR06100610+0100  78E                                                              EY  014                            J28Y262               000419
3 EY  0130301J24OCT2026MAR211234567 AUH22002200+0400  LHR06100610+0000  78E                                                              EY  014                            J28Y262               000420
3 EY  0130401J27MAR2129OCT211234567 AUH22002200+0400  LHR06100610+0100  78E                                                              EY  014                            J28Y262               000421
3 EY  0130501J30OCT2125MAR221234567 AUH22002200+0400  LHR06100610+0000  78E                                                              EY  014                            J28Y262               000422
3 EY  0130601J26MAR2228OCT221234567 AUH22002200+0400  LHR06100610+0100  78E                                                              EY  014                            J28Y262               000423
3 EY  0130701J29OCT2224MAR231234567 AUH22002200+0400  LHR06100610+0000  78E                                                              EY  014                            J28Y262               000424
3 EY  0130801J25MAR2327OCT231234567 AUH22002200+0400  LHR06100610+0100  78E                                                              EY  014                            J28Y262               000425
3 EY  0130901J28OCT2330DEC231234567 AUH22002200+0400  LHR06100610+0000  78E                                                              EY  014                            J28Y262               000426
3 EY  0140101J01FEB2028MAR201234567 LHR09000900+0000  AUH15551555+0400  78E                                                              EY  216                            J28Y262               000427
3 EY  0140201J29MAR2018OCT20      7 LHR09000900+0100  AUH15551555+0400  78E                                                              EY  402                            J28Y262               000428
3 EY  0140301J30MAR2024OCT20123456  LHR09000900+0100  AUH15551555+0400  78E                                                              EY  216                            J28Y262               000429
3 EY  0140401J25OCT2027MAR211234567 LHR09000900+0000  AUH15551555+0400  78E                                                              EY  216                            J28Y262               000430
3 EY  0140501J28MAR2124OCT21      7 LHR09000900+0100  AUH15551555+0400  78E                                                              EY  402                            J28Y262               000431
3 EY  0140601J29MAR2130OCT21123456  LHR09000900+0100  AUH15551555+0400  78E                                                              EY  216                            J28Y262               000432
3 EY  0140701J31OCT2126MAR221234567 LHR09000900+0000  AUH15551555+0400  78E                                                              EY  216                            J28Y262               000433
3 EY  0140801J27MAR2223OCT22      7 LHR09000900+0100  AUH15551555+0400  78E                                                              EY  402                            J28Y262               000434
3 EY  0140901J28MAR2229OCT22123456  LHR09000900+0100  AUH15551555+0400  78E                                                              EY  216                            J28Y262               000435
3 EY  0141001J30OCT2228FEB231234567 LHR09000900+0000  AUH15551555+0400  78E                                                              EY  216                            J28Y262               000436
3 EY  0141101J01MAR2324MAR2312345 7 LHR09000900+0000  AUH15551555+0400  78E                                                              EY  402                            J28Y262               000437
3 EY  0141201J04MAR2325MAR23     6  LHR09000900+0000  AUH15551555+0400  78E                                                              EY  834                            J28Y262               000438
3 EY  0141301J26MAR2325JUN23     67 LHR09000900+0100  AUH15551555+0400  78E                                                              EY  834                            J28Y262               000439
3 EY  0141401J27MAR2327OCT2312345   LHR09000900+0100  AUH15551555+0400  78E                                                              EY  402                            J28Y262               000440
3 EY  0141501J01JUL2328OCT23     6  LHR09000900+0100  AUH15551555+0400  78E                                                              EY  878                            J28Y262               000441
3 EY  0141601J02JUL2322OCT23      7 LHR09000900+0100  AUH15551555+0400  78E                                                              EY  834                            J28Y262               000442
3 EY  0141701J29OCT2331DEC2312345 7 LHR09000900+0000  AUH15551555+0400  78E                                                              EY  402                            J28Y262               000443
3 EY  0141801J04NOV2330DEC23     6  LHR09000900+0000  AUH15551555+0400  78E                                                              EY  834                            J28Y262               000444
3 EY  0150101J01JAN1929MAR191234567 AUH22352235+0400  MAN06400640+0000  78B                                                              EY  016                            J28Y271               000445
3 EY  0150201J30MAR1930MAR19     6  AUH22352235+0400  MAN06150615+0100  78B                                                              EY  016                            J28Y271               000446
3 EY  0150301J31MAR1925OCT191234567 AUH22352235+0400  MAN06150615+0100  78C                                                              EY  016                            J32Y304               000447
3 EY  0150401J26OCT1927MAR201234567 AUH22352235+0400  MAN06400640+0000  78C                                                              EY  016                            J32Y304               000448
3 EY  0150501J28MAR2023OCT201234567 AUH22352235+0400  MAN06400640+0100  78C                                                              EY  016                            J32Y304               000449
3 EY  0150601J24OCT2026MAR211234567 AUH22352235+0400  MAN06400640+0000  78C                                                              EY  016                            J32Y304               000450
3 EY  0150701J27MAR2129OCT211234567 AUH22352235+0400  MAN06400640+0100  78C                                                              EY  016                            J32Y304               000451
3 EY  0150801J30OCT2125MAR221234567 AUH22352235+0400  MAN06400640+0000  78C                                                              EY  016                            J32Y304               000452
3 EY  0150901J26MAR2228OCT221234567 AUH22352235+0400  MAN06400640+0100  78C                                                              EY  016                            J32Y304               000453
3 EY  0151001J29OCT2224MAR231234567 AUH22352235+0400  MAN06400640+0000  78C                                                              EY  016                            J32Y304               000454
3 EY  0151101J25MAR2327OCT231234567 AUH22352235+0400  MAN06400640+0100  78C                                                              EY  016                            J32Y304               000455
3 EY  0151201J28OCT2330DEC231234567 AUH22352235+0400  MAN06400640+0000  78C                                                              EY  016                            J32Y304               000456
3 EY  0160101J01JAN1905JAN19 2   6  MAN08100810+0000  AUH15001500+0400  78B                                                              EY  878                            J28Y271               000457
3 EY  0160201J02JAN1904JAN19  345   MAN08100810+0000  AUH15001500+0400  78B                                                              EY  484                            J28Y271               000458
3 EY  0160301J06JAN1908JAN19 2    7 MAN08100810+0000  AUH15001500+0400  78B                                                              EY  015                            J28Y271               000459
3 EY  0160401J07JAN1913JAN191   5 7 MAN08100810+0000  AUH15001500+0400  78B                                                              EY  460                            J28Y271               000460
3 EY  0160501J09JAN1909JAN19  3     MAN08100810+0000  AUH15001500+0400  78B                                                              EY  085                            J28Y271               000461
3 EY  0160601J10JAN1914JAN191  4 6  MAN08100810+0000  AUH15001500+0400  78B                                                              EY  430                            J28Y271               000462
3 EY  0160701J15JAN1915JAN19 2      MAN08100810+0000  AUH15001500+0400  78B                                                              EY  462                            J28Y271               000463
3 EY  0160801J16JAN1922JAN19 2345   MAN08100810+0000  AUH15001500+0400  78B                                                              EY  484                            J28Y271               000464
3 EY  0160901J19JAN1921JAN191    6  MAN08100810+0000  AUH15001500+0400  78B                                                              EY  878                            J28Y271               000465
3 EY  0161001J20JAN1920JAN19      7 MAN08100810+0000  AUH15001500+0400  78B                                                              EY  317                            J28Y271               000466
3 EY  0161101J23JAN1929JAN191234567 MAN08100810+0000  AUH15001500+0400  78B                                                              EY  460                            J28Y271               000467
3 EY  0161201J30JAN1910FEB191234567 MAN08100810+0000  AUH15001500+0400  78B                                                              EY  015                            J28Y271               000468
3 EY  0161301J11FEB1917FEB19123 567 MAN08100810+0000  AUH15001500+0400  78B                                                              EY  015                            J28Y271               000469
3 EY  0161401J14FEB1914FEB19   4    MAN08100810+0000  AUH15001500+0400  78B                                                              EY  406                            J28Y271               000470
3 EY  0161501J18FEB1914MAR191234567 MAN08100810+0000  AUH15001500+0400  78B                                                              EY  015                            J28Y271               000471
3 EY  0161601J15MAR1917MAR19    567 MAN08100810+0000  AUH15001500+0400  78B                                                              EY  057                            J28Y271               000472
3 EY  0161701J18MAR1925MAR191       MAN08100810+0000  AUH15001500+0400  78B                                                              EY  317                            J28Y271               000473
3 EY  0161801J19MAR1927MAR19 23  6  MAN08100810+0000  AUH15001500+0400  78B                                                              EY  085                            J28Y271               000474
3 EY  0161901J21MAR1924MAR19   45 7 MAN08100810+0000  AUH15001500+0400  78B                                                              EY  057                            J28Y271               000475
3 EY  0162001J28MAR1930MAR19   456  MAN08100810+0000  AUH15001500+0400  78B                                                              EY  057                            J28Y271               000476
3 EY  0162101J31MAR1931MAR19      7 MAN08050805+0100  AUH15201520+0400  78B                                                              EY  418                            J28Y271               000477
3 EY  0162201J01APR1907APR191234567 MAN08050805+0100  AUH15201520+0400  78C                                                              EY  015                            J32Y304               000478
3 EY  0162301J08APR1913APR191234 6  MAN08050805+0100  AUH15201520+0400  78C                                                              EY  015                            J32Y304               000479
3 EY  0162401J12APR1914APR19    5 7 MAN08050805+0100  AUH15201520+0400  78C                                                              EY  876                            J32Y304               000480
3 EY  0162501J15APR1901SEP191234567 MAN08050805+0100  AUH15201520+0400  78C                                                              EY  015                            J32Y304               000481
3 EY  0162601J02SEP1908SEP1912 4567 MAN08050805+0100  AUH15201520+0400  78C                                                              EY  015                            J32Y304               000482
3 EY  0162701J04SEP1904SEP19  3     MAN08050805+0100  AUH15201520+0400  78C                                                              EY  888                            J32Y304               000483
3 EY  0162801J09SEP1926OCT191234567 MAN08050805+0100  AUH15201520+0400  78C                                                              EY  015                            J32Y304               000484
3 EY  0162901J27OCT1904JAN201234567 MAN08100810+0000  AUH15001500+0400  78C                                                              EY  015                            J32Y304               000485
3 EY  0163001J05JAN2022MAR20      7 MAN08100810+0000  AUH15001500+0400  78C                                                              EY  085                            J32Y304               000486
3 EY  0163101J06JAN2028MAR20123456  MAN08100810+0000  AUH15001500+0400  78C                                                              EY  015                            J32Y304               000487
3 EY  0163201J29MAR2024OCT201234567 MAN08100810+0100  AUH15001500+0400  78C                                                              EY  015                            J32Y304               000488
3 EY  0163301J25OCT2027DEC20      7 MAN08100810+0000  AUH15001500+0400  78C                                                              EY  085                            J32Y304               000489
