1AIRLINE STANDARD SCHEDULE DATA SET                                                                                                                                                            001000001
00000000000000000000000000000000000000000000000000000000000000000000000000000000000000000000000000000000000000000000000000000000000000000000000000000000000000000000000000000000000000000000000000000000
00000000000000000000000000000000000000000000000000000000000000000000000000000000000000000000000000000000000000000000000000000000000000000000000000000000000000000000000000000000000000000000000000000000
00000000000000000000000000000000000000000000000000000000000000000000000000000000000000000000000000000000000000000000000000000000000000000000000000000000000000000000000000000000000000000000000000000000
00000000000000000000000000000000000000000000000000000000000000000000000000000000000000000000000000000000000000000000000000000000000000000000000000000000000000000000000000000000000000000000000000000000
2UEY  0008    01JAN2501JAN2621MAY20Created by Sabre Airflite           PCreated by Sabre AirFlite                                                                                           EN1247000002
00000000000000000000000000000000000000000000000000000000000000000000000000000000000000000000000000000000000000000000000000000000000000000000000000000000000000000000000000000000000000000000000000000000
00000000000000000000000000000000000000000000000000000000000000000000000000000000000000000000000000000000000000000000000000000000000000000000000000000000000000000000000000000000000000000000000000000000
00000000000000000000000000000000000000000000000000000000000000000000000000000000000000000000000000000000000000000000000000000000000000000000000000000000000000000000000000000000000000000000000000000000
00000000000000000000000000000000000000000000000000000000000000000000000000000000000000000000000000000000000000000000000000000000000000000000000000000000000000000000000000000000000000000000000000000000
3 EY  0010101J01JAN2502MAR251234567 AUH22302230+0400  FRA05350535+0100  78E                                                              EY  002                            J28Y262               000003
3 EY  0010201J03MAR2524MAR251       AUH22302230+0400  FRA05350535+0100  78H                                                              EY  002                            J32Y271               000004
3 EY  0010301J04MAR2528MAR25 234567 AUH22302230+0400  FRA05350535+0100  78E                                                              EY  002                            J28Y262               000005
3 EY  0010401J29MAR2524OCT25 234567 AUH22302230+0400  FRA05350535+0200  78E                                                              EY  002                            J28Y262               000006
3 EY  0020101J01JAN2502MAR251234567 FRA09500950+0100  AUH16001600+0400  78E                                                              EY  001                            J28Y262               000010
3 EY  0020201J03MAR2524MAR251       FRA09500950+0100  AUH16001600+0400  78E                                                              EY  023                            J28Y262               000011
3 EY  0020301J04MAR2525MAR25 2      FRA09500950+0100  AUH16001600+0400  78H                                                              EY  862                            J32Y271               000012
3 EY  0020401J05MAR2529MAR25  34567 FRA09500950+0100  AUH16001600+0400  78E                                                              EY  001                            J28Y262               000013
3 EY  0020501J30MAR2524OCT25  34567 FRA09500950+0200  AUH16001600+0400  78E                                                              EY  001                            J28Y262               000014
3 EY  0020601J31MAR2520OCT251       FRA09500950+0200  AUH16001600+0400  78E                                                              EY  023                            J28Y262               000015
3 EY  0020701J01APR2521OCT25 2      FRA09500950+0200  AUH16001600+0400  78H                                                              EY  862                            J32Y271               000016
3 EY  0020801J25OCT2525OCT25     6  FRA09500950+0200  AUH16001600+0400  78E                                                              EY  081                            J28Y262               000017
3 EY  0020901J26OCT2501JAN26  34567 FRA09500950+0100  AUH16001600+0400  78E                                                              EY  001                            J28Y262               000018
3 EY  0021001J27OCT2529DEC251       FRA09500950+0100  AUH16001600+0400  78E                                                              EY  023                            J28Y262               000019
3 EY  0021101J28OCT2530DEC25 2      FRA09500950+0100  AUH16001600+0400  78H                                                              EY  862                            J32Y271               000020
3 EY  0030101J01JAN2529MAR251234567 AUH05200550+0400  MUC11551155+0100  78E                                                              EY  004                            J28Y262               000021
3 EY  0030201J30MAR2525OCT251234567 AUH05200520+0400  MUC11551155+0200  78E                                                              EY  004                            J28Y262               000022
3 EY  0030301J26OCT2501JAN261234567 AUH05200520+0400  MUC11551155+0100  78E                                                              EY  004                            J28Y262               000023
3 EY  0040101J01JAN2529MAR251234567 MUC20402040+0100  AUH02450245+0400  78E                                                              EY  003                            J28Y262               000024
3 EY  0040201J30MAR2525OCT251234567 MUC20402040+0200  AUH02450245+0400  78E                                                              EY  003                            J28Y262               000025
3 EY  0040301J26OCT2501JAN261234567 MUC20402040+0100  AUH02450245+0400  78E                                                              EY  003                            J28Y262               000026
3 EY  0050101J01JAN2527FEB251234567 AUH22402240+0400  MUC05150515+0100  78H                                                              EY  006                            J32Y271               000027
3 EY  0050201J28FEB2528MAR251234567 AUH22402240+0400  MUC05150515+0100  78J                                                              EY  006                            J32Y295               000028
3 EY  0050301J29MAR2524OCT251234567 AUH22402240+0400  MUC05150515+0200  78J                                                              EY  006                            J32Y295               000029
3 EY  0050401J25OCT2501JAN261234567 AUH22402240+0400  MUC05150515+0100  78J                                                              EY  006                            J32Y295               000030
3 EY  0060101J01JAN2528FEB251234567 MUC09400940+0100  AUH15251525+0400  78H                                                              EY  862                            J32Y271               000031
3 EY  0060201J01MAR2529MAR251234567 MUC09400940+0100  AUH15251525+0400  78J                                                              EY  005                            J32Y295               000032
3 EY  0060301J30MAR2525OCT251234567 MUC09400940+0200  AUH15251525+0400  78J                                                              EY  005                            J32Y295               000033
3 EY  0060401J26OCT2501JAN261234567 MUC09400940+0100  AUH15251525+0400  78J                                                              EY  005                            J32Y295               000034
3 EY  0070101J01JAN2529MAR251234567 AUH05050505+0400  FRA12001200+0100  78E                                                              EY  008                            J28Y262               000035
3 EY  0070201J30MAR2525OCT251234567 AUH05050505+0400  FRA12001200+0200  78E                                                              EY  008                            J28Y262               000036
3 EY  0070301J26OCT2501JAN261234567 AUH05050505+0400  FRA12001200+0100  78E                                                              EY  008                            J28Y262               000037
3 EY  0080101J01JAN2529MAR251234567 FRA19551955+0100  AUH02050205+0400  78E                                                              EY  007                            J28Y262               000038
3 EY  0080201J30MAR2525OCT251234567 FRA19551955+0200  AUH02050205+0400  78E                                                              EY  007                            J28Y262               000039
3 EY  0080301J26OCT2501JAN261234567 FRA19551955+0100  AUH02050205+0400  78E                                                              EY  007                            J28Y262               000040
3 EY  0110101J01JAN2528MAR251234567 AUH22402240+0400  LHR06450645+0000  38B                                                              EY  012                            F11J70Y405            000041
3 EY  0110201J29MAR2524OCT251234567 AUH22052205+0400  LHR05450545+0100  38B                                                              EY  012                            F11J70Y405            000042
3 EY  0110301J25OCT2501JAN261234567 AUH22402240+0400  LHR06450645+0000  38B                                                              EY  012                            F11J70Y405            000043
3 EY  0120101J01JAN2529MAR251234567 LHR09000900+0000  AUH16051605+0400  38B                                                              EY  011                            F11J70Y405            000044
3 EY  0120201J30MAR2525OCT251234567 LHR08300930+0100  AUH15401540+0400  38B                                                              EY  011                            F11J70Y405            000045
3 EY  0120301J26OCT2501JAN261234567 LHR09000900+0000  AUH16051605+0400  38B                                                              EY  011                            F11J70Y405            000046
3 EY  0130101J28FEB2528MAR251234567 AUH22402240+0400  LHR06450645+0000  35B                                                              EY  014                            J44Y327               000047
3 EY  0130201J29MAR2524OCT251234567 AUH22052205+0400  LHR05450545+0100  35B                                                              EY  014                            J44Y327               000048
3 EY  0130301J25OCT2501JAN261234567 AUH22402240+0400  LHR06450645+0000  35B                                                              EY  014                            J44Y327               000049
3 EY  0140101J01MAR2529MAR251234567 LHR09000900+0000  AUH16051605+0400  35B                                                              EY  013                            J44Y327               000050
3 EY  0140201J30MAR2525OCT251234567 LHR08300830+0100  AUH15401540+0400  35B                                                              EY  013                            J44Y327               000051
3 EY  0140301J26OCT2501JAN261234567 LHR09000900+0000  AUH16051605+0400  35B                                                              EY  013                            J44Y327               000052
3 EY  0150101J01JAN2528MAR251234567 AUH22352235+0400  MAN06350635+0000  78J                                                              EY  016                            J32Y295               000053
3 EY  0150201J29MAR2524OCT251234567 AUH22352235+0400  MAN06350635+0100  78J                                                              EY  016                            J32Y295               000054
3 EY  0150301J25OCT2501JAN261234567 AUH22352235+0400  MAN06350635+0000  78J                                                              EY  016                            J32Y295               000055
3 EY  0160101J01JAN2529MAR251234567 MAN08050805+0000  AUH15051505+0400  78J                                                              EY  876                            J32Y295               000056
3 EY  0160201J30MAR2525OCT251234567 MAN08050805+0100  AUH15051505+0400  78J                                                              EY  876                            J32Y295               000057
3 EY  0160301J26OCT2501JAN261234567 MAN08050805+0000  AUH15051505+0400  78J                                                              EY  876                            J32Y295               000058
3 EY  0170101J01JAN2529MAR251234567 AUH09550955+0400  LHR17451745+0000  35B                                                              EY  018                            J44Y327               000059
3 EY  0170201J30MAR2525OCT251234567 AUH10101010+0400  LHR17451745+0100  35B                                                              EY  018                            J44Y327               000060
3 EY  0170301J26OCT2501JAN261234567 AUH09550955+0400  LHR17451745+0000  35B                                                              EY  018                            J44Y327               000061
3 EY  0180101J01JAN2529MAR251234567 LHR21052105+0000  AUH03550355+0400  35B                                                              EY  017                            J44Y327               000062
3 EY  0180201J30MAR2525OCT251234567 LHR20552055+0100  AUH04000400+0400  35B                                                              EY  017                            J44Y327               000063
3 EY  0180301J26OCT2501JAN261234567 LHR21052105+0000  AUH03550355+0400  35B                                                              EY  017                            J44Y327               000064
3 EY  0190101J01JAN2529MAR251234567 AUH04050405+0400  LHR12001200+0000  38B                                                              EY  020                            F11J70Y405            000065
3 EY  0190201J30MAR2525OCT251234567 AUH04150415+0400  LHR11501150+0100  38B                                                              EY  020                            F11J70Y405            000066
3 EY  0190301J26OCT2501JAN261234567 AUH04050405+0400  LHR12001200+0000  38B                                                              EY  020                            F11J70Y405            000067
3 EY  0200101J01JAN2529MAR251234567 LHR14001400+0000  AUH21002100+0400  38B                                                              EY  019                            F11J70Y405            000068
3 EY  0200201J30MAR2525OCT251234567 LHR13501350+0100  AUH20552055+0400  38B                                                              EY  019                            F11J70Y405            000069
3 EY  0200301J26OCT2501JAN261234567 LHR14001400+0000  AUH21002100+0400  38B                                                              EY  019                            F11J70Y405            000070
3 EY  0210101J01JAN2529MAR251234567 AUH07000700+0400  MAN14551455+0000  78J                                                              EY  022                            J32Y295               000071
3 EY  0210201J30MAR2525OCT251234567 AUH07000700+0400  MAN14551455+0100  78J                                                              EY  022                            J32Y295               000072
3 EY  0210301J26OCT2501JAN261234567 AUH07000700+0400  MAN14551455+0000  78J                                                              EY  022                            J32Y295               000073
3 EY  0220101J01JAN2529MAR251234567 MAN19151915+0000  AUH02150215+0400  78J                                                              EY  021                            J32Y295               000074
3 EY  0220201J30MAR2525OCT251234567 MAN19151915+0100  AUH02150215+0400  78J                                                              EY  021                            J32Y295               000075
3 EY  0220301J26OCT2501JAN261234567 MAN19151915+0000  AUH02150215+0400  78J                                                              EY  021                            J32Y295               000076
3 EY  0230101J01JAN2526JAN251234567 AUH22402240+0400  DUS05500550+0100  78E                                                              EY  024                            J28Y262               000077
3 EY  0230201J27JAN2501FEB251234 6  AUH22402240+0400  DUS05500550+0100  78E                                                              EY  024                            J28Y262               000078
3 EY  0230301J03FEB2527MAR2512 4 6  AUH22402240+0400  DUS05500550+0100  78E                                                              EY  024                            J28Y262               000079
3 EY  0230401J29MAR2528JUN2512 4 6  AUH22402240+0400  DUS05500550+0200  78E                                                              EY  024                            J28Y262               000080
3 EY  0230501J30JUN2530AUG251234567 AUH22402240+0400  DUS05500550+0200  78E                                                              EY  024                            J28Y262               000081
3 EY  0230601J01SEP2523OCT2512 4 6  AUH22402240+0400  DUS05500550+0200  78E                                                              EY  024                            J28Y262               000082
3 EY  0230701J25OCT2522NOV2512 4 6  AUH22402240+0400  DUS05500550+0100  78E                                                              EY  024                            J28Y262               000083
3 EY  0230801J24NOV2530NOV2512 4 67 AUH22402240+0400  DUS05500550+0100  78E                                                              EY  024                            J28Y262               000084
3 EY  0230901J01DEC2501JAN261234567 AUH22402240+0400  DUS05500550+0100  78E                                                              EY  024                            J28Y262               000085
3 EY  0240101J01JAN2531JAN25  3456  DUS09200920+0100  AUH15351535+0400  78E                                                              EY  079                            J28Y262               000086
3 EY  0240201J05JAN2502FEB2512    7 DUS09200920+0100  AUH15351535+0400  78E                                                              EY  075                            J28Y262               000087
3 EY  0240301J04FEB2525FEB25 2    7 DUS09200920+0100  AUH15351535+0400  78E                                                              EY  075                            J28Y262               000088
3 EY  0240401J05FEB2521FEB25  3 5   DUS09200920+0100  AUH15351535+0400  78E                                                              EY  079                            J28Y262               000089
3 EY  0240501J26FEB2528MAR25  3 5 7 DUS09200920+0100  AUH15351535+0400  78E                                                              EY  079                            J28Y262               000090
3 EY  0240601J04MAR2525MAR25 2      DUS09200920+0100  AUH15351535+0400  78E                                                              EY  001                            J28Y262               000091
3 EY  0240701J30MAR2529JUN25  3 5 7 DUS09200920+0200  AUH15351535+0400  78E                                                              EY  079                            J28Y262               000092
3 EY  0240801J01APR2521OCT25 2      DUS09200920+0200  AUH15351535+0400  78E                                                              EY  001                            J28Y262               000093
3 EY  0240901J02JUL2524AUG25  34567 DUS09200920+0200  AUH15351535+0400  78E                                                              EY  079                            J28Y262               000094
3 EY  0241001J07JUL2518AUG251       DUS09200920+0200  AUH15351535+0400  78E                                                              EY  075                            J28Y262               000095
3 EY  0241101J25AUG2530AUG251    6  DUS09200920+0200  AUH15351535+0400  78E                                                              EY  075                            J28Y262               000096
3 EY  0241201J27AUG2531AUG25  345 7 DUS09200920+0200  AUH15351535+0400  78E                                                              EY  079                            J28Y262               000097
3 EY  0241301J03SEP2524OCT25  3 5 7 DUS09200920+0200  AUH15351535+0400  78E                                                              EY  079                            J28Y262               000098
3 EY  0241401J26OCT2530NOV25  3 5 7 DUS09200920+0100  AUH15351535+0400  78E                                                              EY  079                            J28Y262               000099
3 EY  0241501J28OCT2530DEC25 2      DUS09200920+0100  AUH15351535+0400  78E                                                              EY  001                            J28Y262               000100
3 EY  0241601J01DEC2529DEC251       DUS09200920+0100  AUH15351535+0400  78E                                                              EY  075                            J28Y262               000101
3 EY  0241701J03DEC2501JAN26  34567 DUS09200920+0100  AUH15351535+0400  78E                                                              EY  079                            J28Y262               000102
3 EY  0250101J01JAN2529MAR251234567 AUH06500650+0400  LHR14551455+0000  35B                                                              EY  026                            J44Y327               000103
3 EY  0250201J30MAR2525OCT251234567 AUH06350635+0400  LHR14101410+0100  35B                                                              EY  026                            J44Y327               000104
3 EY  0250301J26OCT2501JAN261234567 AUH06500650+0400  LHR14551455+0000  35B                                                              EY  026                            J44Y327               000105
3 EY  0260101J01JAN2529MAR251234567 LHR20002000+0000  AUH03000300+0400  35B                                                              EY  025                            J44Y327               000106
3 EY  0260201J30MAR2525OCT251234567 LHR19451945+0100  AUH02500250+0400  35B                                                              EY  025                            J44Y327               000107
3 EY  0260301J26OCT2501JAN261234567 LHR20002000+0000  AUH03000300+0400  35B                                                              EY  025                            J44Y327               000108
3 EY  0310101J01JAN2528MAR251234567 AUH22152215+0400  CDG05550555+0100  38B                                                              EY  032                            F11J70Y405            000109
3 EY  0310201J29MAR2524OCT251234567 AUH22152215+0400  CDG05550555+0200  38B                                                              EY  032                            F11J70Y405            000110
3 EY  0310301J25OCT2501JAN261234567 AUH22152215+0400  CDG05550555+0100  38B                                                              EY  032                            F11J70Y405            000111
3 EY  0320101J01JAN2529MAR251234567 CDG09050905+0100  AUH15501550+0400  38B                                                              EY  031                            F11J70Y405            000112
3 EY  0320201J30MAR2525OCT251234567 CDG09050905+0200  AUH15501550+0400  38B                                                              EY  031                            F11J70Y405            000113
3 EY  0320301J26OCT2501JAN261234567 CDG09050905+0100  AUH15501550+0400  38B                                                              EY  031                            F11J70Y405            000114
3 EY  0370101J01JAN2529MAR251234567 AUH05150515+0400  CDG12501250+0100  35B                                                              EY  038                            J44Y327               000115
3 EY  0370201J30MAR2519OCT25      7 AUH05150515+0400  CDG12501250+0200  78H                                                              EY  038                            J32Y271               000116
3 EY  0370301J31MAR2525OCT25123456  AUH05150515+0400  CDG12501250+0200  35B                                                              EY  038                            J44Y327               000117
3 EY  0370401J26OCT2501JAN261234567 AUH05150515+0400  CDG12501250+0100  35B                                                              EY  038                            J44Y327               000118
3 EY  0380101J01JAN2528MAR251234567 CDG19551955+0100  AUH02300230+0400  35B                                                              EY  037                            J44Y327               000119
3 EY  0380201J29MAR2529MAR25     6  CDG19551955+0100  AUH02300230+0400  35B                                                              EY  171                            J44Y327               000120
3 EY  0380301J30MAR2519OCT25      7 CDG19551955+0200  AUH02300230+0400  78H                                                              EY  141                            J32Y271               000121
3 EY  0380401J31MAR2517OCT2512345   CDG19551955+0200  AUH02300230+0400  35B                                                              EY  037                            J44Y327               000122
3 EY  0380501J05APR2518OCT25     6  CDG19551955+0200  AUH02300230+0400  35B                                                              EY  171                            J44Y327               000123
3 EY  0380601J20OCT2525OCT25123456  CDG19551955+0200  AUH02300230+0400  35B                                                              EY  037                            J44Y327               000124
3 EY  0380701J26OCT2501JAN261234567 CDG19551955+0100  AUH02300230+0400  35B                                                              EY  037                            J44Y327               000125
3 EY  0420101J01JAN2529MAR251234567 DUB08400840+0000  AUH16051605+0400  78J                                                              EY  402                            J32Y295               000126
3 EY  0420201J30MAR2525OCT251234567 DUB08400840+0100  AUH16051605+0400  78J                                                              EY  402                            J32Y295               000127
3 EY  0420301J26OCT2501JAN261234567 DUB08400840+0000  AUH16051605+0400  78J                                                              EY  402                            J32Y295               000128
3 EY  0450101J01JAN2528MAR251234567 AUH22102210+0400  DUB06400640+0000  78J                                                              EY  042                            J32Y295               000129
3 EY  0450201J29MAR2524OCT251234567 AUH22102210+0400  DUB06400640+0100  78J                                                              EY  042                            J32Y295               000130
3 EY  0450301J25OCT2501JAN261234567 AUH22102210+0400  DUB06400640+0000  78J                                                              EY  042                            J32Y295               000131
3 EY  0490101J01JAN2528MAR251234567 AUH22202220+0400  BCN06000600+0100  78E                                                              EY  050                            J28Y262               000132
3 EY  0490201J29MAR2524OCT251234567 AUH22202220+0400  BCN06000600+0200  78E                                                              EY  050                            J28Y262               000133
3 EY  0490301J25OCT2501JAN261234567 AUH22202220+0400  BCN06000600+0100  78E                                                              EY  050                            J28Y262               000134
3 EY  0500101J01JAN2529MAR251234567 BCN09400940+0100  AUH16001600+0400  78E                                                              EY  878                            J28Y262               000135
3 EY  0500201J30MAR2525OCT251234567 BCN09400940+0200  AUH16001600+0400  78E                                                              EY  878                            J28Y262               000136
3 EY  0500301J26OCT2501JAN261234567 BCN09400940+0100  AUH16001600+0400  78E                                                              EY  878                            J28Y262               000137
3 EY  0510101J01JAN2526JAN251234567 AUH22152215+0400  GVA05200520+0100  78D                                                              EY  052                            F8J28Y190             000138
3 EY  0510201J27JAN2502FEB2512345 7 AUH22152215+0400  GVA05200520+0100  78D                                                              EY  052                            F8J28Y190             000139
3 EY  0510301J03FEB2528MAR251 3 5 7 AUH22152215+0400  GVA05200520+0100  78D                                                              EY  052                            F8J28Y190             000140
3 EY  0510401J30MAR2529JUN251 3 5 7 AUH22152215+0400  GVA05200520+0200  78D                                                              EY  052                            F8J28Y190             000141
3 EY  0510501J30JUN2531AUG251234567 AUH22152215+0400  GVA05200520+0200  78D                                                              EY  052                            F8J28Y190             000142
3 EY  0510601J01SEP2524OCT251 3 5 7 AUH22152215+0400  GVA05200520+0200  78D                                                              EY  052                            F8J28Y190             000143
3 EY  0510701J26OCT2530NOV251 3 5 7 AUH22152215+0400  GVA05200520+0100  78D                                                              EY  052                            F8J28Y190             000144
3 EY  0510801J01DEC2501JAN261234567 AUH22152215+0400  GVA05200520+0100  78D                                                              EY  052                            F8J28Y190             000145
3 EY  0520101J01JAN2529JAN25  3     GVA08300830+0100  AUH14351435+0400  78D                                                              EY  0511                           F8J28Y190             000146
3 EY  0520201J02JAN2527MAR25 2 4    GVA08300830+0100  AUH14351435+0400  78D                                                              EY  615                            F8J28Y190             000147
3 EY  0520301J03JAN2524JAN25    5   GVA08300830+0100  AUH14351435+0400  78D                                                              EY  0514                           F8J28Y190             000148
3 EY  0520401J04JAN2529MAR25     6  GVA08300830+0100  AUH14351435+0400  78D                                                              EY  131                            F8J28Y190             000149
3 EY  0520501J05JAN2527JAN251     7 GVA08300830+0100  AUH14351435+0400  78D                                                              EY  051                            F8J28Y190             000150
3 EY  0520601J31JAN2531JAN25    5   GVA08300830+0100  AUH14351435+0400  78D                                                                                                 F8J28Y190             000151
3 EY  0520701J03FEB2524MAR251       GVA08300830+0100  AUH14351435+0400  78D                                                              EY  051                            F8J28Y190             000152
3 EY  0520801J31MAR2520OCT251       GVA08300830+0200  AUH14351435+0400  78D                                                              EY  051                            F8J28Y190             000153
3 EY  0520901J01APR2523OCT25 2 4    GVA08300830+0200  AUH14351435+0400  78D                                                              EY  615                            F8J28Y190             000154
3 EY  0521001J05APR2525OCT25     6  GVA08300830+0200  AUH14351435+0400  78D                                                              EY  131                            F8J28Y190             000155
3 EY  0521101J02JUL2529AUG25  3 5   GVA08300830+0200  AUH14351435+0400  78D                                                              EY  0511                           F8J28Y190             000156
3 EY  0521201J06JUL2524AUG25      7 GVA08300830+0200  AUH14351435+0400  78D                                                              EY  0512                           F8J28Y190             000157
3 EY  0521301J31AUG2531AUG25      7 GVA08300830+0200  AUH14351435+0400  78D                                                                                                 F8J28Y190             000158
3 EY  0521401J27OCT2524NOV251       GVA08300830+0100  AUH14351435+0400  78D                                                              EY  051                            F8J28Y190             000159
3 EY  0521501J28OCT2501JAN26 2 4    GVA08300830+0100  AUH14351435+0400  78D                                                              EY  615                            F8J28Y190             000160
3 EY  0521601J01NOV2527DEC25     6  GVA08300830+0100  AUH14351435+0400  78D                                                              EY  131                            F8J28Y190             000161
3 EY  0521701J01DEC2529DEC251     7 GVA08300830+0100  AUH14351435+0400  78D                                                              EY  051                            F8J28Y190             000162
3 EY  0521801J03DEC2524DEC25  3     GVA08300830+0100  AUH14351435+0400  78D                                                              EY  0511                           F8J28Y190             000163
3 EY  0521901J05DEC2526DEC25    5   GVA08300830+0100  AUH14351435+0400  78D                                                              EY  0514                           F8J28Y190             000164
3 EY  0522001J31DEC2531DEC25  3     GVA08300830+0100  AUH14351435+0400  78D                                                                                                 F8J28Y190             000165
3 EY  0530101J01JAN2529MAR251234567 AUH05150515+0400  CPH12301230+0100  78E                                                              EY  054                            J28Y262               000166
3 EY  0530201J30MAR2525OCT251234567 AUH05150515+0400  CPH12301230+0200  78E                                                              EY  054                            J28Y262               000167
3 EY  0530301J26OCT2501JAN261234567 AUH05150515+0400  CPH12301230+0100  78E                                                              EY  054                            J28Y262               000168
3 EY  0540101J01JAN2529MAR251234567 CPH19551955+0100  AUH02400240+0400  78E                                                              EY  053                            J28Y262               000169
3 EY  0540201J30MAR2525OCT251234567 CPH19551955+0200  AUH02400240+0400  78E                                                              EY  053                            J28Y262               000170
3 EY  0540301J26OCT2501JAN261234567 CPH19551955+0100  AUH02400240+0400  78E                                                              EY  053                            J28Y262               000171
3 EY  0570101J01JAN2528MAR251234567 AUH22502250+0400  BRU06100610+0100  78E                                                              EY  058                            J28Y262               000172
3 EY  0570201J29MAR2524OCT251234567 AUH22502250+0400  BRU06100610+0200  78E                                                              EY  058                            J28Y262               000173
3 EY  0570301J25OCT2501JAN261234567 AUH22502250+0400  BRU06100610+0100  78E                                                              EY  058                            J28Y262               000174
3 EY  0580101J01JAN2528FEB251234567 BRU09200920+0100  AUH15451545+0400  78E                                                              EY  057                            J28Y262               000175
3 EY  0580201J01MAR2501MAR25     6  BRU09200920+0100  AUH15451545+0400  78E                                                              EY  470                            J28Y262               000176
3 EY  0580301J02MAR2502MAR25      7 BRU09200920+0100  AUH15451545+0400  78E                                                              EY  884                            J28Y262               000177
3 EY  0580401J03MAR2529MAR251234567 BRU09200920+0100  AUH15451545+0400  78E                                                              EY  470                            J28Y262               000178
3 EY  0580501J30MAR2525OCT251234567 BRU09200920+0200  AUH15451545+0400  78E                                                              EY  470                            J28Y262               000179
3 EY  0580601J26OCT2501JAN261234567 BRU09200920+0100  AUH15451545+0400  78E                                                              EY  470                            J28Y262               000180
3 EY  0650101J01JAN2501JAN261234567 AUH22452245+0400  DME04200420+0300  32W                                                              EY  068                            J8Y188                000181
3 EY  0680101J01JAN2501JAN261234567 DME09400940+0300  AUH15001500+0400  32W                                                              EY  335                            J8Y188                000182
3 EY  0710101J01JAN2529MAR251234567 AUH04000400+0400  BEG10001000+0100  32T                                                              EY  072                            J8Y150                000183
3 EY  0710201J30MAR2525OCT251234567 AUH04000400+0400  BEG10001000+0200  32T                                                              EY  072                            J8Y150                000184
3 EY  0710301J26OCT2501JAN261234567 AUH04000400+0400  BEG10001000+0100  32T                                                              EY  072                            J8Y150                000185
3 EY  0720101J01JAN2529MAR251234567 BEG11051105+0100  AUH16201620+0400  32T                                                              EY  657                            J8Y150                000186
3 EY  0720201J30MAR2525OCT251234567 BEG11051105+0200  AUH16201620+0400  32T                                                              EY  657                            J8Y150                000187
3 EY  0720301J26OCT2501JAN261234567 BEG11051105+0100  AUH16201620+0400  32T                                                              EY  657                            J8Y150                000188
3 EY  0730101J01JAN2528MAR251234567 AUH22352235+0400  ZRH05250525+0100  78E                                                              EY  074                            J28Y262               000189
3 EY  0730201J29MAR2524OCT251234567 AUH22352235+0400  ZRH05250525+0200  78E                                                              EY  074                            J28Y262               000190
3 EY  0730301J25OCT2501JAN261234567 AUH22352235+0400  ZRH05250525+0100  78E                                                              EY  074                            J28Y262               000191
3 EY  0740101J01JAN2529MAR251234567 ZRH09100910+0100  AUH15151515+0400  78E                                                              EY  418                            J28Y262               000192
3 EY  0740201J30MAR2525OCT251234567 ZRH09100910+0200  AUH15151515+0400  78E                                                              EY  418                            J28Y262               000193
3 EY  0740301J26OCT2501JAN261234567 ZRH09100910+0100  AUH15151515+0400  78E                                                              EY  418                            J28Y262               000194
3 EY  0750101J01JAN2526JAN251234567 AUH22302230+0400  MAD06500650+0100  78E                                                              EY  076                            J28Y262               000195
3 EY  0750201J27JAN2502FEB2512345 7 AUH22302230+0400  MAD06500650+0100  78E                                                              EY  076                            J28Y262               000196
3 EY  0750301J04FEB2527FEB25 2345 7 AUH22302230+0400  MAD06500650+0100  78E                                                              EY  076                            J28Y262               000197
3 EY  0750401J28FEB2528MAR25 2345 7 AUH22302230+0400  MAD06500650+0100  78H                                                              EY  076                            J32Y271               000198
3 EY  0750501J30MAR2524OCT25 2345 7 AUH22302230+0400  MAD06500650+0200  78H                                                              EY  076                            J32Y271               000199
3 EY  0750601J30JUN2530AUG251    6  AUH22302230+0400  MAD06500650+0200  78E                                                              EY  076                            J28Y262               000200
3 EY  0750701J26OCT2530NOV25 2345 7 AUH22302230+0400  MAD06500650+0100  78H                                                              EY  076                            J32Y271               000201
3 EY  0750801J01DEC2529DEC251       AUH22302230+0400  MAD06500650+0100  78E                                                              EY  076                            J28Y262               000202
3 EY  0750901J02DEC2501JAN26 234567 AUH22302230+0400  MAD06500650+0100  78H                                                              EY  076                            J32Y271               000203
3 EY  0760101J01JAN2527FEB25  345   MAD08500850+0100  AUH15451545+0400  78E                                                              EY  075                            J28Y262               000204
3 EY  0760201J04JAN2524FEB251    6  MAD08500850+0100  AUH15451545+0400  78E                                                              EY  023                            J28Y262               000205
3 EY  0760301J05JAN2528JAN25 2    7 MAD08500850+0100  AUH15451545+0400  78E                                                              EY  079                            J28Y262               000206
3 EY  0760401J28FEB2528FEB25    5   MAD08500850+0100  AUH15451545+0400  78E                                                              EY  0571                           J28Y262               000207
3 EY  0760501J01MAR2529MAR251 3456  MAD08500850+0100  AUH15451545+0400  78H                                                              EY  862                            J32Y271               000208
3 EY  0760601J31MAR2525OCT251 3456  MAD08500850+0200  AUH15451545+0400  78H                                                              EY  862                            J32Y271               000209
3 EY  0760701J01JUL2526AUG25 2      MAD08500850+0200  AUH15451545+0400  78E                                                              EY  079                            J28Y262               000210
3 EY  0760801J06JUL2517AUG25      7 MAD08500850+0200  AUH15451545+0400  78E                                                              EY  0756                           J28Y262               000211
3 EY  0760901J24AUG2524AUG25      7 MAD08500850+0200  AUH15451545+0400  78E                                                              EY  0796                           J28Y262               000212
3 EY  0761001J31AUG2531AUG25      7 MAD08500850+0200  AUH15451545+0400  78E                                                                                                 J28Y262               000213
3 EY  0761101J27OCT2529NOV251 3456  MAD08500850+0100  AUH15451545+0400  78H                                                              EY  862                            J32Y271               000214
3 EY  0761201J01DEC2501JAN261 34567 MAD08500850+0100  AUH15451545+0400  78H                                                              EY  862                            J32Y271               000215
3 EY  0761301J02DEC2530DEC25 2      MAD08500850+0100  AUH15451545+0400  78E                                                              EY  079                            J28Y262               000216
3 EY  0770101J01JAN2529MAR251234567 AUH05300530+0400  AMS12551255+0100  35B                                                              EY  078                            J44Y327               000217
3 EY  0770201J30MAR2525OCT251234567 AUH05300530+0400  AMS12551255+0200  35B                                                              EY  078                            J44Y327               000218
3 EY  0770301J26OCT2501JAN261234567 AUH05300530+0400  AMS12551255+0100  35B                                                              EY  078                            J44Y327               000219
3 EY  0780101J01JAN2529MAR251234567 AMS19251925+0100  AUH01500150+0400  35B                                                              EY  077                            J44Y327               000220
3 EY  0780201J30MAR2525OCT251234567 AMS19251925+0200  AUH01500150+0400  35B                                                              EY  077                            J44Y327               000221
3 EY  0780301J26OCT2501JAN261234567 AMS19251925+0100  AUH01500150+0400  35B                                                              EY  077                            J44Y327               000222
3 EY  0790101J01JAN2526JAN251234567 AUH22352235+0400  VIE05400540+0100  78E                                                              EY  080                            J28Y262               000223
3 EY  0790201J27JAN2502FEB2512345 7 AUH22352235+0400  VIE05400540+0100  78E                                                              EY  080                            J28Y262               000224
3 EY  0790301J03FEB2528MAR251 3 5 7 AUH22352235+0400  VIE05400540+0100  78E                                                              EY  080                            J28Y262               000225
3 EY  0790401J30MAR2529JUN251 3 5 7 AUH22352235+0400  VIE05400540+0200  78E                                                              EY  080                            J28Y262               000226
3 EY  0790501J30JUN2531AUG251234567 AUH22352235+0400  VIE05400540+0200  78E                                                              EY  080                            J28Y262               000227
3 EY  0790601J01SEP2524OCT251 3 5 7 AUH22352235+0400  VIE05400540+0200  78E                                                              EY  080                            J28Y262               000228
3 EY  0790701J26OCT2530NOV251 3 5 7 AUH22352235+0400  VIE05400540+0100  78E                                                              EY  080                            J28Y262               000229
3 EY  0790801J01DEC2501JAN261234567 AUH22352235+0400  VIE05400540+0100  78E                                                              EY  080                            J28Y262               000230
3 EY  0800101J01JAN2530JAN25 2345 7 VIE09100910+0100  AUH15151515+0400  78E                                                              EY  023                            J28Y262               000231
3 EY  0800201J04JAN2525JAN25     6  VIE09100910+0100  AUH15151515+0400  78E                                                              EY  075                            J28Y262               000232
3 EY  0800301J06JAN2524MAR251       VIE09100910+0100  AUH15151515+0400  78E                                                              EY  079                            J28Y262               000233
3 EY  0800401J31JAN2531JAN25    5   VIE09100910+0100  AUH15151515+0400  78E                                                                                                 J28Y262               000234
3 EY  0800501J01FEB2522FEB25     6  VIE09100910+0100  AUH15151515+0400  78E                                                              EY  0791                           J28Y262               000235
3 EY  0800601J04FEB2520FEB25 2 4    VIE09100910+0100  AUH15151515+0400  78E                                                              EY  023                            J28Y262               000236
3 EY  0800701J25FEB2529MAR25 2 4 6  VIE09100910+0100  AUH15151515+0400  78E                                                              EY  023                            J28Y262               000237
3 EY  0800801J31MAR2520OCT251       VIE09100910+0200  AUH15151515+0400  78E                                                              EY  079                            J28Y262               000238
3 EY  0800901J01APR2528JUN25 2 4 6  VIE09100910+0200  AUH15151515+0400  78E                                                              EY  023                            J28Y262               000239
3 EY  0801001J01JUL2530AUG25 234567 VIE09100910+0200  AUH15151515+0400  78E                                                              EY  023                            J28Y262               000240
3 EY  0801101J31AUG2531AUG25      7 VIE09100910+0200  AUH15151515+0400  78E                                                                                                 J28Y262               000241
3 EY  0801201J02SEP2525OCT25 2 4 6  VIE09100910+0200  AUH15151515+0400  78E                                                              EY  023                            J28Y262               000242
3 EY  0801301J27OCT2529DEC251       VIE09100910+0100  AUH15151515+0400  78E                                                              EY  079                            J28Y262               000243
3 EY  0801401J28OCT2529NOV25 2 4 6  VIE09100910+0100  AUH15151515+0400  78E                                                              EY  023                            J28Y262               000244
3 EY  0801501J02DEC2501JAN26 234567 VIE09100910+0100  AUH15151515+0400  78E                                                              EY  023                            J28Y262               000245
3 EY  0810101J01JAN2528MAR251234567 AUH22502250+0400  MXP05400540+0100  78E                                                              EY  088                            J28Y262               000246
3 EY  0810201J29MAR2524OCT251234567 AUH22502250+0400  MXP05400540+0200  78E                                                              EY  088                            J28Y262               000247
3 EY  0810301J25OCT2501JAN261234567 AUH22502250+0400  MXP05400540+0100  78E                                                              EY  088                            J28Y262               000248
3 EY  0830101J01JAN2529MAR251234567 AUH05150515+0400  FCO11451145+0100  78E                                                              EY  084                            J28Y262               000249
3 EY  0830201J30MAR2525OCT251234567 AUH05150515+0400  FCO11451145+0200  78E                                                              EY  084                            J28Y262               000250
3 EY  0830301J26OCT2501JAN261234567 AUH05150515+0400  FCO11451145+0100  78E                                                              EY  084                            J28Y262               000251
3 EY  0840101J01JAN2529MAR251234567 FCO20002000+0100  AUH02050205+0400  78E                                                              EY  083                            J28Y262               000252
3 EY  0840201J30MAR2525OCT251234567 FCO20002000+0200  AUH02050205+0400  78E                                                              EY  083                            J28Y262               000253
3 EY  0840301J26OCT2501JAN261234567 FCO20002000+0100  AUH02050205+0400  78E                                                              EY  083                            J28Y262               000254
3 EY  0850101J01JAN2528MAR251234567 AUH22402240+0400  FCO05150515+0100  78J                                                              EY  086                            J32Y295               000255
3 EY  0850201J29MAR2524OCT251234567 AUH22402240+0400  FCO05150515+0200  78J                                                              EY  086                            J32Y295               000256
3 EY  0850301J25OCT2501JAN261234567 AUH22402240+0400  FCO05150515+0100  78J                                                              EY  086                            J32Y295               000257
3 EY  0860101J01JAN2527FEB251234567 FCO09050905+0100  AUH15101510+0400  78J                                                              EY  888                            J32Y295               000258
3 EY  0860201J28FEB2528FEB25    5   FCO09050905+0100  AUH15101510+0400  78J                                                              EY  005                            J32Y295               000259
3 EY  0860301J01MAR2529MAR251234567 FCO09050905+0100  AUH15101510+0400  78J                                                              EY  085                            J32Y295               000260
3 EY  0860401J30MAR2525OCT251234567 FCO09050905+0200  AUH15101510+0400  78J                                                              EY  085                            J32Y295               000261
3 EY  0860501J26OCT2501JAN261234567 FCO09050905+0100  AUH15101510+0400  78J                                                              EY  085                            J32Y295               000262
3 EY  0880101J01JAN2523FEB251234567 MXP09250925+0100  AUH15201520+0400  78E                                                              EY  470                            J28Y262               000263
3 EY  0880201J24FEB2502MAR2512345 7 MXP09250925+0100  AUH15201520+0400  78E                                                              EY  470                            J28Y262               000264
3 EY  0880301J01MAR2501MAR25     6  MXP09250925+0100  AUH15201520+0400  78E                                                              EY  884                            J28Y262               000265
3 EY  0880401J03MAR2529MAR251234567 MXP09250925+0100  AUH15201520+0400  78E                                                              EY  884                            J28Y262               000266
3 EY  0880501J30MAR2525OCT251234567 MXP09250925+0200  AUH15201520+0400  78E                                                              EY  884                            J28Y262               000267
3 EY  0880601J26OCT2501JAN261234567 MXP09250925+0100  AUH15201520+0400  78E                                                              EY  884                            J28Y262               000268
3 EY  0900101J01JAN2529MAR251234567 ATH11551155+0200  AUH16201620+0400  32W                                                              EY  280                            J8Y188                000269
3 EY  0900201J30MAR2525OCT251234567 ATH11551155+0300  AUH16201620+0400  32W                                                              EY  280                            J8Y188                000270
3 EY  0900301J26OCT2501JAN261234567 ATH11551155+0200  AUH16201620+0400  32W                                                              EY  280                            J8Y188                000271
3 EY  0910101J01JAN2529MAR251234567 AUH05150515+0400  ATH10501050+0200  32W                                                              EY  090                            J8Y188                000272
3 EY  0910201J30MAR2525OCT251234567 AUH05150515+0400  ATH10501050+0300  32W                                                              EY  090                            J8Y188                000273
3 EY  0910301J26OCT2501JAN261234567 AUH05150515+0400  ATH10501050+0200  32W                                                              EY  090                            J8Y188                000274
3 EY  0960101J01JAN2501JAN261234567 IST12001200+0300  AUH16201620+0400  78E                                                              EY  206                            J28Y262               000275
3 EY  0970101J01JAN2501JAN261234567 AUH05300530+0400  IST10301030+0300  78E                                                              EY  096                            J28Y262               000276
3 EY  1000101J01JAN2509MAR251234567 JFK03050305-0500  AUH15451545+0400  38B                                                              EY  101                            F11J70Y405            000277
3 EY  1000201J10MAR2502NOV251234567 JFK03050305-0400  AUH15451545+0400  38B                                                              EY  101                            F11J70Y405            000278
3 EY  1000301J03NOV2501JAN261234567 JFK03050305-0500  AUH15451545+0400  38B                                                              EY  101                            F11J70Y405            000279
3 EY  1010101J01JAN2508MAR251234567 AUH06150615+0400  JFK20552055-0500  38B                                                              EY  100                            F11J70Y405            000280
3 EY  1010201J09MAR2501NOV251234567 AUH06150615+0400  JFK20552055-0400  38B                                                              EY  100                            F11J70Y405            000281
3 EY  1010301J02NOV2501JAN261234567 AUH06150615+0400  JFK20552055-0500  38B                                                              EY  100                            F11J70Y405            000282
3 EY  1020101J01JAN2526FEB251234567 JFK18401840-0500  AUH07250725+0400  35B                                                              EY  103                            J44Y327               000283
3 EY  1020201J27FEB2508MAR251234567 JFK18401840-0500  AUH07250725+0400  35B                                                              EY  888                            J44Y327               000284
3 EY  1020301J09MAR2501NOV251234567 JFK18401840-0400  AUH07250725+0400  35B                                                              EY  888                            J44Y327               000285
3 EY  1020401J02NOV2501JAN261234567 JFK18401840-0500  AUH07250725+0400  35B                                                              EY  888                            J44Y327               000286
3 EY  1030101J01JAN2507MAR251234567 AUH22302230+0400  JFK13101310-0500  35B                                                              EY  102                            J44Y327               000287
3 EY  1030201J08MAR2531OCT251234567 AUH22302230+0400  JFK13101310-0400  35B                                                              EY  102                            J44Y327               000288
3 EY  1030301J01NOV2501JAN261234567 AUH22302230+0400  JFK13101310-0500  35B                                                              EY  102                            J44Y327               000289
3 EY  1300101J01JAN2531JAN25  3 56  IAD02350235-0500  AUH15151515+0400  78D                                                              EY  051                            F8J28Y190             000290
3 EY  1300201J02JAN2509MAR2512 4  7 IAD02350235-0500  AUH15151515+0400  78D                                                              EY  131                            F8J28Y190             000291
3 EY  1300301J01FEB2508MAR25     6  IAD02350235-0500  AUH15151515+0400  78D                                                              EY  0511                           F8J28Y190             000292
3 EY  1300601J12MAR2521MAR25  3 5   IAD02350235-0400  AUH15151515+0400  78D                                                              EY  051                            F8J28Y190             000295
3 EY  1300701J15MAR2522MAR25     6  IAD02350235-0400  AUH15151515+0400  78D                                                              EY  0511                           F8J28Y190             000296
3 EY  1300801J26MAR2524OCT25  3 5 7 IAD02350235-0400  AUH15151515+0400  78D                                                              EY  051                            F8J28Y190             000297
3 EY  1300901J29MAR2529MAR25     6  IAD02350235-0400  AUH15151515+0400  78D                                                              EY  1311                           F8J28Y190             000298
3 EY  1301001J31MAR2516OCT2512 4    IAD02350235-0400  AUH15151515+0400  78D                                                              EY  131                            F8J28Y190             000299
3 EY  1301101J05APR2518OCT25     6  IAD02350235-0400  AUH15151515+0400  78D                                                              EY  615                            F8J28Y190             000300
3 EY  1301201J20OCT2502NOV2512 4  7 IAD02350235-0400  AUH15151515+0400  78D                                                              EY  131                            F8J28Y190             000301
3 EY  1301301J25OCT2501NOV25     6  IAD02350235-0400  AUH15151515+0400  78D                                                              EY  0511                           F8J28Y190             000302
3 EY  1301401J29OCT2531OCT25  3 5   IAD02350235-0400  AUH15151515+0400  78D                                                              EY  051                            F8J28Y190             000303
3 EY  1301501J03NOV2501JAN2612 4  7 IAD02350235-0500  AUH15151515+0400  78D                                                              EY  131                            F8J28Y190             000304
3 EY  1301601J05NOV2528NOV25  3 5   IAD02350235-0500  AUH15151515+0400  78D                                                              EY  051                            F8J28Y190             000305
3 EY  1301701J08NOV2529NOV25     6  IAD02350235-0500  AUH15151515+0400  78D                                                              EY  0511                           F8J28Y190             000306
3 EY  1301801J03DEC2531DEC25  3 56  IAD02350235-0500  AUH15151515+0400  78D                                                              EY  051                            F8J28Y190             000307
3 EY  1310101J01JAN2508MAR251234567 AUH07000700+0400  IAD21552155-0500  78D                                                              EY  130                            F8J28Y190             000308
3 EY  1310201J09MAR2501NOV251234567 AUH07000700+0400  IAD21552155-0400  78D                                                              EY  130                            F8J28Y190             000309
3 EY  1310301J02NOV2501JAN261234567 AUH07000700+0400  IAD21552155-0500  78D                                                              EY  130                            F8J28Y190             000310
3 EY  1400101J01JAN2509MAR251234567 YYZ02500250-0500  AUH15401540+0400  78H                                                              EY  218                            J32Y271               000311
3 EY  1400201J10MAR2529MAR251234567 YYZ02500250-0400  AUH15401540+0400  78H                                                              EY  218                            J32Y271               000312
3 EY  1400301J30MAR2519OCT25      7 YYZ02500250-0400  AUH15401540+0400  78H                                                              EY  862                            J32Y271               000313
3 EY  1400401J31MAR2518OCT25123456  YYZ02500250-0400  AUH15401540+0400  78H                                                              EY  218                            J32Y271               000314
3 EY  1400501J20OCT2502NOV251234567 YYZ02500250-0400  AUH15401540+0400  78H                                                              EY  218                            J32Y271               000315
3 EY  1400601J03NOV2501JAN261234567 YYZ02500250-0500  AUH15401540+0400  78H                                                              EY  218                            J32Y271               000316
3 EY  1410101J01JAN2508MAR251234567 AUH06050605+0400  YYZ20302030-0500  78H                                                              EY  140                            J32Y271               000317
3 EY  1410201J09MAR2501NOV251234567 AUH06050605+0400  YYZ20302030-0400  78H                                                              EY  140                            J32Y271               000318
3 EY  1410301J02NOV2501JAN261234567 AUH06050605+0400  YYZ20302030-0500  78H                                                              EY  140                            J32Y271               000319
3 EY  1500101J01JAN2509MAR251234567 ORD02300230-0600  AUH15551555+0400  35B                                                              EY  454                            J44Y327               000320
3 EY  1500201J10MAR2502NOV251234567 ORD02300230-0500  AUH15551555+0400  35B                                                              EY  454                            J44Y327               000321
3 EY  1500301J03NOV2501JAN261234567 ORD02300230-0600  AUH15551555+0400  35B                                                              EY  454                            J44Y327               000322
3 EY  1510101J01JAN2508MAR251234567 AUH05250525+0400  ORD20352035-0600  35B                                                              EY  150                            J44Y327               000323
3 EY  1510201J09MAR2501NOV251234567 AUH05250525+0400  ORD20352035-0500  35B                                                              EY  150                            J44Y327               000324
3 EY  1510301J02NOV2501JAN261234567 AUH05250525+0400  ORD20352035-0600  35B                                                              EY  150                            J44Y327               000325
3 EY  1700101J02JAN2506MAR25 2 4    LAX23502350-0800  AUH15551555+0400  35B                                                              EY  171                            J44Y327               000326
3 EY  1700201J04JAN2508MAR25     6  LAX23502350-0800  AUH15551555+0400  35B                                                              EY  1711                           J44Y327               000327
3 EY  1700301J11MAR2520MAR25 2 4    LAX23502350-0700  AUH15551555+0400  35B                                                              EY  171                            J44Y327               000328
3 EY  1700401J15MAR2522MAR25     6  LAX23502350-0700  AUH15551555+0400  35B                                                              EY  1711                           J44Y327               000329
3 EY  1700501J25MAR2523OCT25 2 4  7 LAX23502350-0700  AUH15551555+0400  35B                                                              EY  171                            J44Y327               000330
3 EY  1700601J29MAR2518OCT25     6  LAX23502350-0700  AUH15551555+0400  35B                                                              EY  218                            J44Y327               000331
3 EY  1700701J25OCT2501NOV25     6  LAX23502350-0700  AUH15551555+0400  35B                                                              EY  1711                           J44Y327               000332
3 EY  1700801J28OCT2530OCT25 2 4    LAX23502350-0700  AUH15551555+0400  35B                                                              EY  171                            J44Y327               000333
3 EY  1700901J04NOV2501JAN26 2 4    LAX23502350-0800  AUH15551555+0400  35B                                                              EY  171                            J44Y327               000334
3 EY  1701001J08NOV2527DEC25     6  LAX23502350-0800  AUH15551555+0400  35B                                                              EY  1711                           J44Y327               000335
3 EY  1710101J02JAN2508MAR25 2 4 6  AUH04500450+0400  LAX21252125-0800  35B                                                              EY  170                            J44Y327               000336
3 EY  1710201J11MAR2522MAR25 2 4 6  AUH04500450+0400  LAX21252125-0700  35B                                                              EY  170                            J44Y327               000337
3 EY  1710301J25MAR2525OCT25 2 4 67 AUH04500450+0400  LAX21252125-0700  35B                                                              EY  170                            J44Y327               000338
3 EY  1710401J28OCT2501NOV25 2 4 6  AUH04500450+0400  LAX21252125-0700  35B                                                              EY  170                            J44Y327               000339
3 EY  1710501J04NOV2501JAN26 2 4 6  AUH04500450+0400  LAX21252125-0800  35B                                                              EY  170                            J44Y327               000340
3 EY  2030101J01JAN2501JAN261234567 BOM15401540+0530  AUH19101910+0400  32W                                                              EY  315                            J8Y188                000341
3 EY  2040101J01JAN2501JAN261234567 AUH10201020+0400  BOM13301330+0530  32W                                                              EY  203                            J8Y188                000342
3 EY  2050101J01JAN2501JAN261234567 BOM22502250+0530  AUH02050205+0400  78E                                                              EY  097                            J28Y262               000343
3 EY  2060101J01JAN2501JAN261234567 AUH17501750+0400  BOM20452045+0530  78E                                                              EY  205                            J28Y262               000344
3 EY  2110101J01JAN2529MAR251234567 DEL22452245+0530  AUH02450245+0400  78H                                                              EY  141                            J32Y271               000345
3 EY  2110201J30MAR2519OCT25      7 DEL22452245+0530  AUH02450245+0400  35B                                                              EY  037                            J44Y327               000346
3 EY  2110301J31MAR2518OCT25123456  DEL22452245+0530  AUH02450245+0400  78H                                                              EY  141                            J32Y271               000347
3 EY  2110401J20OCT2501JAN261234567 DEL22452245+0530  AUH02450245+0400  78H                                                              EY  141                            J32Y271               000348
3 EY  2120101J01JAN2501JAN261234567 AUH23002300+0400  BOM02000200+0530  32T                                                              EY  213                            J8Y150                000349
3 EY  2130101J01JAN2501JAN261234567 BOM04050405+0530  AUH07350735+0400  32T                                                              EY  282                            J8Y150                000350
3 EY  2140101J01JAN2501JAN261234567 AUH05050505+0400  BOM08250825+0530  32T                                                              EY  215                            J8Y150                000351
3 EY  2150101J01JAN2501JAN261234567 BOM12351235+0530  AUH16001600+0400  32T                                                              EY  256                            J8Y150                000352
3 EY  2160101J01JAN2501JAN261234567 AUH17351735+0400  BLR21052105+0530  78E                                                              EY  217                            J28Y262               000353
3 EY  2170101J01JAN2501JAN261234567 BLR22502250+0530  AUH03000300+0400  78E                                                              EY  430                            J28Y262               000354
3 EY  2180101J01JAN2529MAR251234567 AUH17501750+0400  DEL21102110+0530  78H                                                              EY  211                            J32Y271               000355
3 EY  2180201J30MAR2519OCT25      7 AUH17501750+0400  DEL21102110+0530  35B                                                              EY  211                            J44Y327               000356
3 EY  2180301J31MAR2518OCT25123456  AUH17501750+0400  DEL21102110+0530  78H                                                              EY  211                            J32Y271               000357
3 EY  2180401J20OCT2501JAN261234567 AUH17501750+0400  DEL21102110+0530  78H                                                              EY  211                            J32Y271               000358
3 EY  2190101J01JAN2501JAN261234567 AUH05200520+0400  DEL08500850+0530  32W                                                              EY  220                            J8Y188                000359
3 EY  2200101J01JAN2501JAN261234567 DEL10551055+0530  AUH15001500+0400  32W                                                              EY  268                            J8Y188                000360
3 EY  2210101J01JAN2501JAN261234567 AUH19301930+0400  KHI21352135+0500  32T                                                              EY  222                            J8Y150                000361
3 EY  2220101J01JAN2501JAN261234567 KHI00000000+0500  AUH02300230+0400  32T                                                              EY  278                            J8Y150                000362
3 EY  2230101J01JAN2501JAN261234567 DEL15301530+0530  AUH19451945+0400  32W                                                              EY  651                            J8Y188                000363
3 EY  2240101J01JAN2501JAN261234567 AUH10301030+0400  DEL13551355+0530  32W                                                              EY  223                            J8Y188                000364
3 EY  2280101J01JAN2501JAN261234567 AUH22502250+0400  DEL02150215+0530  32W                                                              EY  229                            J8Y188                000365
3 EY  2290101J01JAN2501JAN261234567 DEL03200320+0530  AUH07350735+0400  32W                                                              EY  655                            J8Y188                000366
3 EY  2310101J01JAN2501JAN261234567 AUH18101810+0400  ISB21202120+0500  32W                                                              EY  232                            J8Y188                000367
3 EY  2320101J01JAN2501JAN261234567 ISB22402240+0500  AUH02250225+0400  32W                                                              EY  535                            J8Y188                000368
3 EY  2330101J01JAN2501JAN261234567 AUH10001000+0400  ISB13051305+0500  32M                                                              EY  234                            J8Y150                000369
3 EY  2340101J01JAN2501JAN261234567 ISB15301530+0500  AUH19201920+0400  32M                                                              EY  246                            J8Y150                000370
3 EY  2360101J01JAN2501JAN261234567 AUH06000600+0400  BLR09400940+0530  32T                                                              EY  237                            J8Y150                000371
3 EY  2370101J01JAN2501JAN261234567 BLR16101610+0530  AUH20352035+0400  32T                                                              EY  305                            J8Y150                000372
3 EY  2380101J01JAN2501JAN261234567 AUH22502250+0400  MAA02550255+0530  32T                                                              EY  239                            J8Y150                000373
3 EY  2390101J01JAN2501JAN261234567 MAA03450345+0530  AUH08200820+0400  32T                                                              EY  303                            J8Y150                000374
3 EY  2410101J01JAN2501JAN261234567 AUH18151815+0400  LHE21202120+0500  32W                                                              EY  242                            J8Y188                000375
3 EY  2420101J01JAN2501JAN261234567 LHE22352235+0500  AUH02250225+0400  32W                                                              EY  513                            J8Y188                000376
3 EY  2460101J01JAN2501JAN261234567 AUH23052305+0400  COK03000300+0530  32M                                                              EY  247                            J8Y150                000377
3 EY  2470101J01JAN2501JAN261234567 COK04200420+0530  AUH08350835+0400  32M                                                              EY  233                            J8Y150                000378
3 EY  2550101J01JAN2501JAN261234567 CCU22102210+0530  AUH03500350+0400  32T                                                              EY  214                            J8Y150                000379
3 EY  2560101J01JAN2501JAN261234567 AUH17001700+0400  CCU21202120+0530  32T                                                              EY  255                            J8Y150                000380
3 EY  2600101J01JAN2531DEC251 3  67 AUH21452145+0400  MLE02000200+0500  32D                                                              EY  261                            J16Y120               000381
3 EY  2610101J02JAN2501JAN2612 4  7 MLE12301230+0500  AUH16551655+0400  32D                                                              EY  377                            J16Y120               000382
3 EY  2640101J01JAN2531DEC25  3     AUH10001000+0400  CMB14251425+0530  32W                                                              EY  265                            J8Y188                000383
3 EY  2640201J02JAN2501JAN2612 4567 AUH05350535+0400  CMB10001000+0530  32W                                                              EY  265                            J8Y188                000384
3 EY  2650101J01JAN2501JAN261234567 CMB15251525+0530  AUH20152015+0400  32W                                                              EY  264                            J8Y188                000385
3 EY  2680101J01JAN2501JAN261234567 AUH18001800+0400  MAA22002200+0530  32W                                                              EY  269                            J8Y188                000386
3 EY  2690101J01JAN2501JAN261234567 MAA23102310+0530  AUH03450345+0400  32W                                                              EY  219                            J8Y188                000387
3 EY  2720101J01JAN2501JAN261234567 AUH17301730+0400  TRV21352135+0530  32D                                                              EY  273                            J16Y120               000388
3 EY  2730101J01JAN2501JAN261234567 TRV22352235+0530  AUH03000300+0400  32D                                                              EY  622                            J16Y120               000389
3 EY  2740101J01JAN2501JAN261234567 AUH17301730+0400  HYD20552055+0530  78E                                                              EY  275                            J28Y262               000390
3 EY  2750101J01JAN2501JAN261234567 HYD22552255+0530  AUH03000300+0400  78E                                                              EY  653                            J28Y262               000391
3 EY  2760101J01JAN2501JAN261234567 AUH05350535+0400  HYD09050905+0530  32T                                                              EY  277                            J8Y150                000392
3 EY  2770101J01JAN2501JAN261234567 HYD15501550+0530  AUH20102010+0400  32T                                                              EY  345                            J8Y150                000393
3 EY  2780101J01JAN2501JAN261234567 AUH04400440+0400  MLE09050905+0500  32T                                                              EY  279                            J8Y150                000394
3 EY  2790101J01JAN2501JAN261234567 MLE15001500+0500  AUH19151915+0400  32T                                                              EY  515                            J8Y150                000395
3 EY  2800101J01JAN2501JAN261234567 AUH17451745+0400  COK21352135+0530  32W                                                              EY  281                            J8Y188                000396
3 EY  2810101J01JAN2501JAN261234567 COK22402240+0530  AUH02550255+0400  32W                                                              EY  091                            J8Y188                000397
3 EY  2820101J01JAN2501JAN261234567 AUH10001000+0400  COK13551355+0530  32T                                                              EY  283                            J8Y150                000398
3 EY  2830101J01JAN2501JAN261234567 COK15001500+0530  AUH19201920+0400  32T                                                              EY  212                            J8Y150                000399
3 EY  2880101J01JAN2501JAN261234567 AUH19201920+0400  AMD22052205+0530  32M                                                              EY  289                            J8Y150                000400
3 EY  2890101J01JAN2501JAN261234567 AMD23052305+0530  AUH02300230+0400  32M                                                              EY  371                            J8Y150                000401
3 EY  2970101J01JAN2531DEC25  3 56  AUH06100610+0400  GYD09150915+0400  32M                                                              EY  298                            J8Y150                000402
3 EY  2980101J01JAN2531DEC25  3 56  GYD12301230+0400  AUH15201520+0400  32M                                                              EY  388                            J8Y150                000403
3 EY  3010101J01JAN2501JAN261234567 AUH04050405+0400  KWI05550555+0300  32W                                                              EY  302                            J8Y188                000404
3 EY  3020101J01JAN2501JAN261234567 KWI07050705+0300  AUH08450845+0400  32W                                                              EY  311                            J8Y188                000405
3 EY  3030101J01JAN2501JAN261234567 AUH10251025+0400  KWI12151215+0300  32T                                                              EY  304                            J8Y150                000406
3 EY  3040101J01JAN2501JAN261234567 KWI13301330+0300  AUH15051505+0400  32T                                                              EY  351                            J8Y150                000407
3 EY  3050101J01JAN2501JAN261234567 AUH22202220+0400  KWI00150015+0300  32T                                                              EY  306                            J8Y150                000408
3 EY  3060101J01JAN2501JAN261234567 KWI01100110+0300  AUH02500250+0400  32T                                                              EY  236                            J8Y150                000409
3 EY  3070101J01JAN2501JAN261234567 AUH16401640+0400  KWI18301830+0300  32D                                                              EY  308                            J16Y120               000410
3 EY  3080101J01JAN2501JAN26 234 6  KWI19201920+0300  AUH20552055+0400  32D                                                              EY  382                            J16Y120               000411
3 EY  3080201J03JAN2526DEC25    5   KWI19201920+0300  AUH20552055+0400  32D                                                              EY  386                            J16Y120               000412
3 EY  3080301J05JAN2529DEC251     7 KWI19201920+0300  AUH20552055+0400  32D                                                              EY  398                            J16Y120               000413
3 EY  3110101J01JAN2501JAN261234567 AUH09500950+0400  JED13001300+0300  32W                                                              EY  312                            J8Y188                000414
3 EY  3120101J01JAN2501JAN261234567 JED16251625+0300  AUH19001900+0400  32W                                                              EY  065                            J8Y188                000415
3 EY  3130101J01JAN2501JAN261234567 AUH21402140+0400  JED00400040+0300  78H                                                              EY  314                            J32Y271               000416
3 EY  3140101J01JAN2501JAN261234567 JED02100210+0300  AUH04350435+0400  78H                                                              EY  333                            J32Y271               000417
3 EY  3150101J01JAN2501JAN261234567 AUH22102210+0400  RUH00100010+0300  32W                                                              EY  316                            J8Y188                000418
3 EY  3160101J01JAN2501JAN261234567 RUH01150115+0300  AUH02500250+0400  32W                                                              EY  353                            J8Y188                000419
3 EY  3170101J01JAN2501JAN261234567 AUH10351035+0400  RUH12401240+0300  32M                                                              EY  318                            J8Y150                000420
3 EY  3180101J01JAN2501JAN261234567 RUH14001400+0300  AUH15401540+0400  32M                                                              EY  288                            J8Y150                000421
3 EY  3200101J01JAN2501JAN261234567 DMM01250125+0300  AUH02350235+0400  32D                                                              EY  321                            J16Y120               000422
3 EY  3210101J01JAN2501JAN261234567 AUH05150515+0400  DMM06400640+0300  32D                                                              EY  322                            J16Y120               000423
3 EY  3220101J01JAN2501JAN261234567 DMM07350735+0300  AUH08450845+0400  32D                                                              EY  327                            J16Y120               000424
3 EY  3230101J01JAN2501JAN261234567 AUH22452245+0400  DMM00100010+0300  32D                                                              EY  320                            J16Y120               000425
3 EY  3250101J01JAN2501JAN261234567 AUH17301730+0400  DMM18551855+0300  32D                                                              EY  326                            J16Y120               000426
3 EY  3260101J01JAN2501JAN261234567 DMM19451945+0300  AUH21002100+0400  32D                                                              EY  323                            J16Y120               000427
3 EY  3270101J01JAN2501JAN261234567 AUH10501050+0400  DMM12151215+0300  32D                                                              EY  328                            J16Y120               000428
3 EY  3280101J01JAN2501JAN261234567 DMM13451345+0300  AUH15001500+0400  32D                                                              EY  325                            J16Y120               000429
3 EY  3330101J01JAN2501JAN261234567 AUH07100710+0400  JED10101010+0300  78H                                                              EY  334                            J32Y271               000430
3 EY  3340101J01JAN2501JAN261234567 JED11501150+0300  AUH14201420+0400  78H                                                              EY  460                            J32Y271               000431
3 EY  3350101J01JAN2501JAN261234567 AUH17451745+0400  JED20402040+0300  32W                                                              EY  336                            J8Y188                000432
3 EY  3360101J01JAN2501JAN261234567 JED23552355+0300  AUH02300230+0400  32W                                                              EY  301                            J8Y188                000433
3 EY  3450101J01JAN2501JAN261234567 AUH22052205+0400  MED01000100+0300  32T                                                              EY  346                            J8Y150                000434
3 EY  3460101J01JAN2501JAN261234567 MED01500150+0300  AUH04050405+0400  32T                                                              EY  276                            J8Y150                000435
3 EY  3510101J01JAN2501JAN261234567 AUH17051705+0400  RUH19101910+0300  32T                                                              EY  352                            J8Y150                000436
3 EY  3520101J01JAN2501JAN261234567 RUH20002000+0300  AUH21352135+0400  32T                                                              EY  238                            J8Y150                000437
3 EY  3530101J01JAN2501JAN261234567 AUH04050405+0400  RUH06000600+0300  32W                                                              EY  354                            J8Y188                000438
3 EY  3540101J01JAN2501JAN261234567 RUH07050705+0300  AUH08450845+0400  32W                                                              EY  204                            J8Y188                000439
3 EY  3710101J01JAN2501JAN261234567 AUH05150515+0400  BAH06350635+0300  32M                                                              EY  378                            J8Y150                000440
3 EY  3720101J01JAN2531DEC251 3  67 BAH19451945+0300  AUH20552055+0400  32D                                                              EY  260                            J16Y120               000441
3 EY  3720201J02JAN2501JAN26 2 4    BAH19451945+0300  AUH20552055+0400  32D                                                              EY  398                            J16Y120               000442
3 EY  3720301J03JAN2526DEC25    5   BAH19451945+0300  AUH20552055+0400  32D                                                              EY  382                            J16Y120               000443
3 EY  3750101J01JAN2501JAN261234567 AUH12101210+0400  BAH13251325+0300  32D                                                              EY  376                            J16Y120               000444
3 EY  3760101J01JAN2501JAN261234567 BAH14151415+0300  AUH15251525+0400  32D                                                              EY  307                            J16Y120               000445
3 EY  3770101J01JAN2501JAN261234567 AUH17451745+0400  BAH18551855+0300  32D                                                              EY  372                            J16Y120               000446
3 EY  3780101J01JAN2501JAN261234567 BAH07250725+0300  AUH08300830+0400  32M                                                              EY  317                            J8Y150                000447
3 EY  3810101J01JAN2531DEC251 3  67 MCT19451945+0400  AUH20552055+0400  32M                                                              EY  386                            J8Y150                000448
3 EY  3810201J02JAN2501JAN26 2 45   MCT19451945+0400  AUH20552055+0400  32M                                                              EY  297                            J8Y150                000449
3 EY  3820101J01JAN2501JAN261234567 AUH04500450+0400  MCT06000600+0400  32D                                                              EY  383                            J16Y120               000450
3 EY  3830101J01JAN2501JAN261234567 MCT10001000+0400  AUH11051105+0400  32D                                                              EY  375                            J16Y120               000451
3 EY  3860101J01JAN2531DEC25  3 56  AUH12401240+0400  MCT13451345+0400  32D                                                              EY  387                            J16Y120               000452
3 EY  3860201J02JAN2501JAN2612 4  7 AUH12401240+0400  MCT13451345+0400  32M                                                              EY  387                            J8Y150                000453
3 EY  3870101J01JAN2531DEC25  3 56  MCT15051505+0400  AUH16151615+0400  32D                                                              EY  272                            J16Y120               000454
3 EY  3870201J02JAN2501JAN2612 4  7 MCT15051505+0400  AUH16151615+0400  32M                                                              EY  388                            J8Y150                000455
3 EY  3880101J01JAN2501JAN261234567 AUH17351735+0400  MCT18401840+0400  32M                                                              EY  381                            J8Y150                000456
3 EY  3980101J01JAN2501JAN261234567 AUH22052205+0400  BAH23202320+0300  32D                                                              EY  399                            J16Y120               000457
3 EY  3990101J01JAN2501JAN261 34567 BAH00100010+0300  AUH01200120+0400  32D                                                              EY  641                            J16Y120               000458
3 EY  3990201J07JAN2530DEC25 2      BAH00100010+0300  AUH01200120+0400  32D                                                              EY  382                            J16Y120               000459
3 EY  4010101J01JAN2501JAN261234567 BKK13001300+0700  AUH20052005+0400  78J                                                              EY  015                            J32Y295               000460
3 EY  4020101J01JAN2501JAN261234567 AUH17451745+0400  BKK23502350+0700  78J                                                              EY  407                            J32Y295               000461
3 EY  4070101J01JAN2501JAN261234567 BKK10551055+0700  AUH18001800+0400  78J                                                              EY  045                            J32Y295               000462
3 EY  4080101J01JAN2501JAN261234567 AUH04550455+0400  BKK11001100+0700  78J                                                              EY  401                            J32Y295               000463
3 EY  4110101J01JAN2501JAN261234567 KUL11051105+0800  AUH18301830+0400  78E                                                              EY  073                            J28Y262               000464
3 EY  4180101J01JAN2501JAN261234567 AUH18301830+0400  KUL01250125+0800  78E                                                              EY  411                            J28Y262               000465
3 EY  4210101J01JAN2501JAN261234567 MNL16351635+0800  AUH02000200+0400  78J                                                              EY  428                            J32Y295               000466
3 EY  4230101J01JAN2501JAN261234567 MNL09400940+0800  AUH19251925+0400  78J                                                              EY  424                            J32Y295               000467
3 EY  9990101J01JAN2501JAN261234567 NUM09000900+0300  AUH12001200+0400  78J                                                                                                 J32Y295               000466
3 EY  9980101J01JAN2501JAN261234567 NUM08000800+0300  AUH11001100+0400  78J                                                                                                 J32Y295               000467
3 EY  4240101J01JAN2501JAN261234567 AUH23102310+0400  MNL07200720+0800  78J                                                              EY  423                            J32Y295               000468
3 EY  4280101J01JAN2501JAN261234567 AUH06350635+0400  MNL14501450+0800  78J                                                              EY  421                            J32Y295               000469
3 EY  4300101J01JAN2501JAN261234567 AUH05100510+0400  HKT11151115+0700  78E                                                              EY  431                            J28Y262               000470
3 EY  4310101J01JAN2501JAN261234567 HKT12401240+0700  AUH19251925+0400  78E                                                              EY  604                            J28Y262               000471
3 EY  4500101J01JAN2504APR251234567 AUH05400540+0400  SYD19201920+1100  78H                                                              EY  451                            J32Y271               000472
3 EY  4500201J05APR2503OCT251234567 AUH06400640+0400  SYD20202020+1000  78H                                                              EY  451                            J32Y271               000473
3 EY  4500301J04OCT2501JAN261234567 AUH05400540+0400  SYD19201920+1100  78H                                                              EY  451                            J32Y271               000474
3 EY  4510101J01JAN2527FEB251234567 SYD05250525+1100  AUH19551955+0400  78H                                                              EY  005                            J32Y271               000475
3 EY  4510201J28FEB2504APR25 2345 7 SYD05250525+1100  AUH19551955+0400  78H                                                              EY  075                            J32Y271               000476
3 EY  4510301J01MAR2522MAR25     6  SYD05250525+1100  AUH19551955+0400  78H                                                              EY  862                            J32Y271               000477
3 EY  4510401J03MAR2531MAR251       SYD05250525+1100  AUH19551955+0400  78H                                                              EY  001                            J32Y271               000478
3 EY  4510501J29MAR2505APR25     6  SYD05250525+1100  AUH19551955+0400  78H                                                              EY  037                            J32Y271               000479
3 EY  4510601J06APR2503OCT25 2345 7 SYD05250525+1000  AUH19551955+0400  78H                                                              EY  075                            J32Y271               000480
3 EY  4510701J07APR2529SEP251       SYD05250525+1000  AUH19551955+0400  78H                                                              EY  001                            J32Y271               000481
3 EY  4510801J12APR2504OCT25     6  SYD05250525+1000  AUH19551955+0400  78H                                                              EY  037                            J32Y271               000482
3 EY  4510901J05OCT2530NOV25 2345 7 SYD05250525+1100  AUH19551955+0400  78H                                                              EY  075                            J32Y271               000483
3 EY  4511001J06OCT2529DEC251       SYD05250525+1100  AUH19551955+0400  78H                                                              EY  001                            J32Y271               000484
3 EY  4511101J11OCT2518OCT25     6  SYD05250525+1100  AUH19551955+0400  78H                                                              EY  037                            J32Y271               000485
3 EY  4511201J25OCT2529NOV25     6  SYD05250525+1100  AUH19551955+0400  78H                                                              EY  862                            J32Y271               000486
3 EY  4511301J02DEC2501JAN26 234567 SYD05250525+1100  AUH19551955+0400  78H                                                              EY  075                            J32Y271               000487
3 EY  4540101J01JAN2504APR251234567 AUH18301830+0400  SYD08300830+1100  35B                                                              EY  455                            J44Y327               000488
3 EY  4540201J05APR2503OCT251234567 AUH18301830+0400  SYD08300830+1000  35B                                                              EY  455                            J44Y327               000489
3 EY  4540301J04OCT2501JAN261234567 AUH18301830+0400  SYD08300830+1100  35B                                                              EY  455                            J44Y327               000490
3 EY  4550101J01JAN2505APR251234567 SYD10451045+1100  AUH01400140+0400  35B                                                              EY  151                            J44Y327               000491
3 EY  4550201J06APR2504OCT251234567 SYD10451045+1000  AUH01400140+0400  35B                                                              EY  151                            J44Y327               000492
